{
	"contracts/Twitter.sol": {
		"Twitter": {
			"abi": [
				{
					"inputs": [],
					"stateMutability": "nonpayable",
					"type": "constructor"
				},
				{
					"inputs": [
						{
							"internalType": "uint16",
							"name": "newTweetLength",
							"type": "uint16"
						}
					],
					"name": "changeTweetLength",
					"outputs": [],
					"stateMutability": "nonpayable",
					"type": "function"
				},
				{
					"inputs": [
						{
							"internalType": "string",
							"name": "_tweet",
							"type": "string"
						}
					],
					"name": "createTweet",
					"outputs": [],
					"stateMutability": "nonpayable",
					"type": "function"
				},
				{
					"inputs": [
						{
							"internalType": "address",
							"name": "_owner",
							"type": "address"
						}
					],
					"name": "getAllTweets",
					"outputs": [
						{
							"components": [
								{
									"internalType": "address",
									"name": "author",
									"type": "address"
								},
								{
									"internalType": "string",
									"name": "content",
									"type": "string"
								},
								{
									"internalType": "uint256",
									"name": "timestamp",
									"type": "uint256"
								},
								{
									"internalType": "uint256",
									"name": "likes",
									"type": "uint256"
								}
							],
							"internalType": "struct Twitter.Tweet[]",
							"name": "",
							"type": "tuple[]"
						}
					],
					"stateMutability": "view",
					"type": "function"
				},
				{
					"inputs": [
						{
							"internalType": "address",
							"name": "_owner",
							"type": "address"
						},
						{
							"internalType": "uint256",
							"name": "_i",
							"type": "uint256"
						}
					],
					"name": "getTweet",
					"outputs": [
						{
							"components": [
								{
									"internalType": "address",
									"name": "author",
									"type": "address"
								},
								{
									"internalType": "string",
									"name": "content",
									"type": "string"
								},
								{
									"internalType": "uint256",
									"name": "timestamp",
									"type": "uint256"
								},
								{
									"internalType": "uint256",
									"name": "likes",
									"type": "uint256"
								}
							],
							"internalType": "struct Twitter.Tweet",
							"name": "",
							"type": "tuple"
						}
					],
					"stateMutability": "view",
					"type": "function"
				},
				{
					"inputs": [],
					"name": "owner",
					"outputs": [
						{
							"internalType": "address",
							"name": "",
							"type": "address"
						}
					],
					"stateMutability": "view",
					"type": "function"
				},
				{
					"inputs": [
						{
							"internalType": "address",
							"name": "",
							"type": "address"
						},
						{
							"internalType": "uint256",
							"name": "",
							"type": "uint256"
						}
					],
					"name": "tweets",
					"outputs": [
						{
							"internalType": "address",
							"name": "author",
							"type": "address"
						},
						{
							"internalType": "string",
							"name": "content",
							"type": "string"
						},
						{
							"internalType": "uint256",
							"name": "timestamp",
							"type": "uint256"
						},
						{
							"internalType": "uint256",
							"name": "likes",
							"type": "uint256"
						}
					],
					"stateMutability": "view",
					"type": "function"
				}
			],
			"devdoc": {
				"kind": "dev",
				"methods": {},
				"version": 1
			},
			"evm": {
				"assembly": "    /* \"contracts/Twitter.sol\":198:1435  contract Twitter {... */\n  mstore(0x40, 0x80)\n    /* \"contracts/Twitter.sol\":243:246  250 */\n  0xfa\n    /* \"contracts/Twitter.sol\":224:246  uint16 MAX_LIMIT = 250 */\n  0x00\n  exp(0x0100, 0x00)\n  dup2\n  sload\n  dup2\n  0xffff\n  mul\n  not\n  and\n  swap1\n  dup4\n  0xffff\n  and\n  mul\n  or\n  swap1\n  sstore\n  pop\n    /* \"contracts/Twitter.sol\":282:333  constructor() {... */\n  callvalue\n  dup1\n  iszero\n  tag_1\n  jumpi\n  revert(0x00, 0x00)\ntag_1:\n  pop\n    /* \"contracts/Twitter.sol\":315:325  msg.sender */\n  caller\n    /* \"contracts/Twitter.sol\":307:312  owner */\n  0x00\n  0x02\n    /* \"contracts/Twitter.sol\":307:325  owner = msg.sender */\n  0x0100\n  exp\n  dup2\n  sload\n  dup2\n  0xffffffffffffffffffffffffffffffffffffffff\n  mul\n  not\n  and\n  swap1\n  dup4\n  0xffffffffffffffffffffffffffffffffffffffff\n  and\n  mul\n  or\n  swap1\n  sstore\n  pop\n    /* \"contracts/Twitter.sol\":198:1435  contract Twitter {... */\n  dataSize(sub_0)\n  dup1\n  dataOffset(sub_0)\n  0x00\n  codecopy\n  0x00\n  return\nstop\n\nsub_0: assembly {\n        /* \"contracts/Twitter.sol\":198:1435  contract Twitter {... */\n      mstore(0x40, 0x80)\n      callvalue\n      dup1\n      iszero\n      tag_1\n      jumpi\n      revert(0x00, 0x00)\n    tag_1:\n      pop\n      jumpi(tag_2, lt(calldatasize, 0x04))\n      shr(0xe0, calldataload(0x00))\n      dup1\n      0x05a1b4a9\n      eq\n      tag_3\n      jumpi\n      dup1\n      0x112f54e3\n      eq\n      tag_4\n      jumpi\n      dup1\n      0x12e7ee1c\n      eq\n      tag_5\n      jumpi\n      dup1\n      0x58bfa4ab\n      eq\n      tag_6\n      jumpi\n      dup1\n      0x7c9cd2bc\n      eq\n      tag_7\n      jumpi\n      dup1\n      0x8da5cb5b\n      eq\n      tag_8\n      jumpi\n    tag_2:\n      revert(0x00, 0x00)\n        /* \"contracts/Twitter.sol\":472:513  mapping(address => Tweet[]) public tweets */\n    tag_3:\n      tag_9\n      0x04\n      dup1\n      calldatasize\n      sub\n      dup2\n      add\n      swap1\n      tag_10\n      swap2\n      swap1\n      tag_11\n      jump\t// in\n    tag_10:\n      tag_12\n      jump\t// in\n    tag_9:\n      mload(0x40)\n      tag_13\n      swap5\n      swap4\n      swap3\n      swap2\n      swap1\n      tag_14\n      jump\t// in\n    tag_13:\n      mload(0x40)\n      dup1\n      swap2\n      sub\n      swap1\n      return\n        /* \"contracts/Twitter.sol\":1176:1301  function getTweet(address _owner, uint256 _i) public view returns (Tweet memory) {... */\n    tag_4:\n      tag_15\n      0x04\n      dup1\n      calldatasize\n      sub\n      dup2\n      add\n      swap1\n      tag_16\n      swap2\n      swap1\n      tag_11\n      jump\t// in\n    tag_16:\n      tag_17\n      jump\t// in\n    tag_15:\n      mload(0x40)\n      tag_18\n      swap2\n      swap1\n      tag_19\n      jump\t// in\n    tag_18:\n      mload(0x40)\n      dup1\n      swap2\n      sub\n      swap1\n      return\n        /* \"contracts/Twitter.sol\":1309:1424  function getAllTweets(address _owner) public view returns (Tweet[] memory) {... */\n    tag_5:\n      tag_20\n      0x04\n      dup1\n      calldatasize\n      sub\n      dup2\n      add\n      swap1\n      tag_21\n      swap2\n      swap1\n      tag_22\n      jump\t// in\n    tag_21:\n      tag_23\n      jump\t// in\n    tag_20:\n      mload(0x40)\n      tag_24\n      swap2\n      swap1\n      tag_25\n      jump\t// in\n    tag_24:\n      mload(0x40)\n      dup1\n      swap2\n      sub\n      swap1\n      return\n        /* \"contracts/Twitter.sol\":665:777  function changeTweetLength(uint16 newTweetLength) public onlyOwner {... */\n    tag_6:\n      tag_26\n      0x04\n      dup1\n      calldatasize\n      sub\n      dup2\n      add\n      swap1\n      tag_27\n      swap2\n      swap1\n      tag_28\n      jump\t// in\n    tag_27:\n      tag_29\n      jump\t// in\n    tag_26:\n      stop\n        /* \"contracts/Twitter.sol\":785:1168  function createTweet(string memory _tweet) public {... */\n    tag_7:\n      tag_30\n      0x04\n      dup1\n      calldatasize\n      sub\n      dup2\n      add\n      swap1\n      tag_31\n      swap2\n      swap1\n      tag_32\n      jump\t// in\n    tag_31:\n      tag_33\n      jump\t// in\n    tag_30:\n      stop\n        /* \"contracts/Twitter.sol\":253:273  address public owner */\n    tag_8:\n      tag_34\n      tag_35\n      jump\t// in\n    tag_34:\n      mload(0x40)\n      tag_36\n      swap2\n      swap1\n      tag_37\n      jump\t// in\n    tag_36:\n      mload(0x40)\n      dup1\n      swap2\n      sub\n      swap1\n      return\n        /* \"contracts/Twitter.sol\":472:513  mapping(address => Tweet[]) public tweets */\n    tag_12:\n      mstore(0x20, 0x01)\n      dup2\n      0x00\n      mstore\n      keccak256(0x00, 0x40)\n      dup2\n      dup2\n      sload\n      dup2\n      lt\n      tag_38\n      jumpi\n      0x00\n      dup1\n      revert\n    tag_38:\n      swap1\n      0x00\n      mstore\n      keccak256(0x00, 0x20)\n      swap1\n      0x04\n      mul\n      add\n      0x00\n      swap2\n      pop\n      swap2\n      pop\n      pop\n      dup1\n      0x00\n      add\n      0x00\n      swap1\n      sload\n      swap1\n      0x0100\n      exp\n      swap1\n      div\n      0xffffffffffffffffffffffffffffffffffffffff\n      and\n      swap1\n      dup1\n      0x01\n      add\n      dup1\n      sload\n      tag_40\n      swap1\n      tag_41\n      jump\t// in\n    tag_40:\n      dup1\n      0x1f\n      add\n      0x20\n      dup1\n      swap2\n      div\n      mul\n      0x20\n      add\n      mload(0x40)\n      swap1\n      dup2\n      add\n      0x40\n      mstore\n      dup1\n      swap3\n      swap2\n      swap1\n      dup2\n      dup2\n      mstore\n      0x20\n      add\n      dup3\n      dup1\n      sload\n      tag_42\n      swap1\n      tag_41\n      jump\t// in\n    tag_42:\n      dup1\n      iszero\n      tag_43\n      jumpi\n      dup1\n      0x1f\n      lt\n      tag_44\n      jumpi\n      0x0100\n      dup1\n      dup4\n      sload\n      div\n      mul\n      dup4\n      mstore\n      swap2\n      0x20\n      add\n      swap2\n      jump(tag_43)\n    tag_44:\n      dup3\n      add\n      swap2\n      swap1\n      0x00\n      mstore\n      keccak256(0x00, 0x20)\n      swap1\n    tag_45:\n      dup2\n      sload\n      dup2\n      mstore\n      swap1\n      0x01\n      add\n      swap1\n      0x20\n      add\n      dup1\n      dup4\n      gt\n      tag_45\n      jumpi\n      dup3\n      swap1\n      sub\n      0x1f\n      and\n      dup3\n      add\n      swap2\n    tag_43:\n      pop\n      pop\n      pop\n      pop\n      pop\n      swap1\n      dup1\n      0x02\n      add\n      sload\n      swap1\n      dup1\n      0x03\n      add\n      sload\n      swap1\n      pop\n      dup5\n      jump\t// out\n        /* \"contracts/Twitter.sol\":1176:1301  function getTweet(address _owner, uint256 _i) public view returns (Tweet memory) {... */\n    tag_17:\n        /* \"contracts/Twitter.sol\":1243:1255  Tweet memory */\n      tag_46\n      tag_47\n      jump\t// in\n    tag_46:\n        /* \"contracts/Twitter.sol\":1275:1281  tweets */\n      0x01\n        /* \"contracts/Twitter.sol\":1275:1289  tweets[_owner] */\n      0x00\n        /* \"contracts/Twitter.sol\":1282:1288  _owner */\n      dup5\n        /* \"contracts/Twitter.sol\":1275:1289  tweets[_owner] */\n      0xffffffffffffffffffffffffffffffffffffffff\n      and\n      0xffffffffffffffffffffffffffffffffffffffff\n      and\n      dup2\n      mstore\n      0x20\n      add\n      swap1\n      dup2\n      mstore\n      0x20\n      add\n      0x00\n      keccak256\n        /* \"contracts/Twitter.sol\":1290:1292  _i */\n      dup3\n        /* \"contracts/Twitter.sol\":1275:1293  tweets[_owner][_i] */\n      dup2\n      sload\n      dup2\n      lt\n      tag_49\n      jumpi\n      tag_50\n      tag_51\n      jump\t// in\n    tag_50:\n    tag_49:\n      swap1\n      0x00\n      mstore\n      keccak256(0x00, 0x20)\n      swap1\n      0x04\n      mul\n      add\n        /* \"contracts/Twitter.sol\":1268:1293  return tweets[_owner][_i] */\n      mload(0x40)\n      dup1\n      0x80\n      add\n      0x40\n      mstore\n      swap1\n      dup2\n      0x00\n      dup3\n      add\n      0x00\n      swap1\n      sload\n      swap1\n      0x0100\n      exp\n      swap1\n      div\n      0xffffffffffffffffffffffffffffffffffffffff\n      and\n      0xffffffffffffffffffffffffffffffffffffffff\n      and\n      0xffffffffffffffffffffffffffffffffffffffff\n      and\n      dup2\n      mstore\n      0x20\n      add\n      0x01\n      dup3\n      add\n      dup1\n      sload\n      tag_53\n      swap1\n      tag_41\n      jump\t// in\n    tag_53:\n      dup1\n      0x1f\n      add\n      0x20\n      dup1\n      swap2\n      div\n      mul\n      0x20\n      add\n      mload(0x40)\n      swap1\n      dup2\n      add\n      0x40\n      mstore\n      dup1\n      swap3\n      swap2\n      swap1\n      dup2\n      dup2\n      mstore\n      0x20\n      add\n      dup3\n      dup1\n      sload\n      tag_54\n      swap1\n      tag_41\n      jump\t// in\n    tag_54:\n      dup1\n      iszero\n      tag_55\n      jumpi\n      dup1\n      0x1f\n      lt\n      tag_56\n      jumpi\n      0x0100\n      dup1\n      dup4\n      sload\n      div\n      mul\n      dup4\n      mstore\n      swap2\n      0x20\n      add\n      swap2\n      jump(tag_55)\n    tag_56:\n      dup3\n      add\n      swap2\n      swap1\n      0x00\n      mstore\n      keccak256(0x00, 0x20)\n      swap1\n    tag_57:\n      dup2\n      sload\n      dup2\n      mstore\n      swap1\n      0x01\n      add\n      swap1\n      0x20\n      add\n      dup1\n      dup4\n      gt\n      tag_57\n      jumpi\n      dup3\n      swap1\n      sub\n      0x1f\n      and\n      dup3\n      add\n      swap2\n    tag_55:\n      pop\n      pop\n      pop\n      pop\n      pop\n      dup2\n      mstore\n      0x20\n      add\n      0x02\n      dup3\n      add\n      sload\n      dup2\n      mstore\n      0x20\n      add\n      0x03\n      dup3\n      add\n      sload\n      dup2\n      mstore\n      pop\n      pop\n      swap1\n      pop\n        /* \"contracts/Twitter.sol\":1176:1301  function getTweet(address _owner, uint256 _i) public view returns (Tweet memory) {... */\n      swap3\n      swap2\n      pop\n      pop\n      jump\t// out\n        /* \"contracts/Twitter.sol\":1309:1424  function getAllTweets(address _owner) public view returns (Tweet[] memory) {... */\n    tag_23:\n        /* \"contracts/Twitter.sol\":1368:1382  Tweet[] memory */\n      0x60\n        /* \"contracts/Twitter.sol\":1402:1408  tweets */\n      0x01\n        /* \"contracts/Twitter.sol\":1402:1416  tweets[_owner] */\n      0x00\n        /* \"contracts/Twitter.sol\":1409:1415  _owner */\n      dup4\n        /* \"contracts/Twitter.sol\":1402:1416  tweets[_owner] */\n      0xffffffffffffffffffffffffffffffffffffffff\n      and\n      0xffffffffffffffffffffffffffffffffffffffff\n      and\n      dup2\n      mstore\n      0x20\n      add\n      swap1\n      dup2\n      mstore\n      0x20\n      add\n      0x00\n      keccak256\n        /* \"contracts/Twitter.sol\":1395:1416  return tweets[_owner] */\n      dup1\n      sload\n      dup1\n      0x20\n      mul\n      0x20\n      add\n      mload(0x40)\n      swap1\n      dup2\n      add\n      0x40\n      mstore\n      dup1\n      swap3\n      swap2\n      swap1\n      dup2\n      dup2\n      mstore\n      0x20\n      add\n      0x00\n      swap1\n    tag_59:\n      dup3\n      dup3\n      lt\n      iszero\n      tag_60\n      jumpi\n      dup4\n      dup3\n      swap1\n      0x00\n      mstore\n      keccak256(0x00, 0x20)\n      swap1\n      0x04\n      mul\n      add\n      mload(0x40)\n      dup1\n      0x80\n      add\n      0x40\n      mstore\n      swap1\n      dup2\n      0x00\n      dup3\n      add\n      0x00\n      swap1\n      sload\n      swap1\n      0x0100\n      exp\n      swap1\n      div\n      0xffffffffffffffffffffffffffffffffffffffff\n      and\n      0xffffffffffffffffffffffffffffffffffffffff\n      and\n      0xffffffffffffffffffffffffffffffffffffffff\n      and\n      dup2\n      mstore\n      0x20\n      add\n      0x01\n      dup3\n      add\n      dup1\n      sload\n      tag_62\n      swap1\n      tag_41\n      jump\t// in\n    tag_62:\n      dup1\n      0x1f\n      add\n      0x20\n      dup1\n      swap2\n      div\n      mul\n      0x20\n      add\n      mload(0x40)\n      swap1\n      dup2\n      add\n      0x40\n      mstore\n      dup1\n      swap3\n      swap2\n      swap1\n      dup2\n      dup2\n      mstore\n      0x20\n      add\n      dup3\n      dup1\n      sload\n      tag_63\n      swap1\n      tag_41\n      jump\t// in\n    tag_63:\n      dup1\n      iszero\n      tag_64\n      jumpi\n      dup1\n      0x1f\n      lt\n      tag_65\n      jumpi\n      0x0100\n      dup1\n      dup4\n      sload\n      div\n      mul\n      dup4\n      mstore\n      swap2\n      0x20\n      add\n      swap2\n      jump(tag_64)\n    tag_65:\n      dup3\n      add\n      swap2\n      swap1\n      0x00\n      mstore\n      keccak256(0x00, 0x20)\n      swap1\n    tag_66:\n      dup2\n      sload\n      dup2\n      mstore\n      swap1\n      0x01\n      add\n      swap1\n      0x20\n      add\n      dup1\n      dup4\n      gt\n      tag_66\n      jumpi\n      dup3\n      swap1\n      sub\n      0x1f\n      and\n      dup3\n      add\n      swap2\n    tag_64:\n      pop\n      pop\n      pop\n      pop\n      pop\n      dup2\n      mstore\n      0x20\n      add\n      0x02\n      dup3\n      add\n      sload\n      dup2\n      mstore\n      0x20\n      add\n      0x03\n      dup3\n      add\n      sload\n      dup2\n      mstore\n      pop\n      pop\n      dup2\n      mstore\n      0x20\n      add\n      swap1\n      0x01\n      add\n      swap1\n      jump(tag_59)\n    tag_60:\n      pop\n      pop\n      pop\n      pop\n      swap1\n      pop\n        /* \"contracts/Twitter.sol\":1309:1424  function getAllTweets(address _owner) public view returns (Tweet[] memory) {... */\n      swap2\n      swap1\n      pop\n      jump\t// out\n        /* \"contracts/Twitter.sol\":665:777  function changeTweetLength(uint16 newTweetLength) public onlyOwner {... */\n    tag_29:\n        /* \"contracts/Twitter.sol\":576:581  owner */\n      0x00\n      0x02\n      swap1\n      sload\n      swap1\n      0x0100\n      exp\n      swap1\n      div\n      0xffffffffffffffffffffffffffffffffffffffff\n      and\n        /* \"contracts/Twitter.sol\":562:581  msg.sender == owner */\n      0xffffffffffffffffffffffffffffffffffffffff\n      and\n        /* \"contracts/Twitter.sol\":562:572  msg.sender */\n      caller\n        /* \"contracts/Twitter.sol\":562:581  msg.sender == owner */\n      0xffffffffffffffffffffffffffffffffffffffff\n      and\n      eq\n        /* \"contracts/Twitter.sol\":554:637  require(msg.sender == owner, \"Only owner of the contract can perform this action.\") */\n      tag_68\n      jumpi\n      mload(0x40)\n      0x08c379a000000000000000000000000000000000000000000000000000000000\n      dup2\n      mstore\n      0x04\n      add\n      tag_69\n      swap1\n      tag_70\n      jump\t// in\n    tag_69:\n      mload(0x40)\n      dup1\n      swap2\n      sub\n      swap1\n      revert\n    tag_68:\n        /* \"contracts/Twitter.sol\":755:769  newTweetLength */\n      dup1\n        /* \"contracts/Twitter.sol\":743:752  MAX_LIMIT */\n      0x00\n      0x00\n        /* \"contracts/Twitter.sol\":743:769  MAX_LIMIT = newTweetLength */\n      0x0100\n      exp\n      dup2\n      sload\n      dup2\n      0xffff\n      mul\n      not\n      and\n      swap1\n      dup4\n      0xffff\n      and\n      mul\n      or\n      swap1\n      sstore\n      pop\n        /* \"contracts/Twitter.sol\":665:777  function changeTweetLength(uint16 newTweetLength) public onlyOwner {... */\n      pop\n      jump\t// out\n        /* \"contracts/Twitter.sol\":785:1168  function createTweet(string memory _tweet) public {... */\n    tag_33:\n        /* \"contracts/Twitter.sol\":879:888  MAX_LIMIT */\n      0x00\n      0x00\n      swap1\n      sload\n      swap1\n      0x0100\n      exp\n      swap1\n      div\n      0xffff\n      and\n        /* \"contracts/Twitter.sol\":854:888  bytes (_tweet).length <= MAX_LIMIT */\n      0xffff\n      and\n        /* \"contracts/Twitter.sol\":861:867  _tweet */\n      dup2\n        /* \"contracts/Twitter.sol\":854:875  bytes (_tweet).length */\n      mload\n        /* \"contracts/Twitter.sol\":854:888  bytes (_tweet).length <= MAX_LIMIT */\n      gt\n      iszero\n        /* \"contracts/Twitter.sol\":846:924  require(bytes (_tweet).length <= MAX_LIMIT, \"YOU'VE REACHED THE TWEET LIMIT!\") */\n      tag_73\n      jumpi\n      mload(0x40)\n      0x08c379a000000000000000000000000000000000000000000000000000000000\n      dup2\n      mstore\n      0x04\n      add\n      tag_74\n      swap1\n      tag_75\n      jump\t// in\n    tag_74:\n      mload(0x40)\n      dup1\n      swap2\n      sub\n      swap1\n      revert\n    tag_73:\n        /* \"contracts/Twitter.sol\":945:966  Tweet memory newTweet */\n      0x00\n        /* \"contracts/Twitter.sol\":969:1114  Tweet({... */\n      mload(0x40)\n      dup1\n      0x80\n      add\n      0x40\n      mstore\n      dup1\n        /* \"contracts/Twitter.sol\":998:1008  msg.sender */\n      caller\n        /* \"contracts/Twitter.sol\":969:1114  Tweet({... */\n      0xffffffffffffffffffffffffffffffffffffffff\n      and\n      dup2\n      mstore\n      0x20\n      add\n        /* \"contracts/Twitter.sol\":1032:1038  _tweet */\n      dup4\n        /* \"contracts/Twitter.sol\":969:1114  Tweet({... */\n      dup2\n      mstore\n      0x20\n      add\n        /* \"contracts/Twitter.sol\":1064:1079  block.timestamp */\n      timestamp\n        /* \"contracts/Twitter.sol\":969:1114  Tweet({... */\n      dup2\n      mstore\n      0x20\n      add\n        /* \"contracts/Twitter.sol\":1101:1102  0 */\n      0x00\n        /* \"contracts/Twitter.sol\":969:1114  Tweet({... */\n      dup2\n      mstore\n      pop\n        /* \"contracts/Twitter.sol\":945:1114  Tweet memory newTweet = Tweet({... */\n      swap1\n      pop\n        /* \"contracts/Twitter.sol\":1127:1133  tweets */\n      0x01\n        /* \"contracts/Twitter.sol\":1127:1145  tweets[msg.sender] */\n      0x00\n        /* \"contracts/Twitter.sol\":1134:1144  msg.sender */\n      caller\n        /* \"contracts/Twitter.sol\":1127:1145  tweets[msg.sender] */\n      0xffffffffffffffffffffffffffffffffffffffff\n      and\n      0xffffffffffffffffffffffffffffffffffffffff\n      and\n      dup2\n      mstore\n      0x20\n      add\n      swap1\n      dup2\n      mstore\n      0x20\n      add\n      0x00\n      keccak256\n        /* \"contracts/Twitter.sol\":1151:1159  newTweet */\n      dup2\n        /* \"contracts/Twitter.sol\":1127:1160  tweets[msg.sender].push(newTweet) */\n      swap1\n      dup1\n      0x01\n      dup2\n      sload\n      add\n      dup1\n      dup3\n      sstore\n      dup1\n      swap2\n      pop\n      pop\n      0x01\n      swap1\n      sub\n      swap1\n      0x00\n      mstore\n      keccak256(0x00, 0x20)\n      swap1\n      0x04\n      mul\n      add\n      0x00\n      swap1\n      swap2\n      swap1\n      swap2\n      swap1\n      swap2\n      pop\n      0x00\n      dup3\n      add\n      mload\n      dup2\n      0x00\n      add\n      exp(0x0100, 0x00)\n      dup2\n      sload\n      dup2\n      0xffffffffffffffffffffffffffffffffffffffff\n      mul\n      not\n      and\n      swap1\n      dup4\n      0xffffffffffffffffffffffffffffffffffffffff\n      and\n      mul\n      or\n      swap1\n      sstore\n      pop\n      0x20\n      dup3\n      add\n      mload\n      dup2\n      0x01\n      add\n      swap1\n      dup2\n      tag_77\n      swap2\n      swap1\n      tag_78\n      jump\t// in\n    tag_77:\n      pop\n      0x40\n      dup3\n      add\n      mload\n      dup2\n      0x02\n      add\n      sstore\n      0x60\n      dup3\n      add\n      mload\n      dup2\n      0x03\n      add\n      sstore\n      pop\n      pop\n        /* \"contracts/Twitter.sol\":835:1168  {... */\n      pop\n        /* \"contracts/Twitter.sol\":785:1168  function createTweet(string memory _tweet) public {... */\n      pop\n      jump\t// out\n        /* \"contracts/Twitter.sol\":253:273  address public owner */\n    tag_35:\n      0x00\n      0x02\n      swap1\n      sload\n      swap1\n      0x0100\n      exp\n      swap1\n      div\n      0xffffffffffffffffffffffffffffffffffffffff\n      and\n      dup2\n      jump\t// out\n    tag_47:\n      mload(0x40)\n      dup1\n      0x80\n      add\n      0x40\n      mstore\n      dup1\n      and(0xffffffffffffffffffffffffffffffffffffffff, 0x00)\n      dup2\n      mstore\n      0x20\n      add\n      0x60\n      dup2\n      mstore\n      0x20\n      add\n      0x00\n      dup2\n      mstore\n      0x20\n      add\n      0x00\n      dup2\n      mstore\n      pop\n      swap1\n      jump\t// out\n        /* \"#utility.yul\":7:82   */\n    tag_79:\n        /* \"#utility.yul\":40:46   */\n      0x00\n        /* \"#utility.yul\":73:75   */\n      0x40\n        /* \"#utility.yul\":67:76   */\n      mload\n        /* \"#utility.yul\":57:76   */\n      swap1\n      pop\n        /* \"#utility.yul\":7:82   */\n      swap1\n      jump\t// out\n        /* \"#utility.yul\":88:205   */\n    tag_80:\n        /* \"#utility.yul\":197:198   */\n      0x00\n        /* \"#utility.yul\":194:195   */\n      0x00\n        /* \"#utility.yul\":187:199   */\n      revert\n        /* \"#utility.yul\":211:328   */\n    tag_81:\n        /* \"#utility.yul\":320:321   */\n      0x00\n        /* \"#utility.yul\":317:318   */\n      0x00\n        /* \"#utility.yul\":310:322   */\n      revert\n        /* \"#utility.yul\":334:460   */\n    tag_82:\n        /* \"#utility.yul\":371:378   */\n      0x00\n        /* \"#utility.yul\":411:453   */\n      0xffffffffffffffffffffffffffffffffffffffff\n        /* \"#utility.yul\":404:409   */\n      dup3\n        /* \"#utility.yul\":400:454   */\n      and\n        /* \"#utility.yul\":389:454   */\n      swap1\n      pop\n        /* \"#utility.yul\":334:460   */\n      swap2\n      swap1\n      pop\n      jump\t// out\n        /* \"#utility.yul\":466:562   */\n    tag_83:\n        /* \"#utility.yul\":503:510   */\n      0x00\n        /* \"#utility.yul\":532:556   */\n      tag_146\n        /* \"#utility.yul\":550:555   */\n      dup3\n        /* \"#utility.yul\":532:556   */\n      tag_82\n      jump\t// in\n    tag_146:\n        /* \"#utility.yul\":521:556   */\n      swap1\n      pop\n        /* \"#utility.yul\":466:562   */\n      swap2\n      swap1\n      pop\n      jump\t// out\n        /* \"#utility.yul\":568:690   */\n    tag_84:\n        /* \"#utility.yul\":641:665   */\n      tag_148\n        /* \"#utility.yul\":659:664   */\n      dup2\n        /* \"#utility.yul\":641:665   */\n      tag_83\n      jump\t// in\n    tag_148:\n        /* \"#utility.yul\":634:639   */\n      dup2\n        /* \"#utility.yul\":631:666   */\n      eq\n        /* \"#utility.yul\":621:684   */\n      tag_149\n      jumpi\n        /* \"#utility.yul\":680:681   */\n      0x00\n        /* \"#utility.yul\":677:678   */\n      0x00\n        /* \"#utility.yul\":670:682   */\n      revert\n        /* \"#utility.yul\":621:684   */\n    tag_149:\n        /* \"#utility.yul\":568:690   */\n      pop\n      jump\t// out\n        /* \"#utility.yul\":696:835   */\n    tag_85:\n        /* \"#utility.yul\":742:747   */\n      0x00\n        /* \"#utility.yul\":780:786   */\n      dup2\n        /* \"#utility.yul\":767:787   */\n      calldataload\n        /* \"#utility.yul\":758:787   */\n      swap1\n      pop\n        /* \"#utility.yul\":796:829   */\n      tag_151\n        /* \"#utility.yul\":823:828   */\n      dup2\n        /* \"#utility.yul\":796:829   */\n      tag_84\n      jump\t// in\n    tag_151:\n        /* \"#utility.yul\":696:835   */\n      swap3\n      swap2\n      pop\n      pop\n      jump\t// out\n        /* \"#utility.yul\":841:918   */\n    tag_86:\n        /* \"#utility.yul\":878:885   */\n      0x00\n        /* \"#utility.yul\":907:912   */\n      dup2\n        /* \"#utility.yul\":896:912   */\n      swap1\n      pop\n        /* \"#utility.yul\":841:918   */\n      swap2\n      swap1\n      pop\n      jump\t// out\n        /* \"#utility.yul\":924:1046   */\n    tag_87:\n        /* \"#utility.yul\":997:1021   */\n      tag_154\n        /* \"#utility.yul\":1015:1020   */\n      dup2\n        /* \"#utility.yul\":997:1021   */\n      tag_86\n      jump\t// in\n    tag_154:\n        /* \"#utility.yul\":990:995   */\n      dup2\n        /* \"#utility.yul\":987:1022   */\n      eq\n        /* \"#utility.yul\":977:1040   */\n      tag_155\n      jumpi\n        /* \"#utility.yul\":1036:1037   */\n      0x00\n        /* \"#utility.yul\":1033:1034   */\n      0x00\n        /* \"#utility.yul\":1026:1038   */\n      revert\n        /* \"#utility.yul\":977:1040   */\n    tag_155:\n        /* \"#utility.yul\":924:1046   */\n      pop\n      jump\t// out\n        /* \"#utility.yul\":1052:1191   */\n    tag_88:\n        /* \"#utility.yul\":1098:1103   */\n      0x00\n        /* \"#utility.yul\":1136:1142   */\n      dup2\n        /* \"#utility.yul\":1123:1143   */\n      calldataload\n        /* \"#utility.yul\":1114:1143   */\n      swap1\n      pop\n        /* \"#utility.yul\":1152:1185   */\n      tag_157\n        /* \"#utility.yul\":1179:1184   */\n      dup2\n        /* \"#utility.yul\":1152:1185   */\n      tag_87\n      jump\t// in\n    tag_157:\n        /* \"#utility.yul\":1052:1191   */\n      swap3\n      swap2\n      pop\n      pop\n      jump\t// out\n        /* \"#utility.yul\":1197:1671   */\n    tag_11:\n        /* \"#utility.yul\":1265:1271   */\n      0x00\n        /* \"#utility.yul\":1273:1279   */\n      0x00\n        /* \"#utility.yul\":1322:1324   */\n      0x40\n        /* \"#utility.yul\":1310:1319   */\n      dup4\n        /* \"#utility.yul\":1301:1308   */\n      dup6\n        /* \"#utility.yul\":1297:1320   */\n      sub\n        /* \"#utility.yul\":1293:1325   */\n      slt\n        /* \"#utility.yul\":1290:1409   */\n      iszero\n      tag_159\n      jumpi\n        /* \"#utility.yul\":1328:1407   */\n      tag_160\n      tag_80\n      jump\t// in\n    tag_160:\n        /* \"#utility.yul\":1290:1409   */\n    tag_159:\n        /* \"#utility.yul\":1448:1449   */\n      0x00\n        /* \"#utility.yul\":1473:1526   */\n      tag_161\n        /* \"#utility.yul\":1518:1525   */\n      dup6\n        /* \"#utility.yul\":1509:1515   */\n      dup3\n        /* \"#utility.yul\":1498:1507   */\n      dup7\n        /* \"#utility.yul\":1494:1516   */\n      add\n        /* \"#utility.yul\":1473:1526   */\n      tag_85\n      jump\t// in\n    tag_161:\n        /* \"#utility.yul\":1463:1526   */\n      swap3\n      pop\n        /* \"#utility.yul\":1419:1536   */\n      pop\n        /* \"#utility.yul\":1575:1577   */\n      0x20\n        /* \"#utility.yul\":1601:1654   */\n      tag_162\n        /* \"#utility.yul\":1646:1653   */\n      dup6\n        /* \"#utility.yul\":1637:1643   */\n      dup3\n        /* \"#utility.yul\":1626:1635   */\n      dup7\n        /* \"#utility.yul\":1622:1644   */\n      add\n        /* \"#utility.yul\":1601:1654   */\n      tag_88\n      jump\t// in\n    tag_162:\n        /* \"#utility.yul\":1591:1654   */\n      swap2\n      pop\n        /* \"#utility.yul\":1546:1664   */\n      pop\n        /* \"#utility.yul\":1197:1671   */\n      swap3\n      pop\n      swap3\n      swap1\n      pop\n      jump\t// out\n        /* \"#utility.yul\":1677:1795   */\n    tag_89:\n        /* \"#utility.yul\":1764:1788   */\n      tag_164\n        /* \"#utility.yul\":1782:1787   */\n      dup2\n        /* \"#utility.yul\":1764:1788   */\n      tag_83\n      jump\t// in\n    tag_164:\n        /* \"#utility.yul\":1759:1762   */\n      dup3\n        /* \"#utility.yul\":1752:1789   */\n      mstore\n        /* \"#utility.yul\":1677:1795   */\n      pop\n      pop\n      jump\t// out\n        /* \"#utility.yul\":1801:1900   */\n    tag_90:\n        /* \"#utility.yul\":1853:1859   */\n      0x00\n        /* \"#utility.yul\":1887:1892   */\n      dup2\n        /* \"#utility.yul\":1881:1893   */\n      mload\n        /* \"#utility.yul\":1871:1893   */\n      swap1\n      pop\n        /* \"#utility.yul\":1801:1900   */\n      swap2\n      swap1\n      pop\n      jump\t// out\n        /* \"#utility.yul\":1906:2075   */\n    tag_91:\n        /* \"#utility.yul\":1990:2001   */\n      0x00\n        /* \"#utility.yul\":2024:2030   */\n      dup3\n        /* \"#utility.yul\":2019:2022   */\n      dup3\n        /* \"#utility.yul\":2012:2031   */\n      mstore\n        /* \"#utility.yul\":2064:2068   */\n      0x20\n        /* \"#utility.yul\":2059:2062   */\n      dup3\n        /* \"#utility.yul\":2055:2069   */\n      add\n        /* \"#utility.yul\":2040:2069   */\n      swap1\n      pop\n        /* \"#utility.yul\":1906:2075   */\n      swap3\n      swap2\n      pop\n      pop\n      jump\t// out\n        /* \"#utility.yul\":2081:2220   */\n    tag_92:\n        /* \"#utility.yul\":2170:2176   */\n      dup3\n        /* \"#utility.yul\":2165:2168   */\n      dup2\n        /* \"#utility.yul\":2160:2163   */\n      dup4\n        /* \"#utility.yul\":2154:2177   */\n      mcopy\n        /* \"#utility.yul\":2211:2212   */\n      0x00\n        /* \"#utility.yul\":2202:2208   */\n      dup4\n        /* \"#utility.yul\":2197:2200   */\n      dup4\n        /* \"#utility.yul\":2193:2209   */\n      add\n        /* \"#utility.yul\":2186:2213   */\n      mstore\n        /* \"#utility.yul\":2081:2220   */\n      pop\n      pop\n      pop\n      jump\t// out\n        /* \"#utility.yul\":2226:2328   */\n    tag_93:\n        /* \"#utility.yul\":2267:2273   */\n      0x00\n        /* \"#utility.yul\":2318:2320   */\n      0x1f\n        /* \"#utility.yul\":2314:2321   */\n      not\n        /* \"#utility.yul\":2309:2311   */\n      0x1f\n        /* \"#utility.yul\":2302:2307   */\n      dup4\n        /* \"#utility.yul\":2298:2312   */\n      add\n        /* \"#utility.yul\":2294:2322   */\n      and\n        /* \"#utility.yul\":2284:2322   */\n      swap1\n      pop\n        /* \"#utility.yul\":2226:2328   */\n      swap2\n      swap1\n      pop\n      jump\t// out\n        /* \"#utility.yul\":2334:2711   */\n    tag_94:\n        /* \"#utility.yul\":2422:2425   */\n      0x00\n        /* \"#utility.yul\":2450:2489   */\n      tag_170\n        /* \"#utility.yul\":2483:2488   */\n      dup3\n        /* \"#utility.yul\":2450:2489   */\n      tag_90\n      jump\t// in\n    tag_170:\n        /* \"#utility.yul\":2505:2576   */\n      tag_171\n        /* \"#utility.yul\":2569:2575   */\n      dup2\n        /* \"#utility.yul\":2564:2567   */\n      dup6\n        /* \"#utility.yul\":2505:2576   */\n      tag_91\n      jump\t// in\n    tag_171:\n        /* \"#utility.yul\":2498:2576   */\n      swap4\n      pop\n        /* \"#utility.yul\":2585:2650   */\n      tag_172\n        /* \"#utility.yul\":2643:2649   */\n      dup2\n        /* \"#utility.yul\":2638:2641   */\n      dup6\n        /* \"#utility.yul\":2631:2635   */\n      0x20\n        /* \"#utility.yul\":2624:2629   */\n      dup7\n        /* \"#utility.yul\":2620:2636   */\n      add\n        /* \"#utility.yul\":2585:2650   */\n      tag_92\n      jump\t// in\n    tag_172:\n        /* \"#utility.yul\":2675:2704   */\n      tag_173\n        /* \"#utility.yul\":2697:2703   */\n      dup2\n        /* \"#utility.yul\":2675:2704   */\n      tag_93\n      jump\t// in\n    tag_173:\n        /* \"#utility.yul\":2670:2673   */\n      dup5\n        /* \"#utility.yul\":2666:2705   */\n      add\n        /* \"#utility.yul\":2659:2705   */\n      swap2\n      pop\n        /* \"#utility.yul\":2426:2711   */\n      pop\n        /* \"#utility.yul\":2334:2711   */\n      swap3\n      swap2\n      pop\n      pop\n      jump\t// out\n        /* \"#utility.yul\":2717:2835   */\n    tag_95:\n        /* \"#utility.yul\":2804:2828   */\n      tag_175\n        /* \"#utility.yul\":2822:2827   */\n      dup2\n        /* \"#utility.yul\":2804:2828   */\n      tag_86\n      jump\t// in\n    tag_175:\n        /* \"#utility.yul\":2799:2802   */\n      dup3\n        /* \"#utility.yul\":2792:2829   */\n      mstore\n        /* \"#utility.yul\":2717:2835   */\n      pop\n      pop\n      jump\t// out\n        /* \"#utility.yul\":2841:3485   */\n    tag_14:\n        /* \"#utility.yul\":3038:3042   */\n      0x00\n        /* \"#utility.yul\":3076:3079   */\n      0x80\n        /* \"#utility.yul\":3065:3074   */\n      dup3\n        /* \"#utility.yul\":3061:3080   */\n      add\n        /* \"#utility.yul\":3053:3080   */\n      swap1\n      pop\n        /* \"#utility.yul\":3090:3161   */\n      tag_177\n        /* \"#utility.yul\":3158:3159   */\n      0x00\n        /* \"#utility.yul\":3147:3156   */\n      dup4\n        /* \"#utility.yul\":3143:3160   */\n      add\n        /* \"#utility.yul\":3134:3140   */\n      dup8\n        /* \"#utility.yul\":3090:3161   */\n      tag_89\n      jump\t// in\n    tag_177:\n        /* \"#utility.yul\":3208:3217   */\n      dup2\n        /* \"#utility.yul\":3202:3206   */\n      dup2\n        /* \"#utility.yul\":3198:3218   */\n      sub\n        /* \"#utility.yul\":3193:3195   */\n      0x20\n        /* \"#utility.yul\":3182:3191   */\n      dup4\n        /* \"#utility.yul\":3178:3196   */\n      add\n        /* \"#utility.yul\":3171:3219   */\n      mstore\n        /* \"#utility.yul\":3236:3314   */\n      tag_178\n        /* \"#utility.yul\":3309:3313   */\n      dup2\n        /* \"#utility.yul\":3300:3306   */\n      dup7\n        /* \"#utility.yul\":3236:3314   */\n      tag_94\n      jump\t// in\n    tag_178:\n        /* \"#utility.yul\":3228:3314   */\n      swap1\n      pop\n        /* \"#utility.yul\":3324:3396   */\n      tag_179\n        /* \"#utility.yul\":3392:3394   */\n      0x40\n        /* \"#utility.yul\":3381:3390   */\n      dup4\n        /* \"#utility.yul\":3377:3395   */\n      add\n        /* \"#utility.yul\":3368:3374   */\n      dup6\n        /* \"#utility.yul\":3324:3396   */\n      tag_95\n      jump\t// in\n    tag_179:\n        /* \"#utility.yul\":3406:3478   */\n      tag_180\n        /* \"#utility.yul\":3474:3476   */\n      0x60\n        /* \"#utility.yul\":3463:3472   */\n      dup4\n        /* \"#utility.yul\":3459:3477   */\n      add\n        /* \"#utility.yul\":3450:3456   */\n      dup5\n        /* \"#utility.yul\":3406:3478   */\n      tag_95\n      jump\t// in\n    tag_180:\n        /* \"#utility.yul\":2841:3485   */\n      swap6\n      swap5\n      pop\n      pop\n      pop\n      pop\n      pop\n      jump\t// out\n        /* \"#utility.yul\":3491:3599   */\n    tag_96:\n        /* \"#utility.yul\":3568:3592   */\n      tag_182\n        /* \"#utility.yul\":3586:3591   */\n      dup2\n        /* \"#utility.yul\":3568:3592   */\n      tag_83\n      jump\t// in\n    tag_182:\n        /* \"#utility.yul\":3563:3566   */\n      dup3\n        /* \"#utility.yul\":3556:3593   */\n      mstore\n        /* \"#utility.yul\":3491:3599   */\n      pop\n      pop\n      jump\t// out\n        /* \"#utility.yul\":3605:3764   */\n    tag_97:\n        /* \"#utility.yul\":3679:3690   */\n      0x00\n        /* \"#utility.yul\":3713:3719   */\n      dup3\n        /* \"#utility.yul\":3708:3711   */\n      dup3\n        /* \"#utility.yul\":3701:3720   */\n      mstore\n        /* \"#utility.yul\":3753:3757   */\n      0x20\n        /* \"#utility.yul\":3748:3751   */\n      dup3\n        /* \"#utility.yul\":3744:3758   */\n      add\n        /* \"#utility.yul\":3729:3758   */\n      swap1\n      pop\n        /* \"#utility.yul\":3605:3764   */\n      swap3\n      swap2\n      pop\n      pop\n      jump\t// out\n        /* \"#utility.yul\":3770:4127   */\n    tag_98:\n        /* \"#utility.yul\":3848:3851   */\n      0x00\n        /* \"#utility.yul\":3876:3915   */\n      tag_185\n        /* \"#utility.yul\":3909:3914   */\n      dup3\n        /* \"#utility.yul\":3876:3915   */\n      tag_90\n      jump\t// in\n    tag_185:\n        /* \"#utility.yul\":3931:3992   */\n      tag_186\n        /* \"#utility.yul\":3985:3991   */\n      dup2\n        /* \"#utility.yul\":3980:3983   */\n      dup6\n        /* \"#utility.yul\":3931:3992   */\n      tag_97\n      jump\t// in\n    tag_186:\n        /* \"#utility.yul\":3924:3992   */\n      swap4\n      pop\n        /* \"#utility.yul\":4001:4066   */\n      tag_187\n        /* \"#utility.yul\":4059:4065   */\n      dup2\n        /* \"#utility.yul\":4054:4057   */\n      dup6\n        /* \"#utility.yul\":4047:4051   */\n      0x20\n        /* \"#utility.yul\":4040:4045   */\n      dup7\n        /* \"#utility.yul\":4036:4052   */\n      add\n        /* \"#utility.yul\":4001:4066   */\n      tag_92\n      jump\t// in\n    tag_187:\n        /* \"#utility.yul\":4091:4120   */\n      tag_188\n        /* \"#utility.yul\":4113:4119   */\n      dup2\n        /* \"#utility.yul\":4091:4120   */\n      tag_93\n      jump\t// in\n    tag_188:\n        /* \"#utility.yul\":4086:4089   */\n      dup5\n        /* \"#utility.yul\":4082:4121   */\n      add\n        /* \"#utility.yul\":4075:4121   */\n      swap2\n      pop\n        /* \"#utility.yul\":3852:4127   */\n      pop\n        /* \"#utility.yul\":3770:4127   */\n      swap3\n      swap2\n      pop\n      pop\n      jump\t// out\n        /* \"#utility.yul\":4133:4241   */\n    tag_99:\n        /* \"#utility.yul\":4210:4234   */\n      tag_190\n        /* \"#utility.yul\":4228:4233   */\n      dup2\n        /* \"#utility.yul\":4210:4234   */\n      tag_86\n      jump\t// in\n    tag_190:\n        /* \"#utility.yul\":4205:4208   */\n      dup3\n        /* \"#utility.yul\":4198:4235   */\n      mstore\n        /* \"#utility.yul\":4133:4241   */\n      pop\n      pop\n      jump\t// out\n        /* \"#utility.yul\":4299:5256   */\n    tag_100:\n        /* \"#utility.yul\":4410:4413   */\n      0x00\n        /* \"#utility.yul\":4446:4450   */\n      0x80\n        /* \"#utility.yul\":4441:4444   */\n      dup4\n        /* \"#utility.yul\":4437:4451   */\n      add\n        /* \"#utility.yul\":4535:4539   */\n      0x00\n        /* \"#utility.yul\":4528:4533   */\n      dup4\n        /* \"#utility.yul\":4524:4540   */\n      add\n        /* \"#utility.yul\":4518:4541   */\n      mload\n        /* \"#utility.yul\":4554:4617   */\n      tag_192\n        /* \"#utility.yul\":4611:4615   */\n      0x00\n        /* \"#utility.yul\":4606:4609   */\n      dup7\n        /* \"#utility.yul\":4602:4616   */\n      add\n        /* \"#utility.yul\":4588:4600   */\n      dup3\n        /* \"#utility.yul\":4554:4617   */\n      tag_96\n      jump\t// in\n    tag_192:\n        /* \"#utility.yul\":4461:4627   */\n      pop\n        /* \"#utility.yul\":4712:4716   */\n      0x20\n        /* \"#utility.yul\":4705:4710   */\n      dup4\n        /* \"#utility.yul\":4701:4717   */\n      add\n        /* \"#utility.yul\":4695:4718   */\n      mload\n        /* \"#utility.yul\":4765:4768   */\n      dup5\n        /* \"#utility.yul\":4759:4763   */\n      dup3\n        /* \"#utility.yul\":4755:4769   */\n      sub\n        /* \"#utility.yul\":4748:4752   */\n      0x20\n        /* \"#utility.yul\":4743:4746   */\n      dup7\n        /* \"#utility.yul\":4739:4753   */\n      add\n        /* \"#utility.yul\":4732:4770   */\n      mstore\n        /* \"#utility.yul\":4791:4864   */\n      tag_193\n        /* \"#utility.yul\":4859:4863   */\n      dup3\n        /* \"#utility.yul\":4845:4857   */\n      dup3\n        /* \"#utility.yul\":4791:4864   */\n      tag_98\n      jump\t// in\n    tag_193:\n        /* \"#utility.yul\":4783:4864   */\n      swap2\n      pop\n        /* \"#utility.yul\":4637:4875   */\n      pop\n        /* \"#utility.yul\":4962:4966   */\n      0x40\n        /* \"#utility.yul\":4955:4960   */\n      dup4\n        /* \"#utility.yul\":4951:4967   */\n      add\n        /* \"#utility.yul\":4945:4968   */\n      mload\n        /* \"#utility.yul\":4981:5044   */\n      tag_194\n        /* \"#utility.yul\":5038:5042   */\n      0x40\n        /* \"#utility.yul\":5033:5036   */\n      dup7\n        /* \"#utility.yul\":5029:5043   */\n      add\n        /* \"#utility.yul\":5015:5027   */\n      dup3\n        /* \"#utility.yul\":4981:5044   */\n      tag_99\n      jump\t// in\n    tag_194:\n        /* \"#utility.yul\":4885:5054   */\n      pop\n        /* \"#utility.yul\":5137:5141   */\n      0x60\n        /* \"#utility.yul\":5130:5135   */\n      dup4\n        /* \"#utility.yul\":5126:5142   */\n      add\n        /* \"#utility.yul\":5120:5143   */\n      mload\n        /* \"#utility.yul\":5156:5219   */\n      tag_195\n        /* \"#utility.yul\":5213:5217   */\n      0x60\n        /* \"#utility.yul\":5208:5211   */\n      dup7\n        /* \"#utility.yul\":5204:5218   */\n      add\n        /* \"#utility.yul\":5190:5202   */\n      dup3\n        /* \"#utility.yul\":5156:5219   */\n      tag_99\n      jump\t// in\n    tag_195:\n        /* \"#utility.yul\":5064:5229   */\n      pop\n        /* \"#utility.yul\":5246:5250   */\n      dup1\n        /* \"#utility.yul\":5239:5250   */\n      swap2\n      pop\n        /* \"#utility.yul\":4415:5256   */\n      pop\n        /* \"#utility.yul\":4299:5256   */\n      swap3\n      swap2\n      pop\n      pop\n      jump\t// out\n        /* \"#utility.yul\":5262:5619   */\n    tag_19:\n        /* \"#utility.yul\":5397:5401   */\n      0x00\n        /* \"#utility.yul\":5435:5437   */\n      0x20\n        /* \"#utility.yul\":5424:5433   */\n      dup3\n        /* \"#utility.yul\":5420:5438   */\n      add\n        /* \"#utility.yul\":5412:5438   */\n      swap1\n      pop\n        /* \"#utility.yul\":5484:5493   */\n      dup2\n        /* \"#utility.yul\":5478:5482   */\n      dup2\n        /* \"#utility.yul\":5474:5494   */\n      sub\n        /* \"#utility.yul\":5470:5471   */\n      0x00\n        /* \"#utility.yul\":5459:5468   */\n      dup4\n        /* \"#utility.yul\":5455:5472   */\n      add\n        /* \"#utility.yul\":5448:5495   */\n      mstore\n        /* \"#utility.yul\":5512:5612   */\n      tag_197\n        /* \"#utility.yul\":5607:5611   */\n      dup2\n        /* \"#utility.yul\":5598:5604   */\n      dup5\n        /* \"#utility.yul\":5512:5612   */\n      tag_100\n      jump\t// in\n    tag_197:\n        /* \"#utility.yul\":5504:5612   */\n      swap1\n      pop\n        /* \"#utility.yul\":5262:5619   */\n      swap3\n      swap2\n      pop\n      pop\n      jump\t// out\n        /* \"#utility.yul\":5625:5954   */\n    tag_22:\n        /* \"#utility.yul\":5684:5690   */\n      0x00\n        /* \"#utility.yul\":5733:5735   */\n      0x20\n        /* \"#utility.yul\":5721:5730   */\n      dup3\n        /* \"#utility.yul\":5712:5719   */\n      dup5\n        /* \"#utility.yul\":5708:5731   */\n      sub\n        /* \"#utility.yul\":5704:5736   */\n      slt\n        /* \"#utility.yul\":5701:5820   */\n      iszero\n      tag_199\n      jumpi\n        /* \"#utility.yul\":5739:5818   */\n      tag_200\n      tag_80\n      jump\t// in\n    tag_200:\n        /* \"#utility.yul\":5701:5820   */\n    tag_199:\n        /* \"#utility.yul\":5859:5860   */\n      0x00\n        /* \"#utility.yul\":5884:5937   */\n      tag_201\n        /* \"#utility.yul\":5929:5936   */\n      dup5\n        /* \"#utility.yul\":5920:5926   */\n      dup3\n        /* \"#utility.yul\":5909:5918   */\n      dup6\n        /* \"#utility.yul\":5905:5927   */\n      add\n        /* \"#utility.yul\":5884:5937   */\n      tag_85\n      jump\t// in\n    tag_201:\n        /* \"#utility.yul\":5874:5937   */\n      swap2\n      pop\n        /* \"#utility.yul\":5830:5947   */\n      pop\n        /* \"#utility.yul\":5625:5954   */\n      swap3\n      swap2\n      pop\n      pop\n      jump\t// out\n        /* \"#utility.yul\":5960:6095   */\n    tag_101:\n        /* \"#utility.yul\":6048:6054   */\n      0x00\n        /* \"#utility.yul\":6082:6087   */\n      dup2\n        /* \"#utility.yul\":6076:6088   */\n      mload\n        /* \"#utility.yul\":6066:6088   */\n      swap1\n      pop\n        /* \"#utility.yul\":5960:6095   */\n      swap2\n      swap1\n      pop\n      jump\t// out\n        /* \"#utility.yul\":6101:6306   */\n    tag_102:\n        /* \"#utility.yul\":6221:6232   */\n      0x00\n        /* \"#utility.yul\":6255:6261   */\n      dup3\n        /* \"#utility.yul\":6250:6253   */\n      dup3\n        /* \"#utility.yul\":6243:6262   */\n      mstore\n        /* \"#utility.yul\":6295:6299   */\n      0x20\n        /* \"#utility.yul\":6290:6293   */\n      dup3\n        /* \"#utility.yul\":6286:6300   */\n      add\n        /* \"#utility.yul\":6271:6300   */\n      swap1\n      pop\n        /* \"#utility.yul\":6101:6306   */\n      swap3\n      swap2\n      pop\n      pop\n      jump\t// out\n        /* \"#utility.yul\":6312:6465   */\n    tag_103:\n        /* \"#utility.yul\":6400:6404   */\n      0x00\n        /* \"#utility.yul\":6423:6426   */\n      dup2\n        /* \"#utility.yul\":6415:6426   */\n      swap1\n      pop\n        /* \"#utility.yul\":6453:6457   */\n      0x20\n        /* \"#utility.yul\":6448:6451   */\n      dup3\n        /* \"#utility.yul\":6444:6458   */\n      add\n        /* \"#utility.yul\":6436:6458   */\n      swap1\n      pop\n        /* \"#utility.yul\":6312:6465   */\n      swap2\n      swap1\n      pop\n      jump\t// out\n        /* \"#utility.yul\":6523:7470   */\n    tag_104:\n        /* \"#utility.yul\":6624:6627   */\n      0x00\n        /* \"#utility.yul\":6660:6664   */\n      0x80\n        /* \"#utility.yul\":6655:6658   */\n      dup4\n        /* \"#utility.yul\":6651:6665   */\n      add\n        /* \"#utility.yul\":6749:6753   */\n      0x00\n        /* \"#utility.yul\":6742:6747   */\n      dup4\n        /* \"#utility.yul\":6738:6754   */\n      add\n        /* \"#utility.yul\":6732:6755   */\n      mload\n        /* \"#utility.yul\":6768:6831   */\n      tag_206\n        /* \"#utility.yul\":6825:6829   */\n      0x00\n        /* \"#utility.yul\":6820:6823   */\n      dup7\n        /* \"#utility.yul\":6816:6830   */\n      add\n        /* \"#utility.yul\":6802:6814   */\n      dup3\n        /* \"#utility.yul\":6768:6831   */\n      tag_96\n      jump\t// in\n    tag_206:\n        /* \"#utility.yul\":6675:6841   */\n      pop\n        /* \"#utility.yul\":6926:6930   */\n      0x20\n        /* \"#utility.yul\":6919:6924   */\n      dup4\n        /* \"#utility.yul\":6915:6931   */\n      add\n        /* \"#utility.yul\":6909:6932   */\n      mload\n        /* \"#utility.yul\":6979:6982   */\n      dup5\n        /* \"#utility.yul\":6973:6977   */\n      dup3\n        /* \"#utility.yul\":6969:6983   */\n      sub\n        /* \"#utility.yul\":6962:6966   */\n      0x20\n        /* \"#utility.yul\":6957:6960   */\n      dup7\n        /* \"#utility.yul\":6953:6967   */\n      add\n        /* \"#utility.yul\":6946:6984   */\n      mstore\n        /* \"#utility.yul\":7005:7078   */\n      tag_207\n        /* \"#utility.yul\":7073:7077   */\n      dup3\n        /* \"#utility.yul\":7059:7071   */\n      dup3\n        /* \"#utility.yul\":7005:7078   */\n      tag_98\n      jump\t// in\n    tag_207:\n        /* \"#utility.yul\":6997:7078   */\n      swap2\n      pop\n        /* \"#utility.yul\":6851:7089   */\n      pop\n        /* \"#utility.yul\":7176:7180   */\n      0x40\n        /* \"#utility.yul\":7169:7174   */\n      dup4\n        /* \"#utility.yul\":7165:7181   */\n      add\n        /* \"#utility.yul\":7159:7182   */\n      mload\n        /* \"#utility.yul\":7195:7258   */\n      tag_208\n        /* \"#utility.yul\":7252:7256   */\n      0x40\n        /* \"#utility.yul\":7247:7250   */\n      dup7\n        /* \"#utility.yul\":7243:7257   */\n      add\n        /* \"#utility.yul\":7229:7241   */\n      dup3\n        /* \"#utility.yul\":7195:7258   */\n      tag_99\n      jump\t// in\n    tag_208:\n        /* \"#utility.yul\":7099:7268   */\n      pop\n        /* \"#utility.yul\":7351:7355   */\n      0x60\n        /* \"#utility.yul\":7344:7349   */\n      dup4\n        /* \"#utility.yul\":7340:7356   */\n      add\n        /* \"#utility.yul\":7334:7357   */\n      mload\n        /* \"#utility.yul\":7370:7433   */\n      tag_209\n        /* \"#utility.yul\":7427:7431   */\n      0x60\n        /* \"#utility.yul\":7422:7425   */\n      dup7\n        /* \"#utility.yul\":7418:7432   */\n      add\n        /* \"#utility.yul\":7404:7416   */\n      dup3\n        /* \"#utility.yul\":7370:7433   */\n      tag_99\n      jump\t// in\n    tag_209:\n        /* \"#utility.yul\":7278:7443   */\n      pop\n        /* \"#utility.yul\":7460:7464   */\n      dup1\n        /* \"#utility.yul\":7453:7464   */\n      swap2\n      pop\n        /* \"#utility.yul\":6629:7470   */\n      pop\n        /* \"#utility.yul\":6523:7470   */\n      swap3\n      swap2\n      pop\n      pop\n      jump\t// out\n        /* \"#utility.yul\":7476:7716   */\n    tag_105:\n        /* \"#utility.yul\":7587:7597   */\n      0x00\n        /* \"#utility.yul\":7622:7710   */\n      tag_211\n        /* \"#utility.yul\":7706:7709   */\n      dup4\n        /* \"#utility.yul\":7698:7704   */\n      dup4\n        /* \"#utility.yul\":7622:7710   */\n      tag_104\n      jump\t// in\n    tag_211:\n        /* \"#utility.yul\":7608:7710   */\n      swap1\n      pop\n        /* \"#utility.yul\":7476:7716   */\n      swap3\n      swap2\n      pop\n      pop\n      jump\t// out\n        /* \"#utility.yul\":7722:7856   */\n    tag_106:\n        /* \"#utility.yul\":7813:7817   */\n      0x00\n        /* \"#utility.yul\":7845:7849   */\n      0x20\n        /* \"#utility.yul\":7840:7843   */\n      dup3\n        /* \"#utility.yul\":7836:7850   */\n      add\n        /* \"#utility.yul\":7828:7850   */\n      swap1\n      pop\n        /* \"#utility.yul\":7722:7856   */\n      swap2\n      swap1\n      pop\n      jump\t// out\n        /* \"#utility.yul\":7918:8997   */\n    tag_107:\n        /* \"#utility.yul\":8079:8082   */\n      0x00\n        /* \"#utility.yul\":8108:8183   */\n      tag_214\n        /* \"#utility.yul\":8177:8182   */\n      dup3\n        /* \"#utility.yul\":8108:8183   */\n      tag_101\n      jump\t// in\n    tag_214:\n        /* \"#utility.yul\":8199:8306   */\n      tag_215\n        /* \"#utility.yul\":8299:8305   */\n      dup2\n        /* \"#utility.yul\":8294:8297   */\n      dup6\n        /* \"#utility.yul\":8199:8306   */\n      tag_102\n      jump\t// in\n    tag_215:\n        /* \"#utility.yul\":8192:8306   */\n      swap4\n      pop\n        /* \"#utility.yul\":8332:8335   */\n      dup4\n        /* \"#utility.yul\":8377:8381   */\n      0x20\n        /* \"#utility.yul\":8369:8375   */\n      dup3\n        /* \"#utility.yul\":8365:8382   */\n      mul\n        /* \"#utility.yul\":8360:8363   */\n      dup6\n        /* \"#utility.yul\":8356:8383   */\n      add\n        /* \"#utility.yul\":8407:8484   */\n      tag_216\n        /* \"#utility.yul\":8478:8483   */\n      dup6\n        /* \"#utility.yul\":8407:8484   */\n      tag_103\n      jump\t// in\n    tag_216:\n        /* \"#utility.yul\":8507:8514   */\n      dup1\n        /* \"#utility.yul\":8538:8539   */\n      0x00\n        /* \"#utility.yul\":8523:8952   */\n    tag_217:\n        /* \"#utility.yul\":8548:8554   */\n      dup6\n        /* \"#utility.yul\":8545:8546   */\n      dup2\n        /* \"#utility.yul\":8542:8555   */\n      lt\n        /* \"#utility.yul\":8523:8952   */\n      iszero\n      tag_219\n      jumpi\n        /* \"#utility.yul\":8619:8628   */\n      dup5\n        /* \"#utility.yul\":8613:8617   */\n      dup5\n        /* \"#utility.yul\":8609:8629   */\n      sub\n        /* \"#utility.yul\":8604:8607   */\n      dup10\n        /* \"#utility.yul\":8597:8630   */\n      mstore\n        /* \"#utility.yul\":8670:8676   */\n      dup2\n        /* \"#utility.yul\":8664:8677   */\n      mload\n        /* \"#utility.yul\":8698:8804   */\n      tag_220\n        /* \"#utility.yul\":8799:8803   */\n      dup6\n        /* \"#utility.yul\":8784:8797   */\n      dup3\n        /* \"#utility.yul\":8698:8804   */\n      tag_105\n      jump\t// in\n    tag_220:\n        /* \"#utility.yul\":8690:8804   */\n      swap5\n      pop\n        /* \"#utility.yul\":8827:8908   */\n      tag_221\n        /* \"#utility.yul\":8901:8907   */\n      dup4\n        /* \"#utility.yul\":8827:8908   */\n      tag_106\n      jump\t// in\n    tag_221:\n        /* \"#utility.yul\":8817:8908   */\n      swap3\n      pop\n        /* \"#utility.yul\":8937:8941   */\n      0x20\n        /* \"#utility.yul\":8932:8935   */\n      dup11\n        /* \"#utility.yul\":8928:8942   */\n      add\n        /* \"#utility.yul\":8921:8942   */\n      swap10\n      pop\n        /* \"#utility.yul\":8583:8952   */\n      pop\n        /* \"#utility.yul\":8570:8571   */\n      0x01\n        /* \"#utility.yul\":8567:8568   */\n      dup2\n        /* \"#utility.yul\":8563:8572   */\n      add\n        /* \"#utility.yul\":8558:8572   */\n      swap1\n      pop\n        /* \"#utility.yul\":8523:8952   */\n      jump(tag_217)\n    tag_219:\n        /* \"#utility.yul\":8527:8541   */\n      pop\n        /* \"#utility.yul\":8968:8972   */\n      dup3\n        /* \"#utility.yul\":8961:8972   */\n      swap8\n      pop\n        /* \"#utility.yul\":8988:8991   */\n      dup8\n        /* \"#utility.yul\":8981:8991   */\n      swap6\n      pop\n        /* \"#utility.yul\":8084:8997   */\n      pop\n      pop\n      pop\n      pop\n      pop\n        /* \"#utility.yul\":7918:8997   */\n      swap3\n      swap2\n      pop\n      pop\n      jump\t// out\n        /* \"#utility.yul\":9003:9460   */\n    tag_25:\n        /* \"#utility.yul\":9188:9192   */\n      0x00\n        /* \"#utility.yul\":9226:9228   */\n      0x20\n        /* \"#utility.yul\":9215:9224   */\n      dup3\n        /* \"#utility.yul\":9211:9229   */\n      add\n        /* \"#utility.yul\":9203:9229   */\n      swap1\n      pop\n        /* \"#utility.yul\":9275:9284   */\n      dup2\n        /* \"#utility.yul\":9269:9273   */\n      dup2\n        /* \"#utility.yul\":9265:9285   */\n      sub\n        /* \"#utility.yul\":9261:9262   */\n      0x00\n        /* \"#utility.yul\":9250:9259   */\n      dup4\n        /* \"#utility.yul\":9246:9263   */\n      add\n        /* \"#utility.yul\":9239:9286   */\n      mstore\n        /* \"#utility.yul\":9303:9453   */\n      tag_223\n        /* \"#utility.yul\":9448:9452   */\n      dup2\n        /* \"#utility.yul\":9439:9445   */\n      dup5\n        /* \"#utility.yul\":9303:9453   */\n      tag_107\n      jump\t// in\n    tag_223:\n        /* \"#utility.yul\":9295:9453   */\n      swap1\n      pop\n        /* \"#utility.yul\":9003:9460   */\n      swap3\n      swap2\n      pop\n      pop\n      jump\t// out\n        /* \"#utility.yul\":9466:9555   */\n    tag_108:\n        /* \"#utility.yul\":9502:9509   */\n      0x00\n        /* \"#utility.yul\":9542:9548   */\n      0xffff\n        /* \"#utility.yul\":9535:9540   */\n      dup3\n        /* \"#utility.yul\":9531:9549   */\n      and\n        /* \"#utility.yul\":9520:9549   */\n      swap1\n      pop\n        /* \"#utility.yul\":9466:9555   */\n      swap2\n      swap1\n      pop\n      jump\t// out\n        /* \"#utility.yul\":9561:9681   */\n    tag_109:\n        /* \"#utility.yul\":9633:9656   */\n      tag_226\n        /* \"#utility.yul\":9650:9655   */\n      dup2\n        /* \"#utility.yul\":9633:9656   */\n      tag_108\n      jump\t// in\n    tag_226:\n        /* \"#utility.yul\":9626:9631   */\n      dup2\n        /* \"#utility.yul\":9623:9657   */\n      eq\n        /* \"#utility.yul\":9613:9675   */\n      tag_227\n      jumpi\n        /* \"#utility.yul\":9671:9672   */\n      0x00\n        /* \"#utility.yul\":9668:9669   */\n      0x00\n        /* \"#utility.yul\":9661:9673   */\n      revert\n        /* \"#utility.yul\":9613:9675   */\n    tag_227:\n        /* \"#utility.yul\":9561:9681   */\n      pop\n      jump\t// out\n        /* \"#utility.yul\":9687:9824   */\n    tag_110:\n        /* \"#utility.yul\":9732:9737   */\n      0x00\n        /* \"#utility.yul\":9770:9776   */\n      dup2\n        /* \"#utility.yul\":9757:9777   */\n      calldataload\n        /* \"#utility.yul\":9748:9777   */\n      swap1\n      pop\n        /* \"#utility.yul\":9786:9818   */\n      tag_229\n        /* \"#utility.yul\":9812:9817   */\n      dup2\n        /* \"#utility.yul\":9786:9818   */\n      tag_109\n      jump\t// in\n    tag_229:\n        /* \"#utility.yul\":9687:9824   */\n      swap3\n      swap2\n      pop\n      pop\n      jump\t// out\n        /* \"#utility.yul\":9830:10157   */\n    tag_28:\n        /* \"#utility.yul\":9888:9894   */\n      0x00\n        /* \"#utility.yul\":9937:9939   */\n      0x20\n        /* \"#utility.yul\":9925:9934   */\n      dup3\n        /* \"#utility.yul\":9916:9923   */\n      dup5\n        /* \"#utility.yul\":9912:9935   */\n      sub\n        /* \"#utility.yul\":9908:9940   */\n      slt\n        /* \"#utility.yul\":9905:10024   */\n      iszero\n      tag_231\n      jumpi\n        /* \"#utility.yul\":9943:10022   */\n      tag_232\n      tag_80\n      jump\t// in\n    tag_232:\n        /* \"#utility.yul\":9905:10024   */\n    tag_231:\n        /* \"#utility.yul\":10063:10064   */\n      0x00\n        /* \"#utility.yul\":10088:10140   */\n      tag_233\n        /* \"#utility.yul\":10132:10139   */\n      dup5\n        /* \"#utility.yul\":10123:10129   */\n      dup3\n        /* \"#utility.yul\":10112:10121   */\n      dup6\n        /* \"#utility.yul\":10108:10130   */\n      add\n        /* \"#utility.yul\":10088:10140   */\n      tag_110\n      jump\t// in\n    tag_233:\n        /* \"#utility.yul\":10078:10140   */\n      swap2\n      pop\n        /* \"#utility.yul\":10034:10150   */\n      pop\n        /* \"#utility.yul\":9830:10157   */\n      swap3\n      swap2\n      pop\n      pop\n      jump\t// out\n        /* \"#utility.yul\":10163:10280   */\n    tag_111:\n        /* \"#utility.yul\":10272:10273   */\n      0x00\n        /* \"#utility.yul\":10269:10270   */\n      0x00\n        /* \"#utility.yul\":10262:10274   */\n      revert\n        /* \"#utility.yul\":10286:10403   */\n    tag_112:\n        /* \"#utility.yul\":10395:10396   */\n      0x00\n        /* \"#utility.yul\":10392:10393   */\n      0x00\n        /* \"#utility.yul\":10385:10397   */\n      revert\n        /* \"#utility.yul\":10409:10589   */\n    tag_113:\n        /* \"#utility.yul\":10457:10534   */\n      0x4e487b7100000000000000000000000000000000000000000000000000000000\n        /* \"#utility.yul\":10454:10455   */\n      0x00\n        /* \"#utility.yul\":10447:10535   */\n      mstore\n        /* \"#utility.yul\":10554:10558   */\n      0x41\n        /* \"#utility.yul\":10551:10552   */\n      0x04\n        /* \"#utility.yul\":10544:10559   */\n      mstore\n        /* \"#utility.yul\":10578:10582   */\n      0x24\n        /* \"#utility.yul\":10575:10576   */\n      0x00\n        /* \"#utility.yul\":10568:10583   */\n      revert\n        /* \"#utility.yul\":10595:10876   */\n    tag_114:\n        /* \"#utility.yul\":10678:10705   */\n      tag_238\n        /* \"#utility.yul\":10700:10704   */\n      dup3\n        /* \"#utility.yul\":10678:10705   */\n      tag_93\n      jump\t// in\n    tag_238:\n        /* \"#utility.yul\":10670:10676   */\n      dup2\n        /* \"#utility.yul\":10666:10706   */\n      add\n        /* \"#utility.yul\":10808:10814   */\n      dup2\n        /* \"#utility.yul\":10796:10806   */\n      dup2\n        /* \"#utility.yul\":10793:10815   */\n      lt\n        /* \"#utility.yul\":10772:10790   */\n      0xffffffffffffffff\n        /* \"#utility.yul\":10760:10770   */\n      dup3\n        /* \"#utility.yul\":10757:10791   */\n      gt\n        /* \"#utility.yul\":10754:10816   */\n      or\n        /* \"#utility.yul\":10751:10839   */\n      iszero\n      tag_239\n      jumpi\n        /* \"#utility.yul\":10819:10837   */\n      tag_240\n      tag_113\n      jump\t// in\n    tag_240:\n        /* \"#utility.yul\":10751:10839   */\n    tag_239:\n        /* \"#utility.yul\":10859:10869   */\n      dup1\n        /* \"#utility.yul\":10855:10857   */\n      0x40\n        /* \"#utility.yul\":10848:10870   */\n      mstore\n        /* \"#utility.yul\":10638:10876   */\n      pop\n        /* \"#utility.yul\":10595:10876   */\n      pop\n      pop\n      jump\t// out\n        /* \"#utility.yul\":10882:11011   */\n    tag_115:\n        /* \"#utility.yul\":10916:10922   */\n      0x00\n        /* \"#utility.yul\":10943:10963   */\n      tag_242\n      tag_79\n      jump\t// in\n    tag_242:\n        /* \"#utility.yul\":10933:10963   */\n      swap1\n      pop\n        /* \"#utility.yul\":10972:11005   */\n      tag_243\n        /* \"#utility.yul\":11000:11004   */\n      dup3\n        /* \"#utility.yul\":10992:10998   */\n      dup3\n        /* \"#utility.yul\":10972:11005   */\n      tag_114\n      jump\t// in\n    tag_243:\n        /* \"#utility.yul\":10882:11011   */\n      swap2\n      swap1\n      pop\n      jump\t// out\n        /* \"#utility.yul\":11017:11325   */\n    tag_116:\n        /* \"#utility.yul\":11079:11083   */\n      0x00\n        /* \"#utility.yul\":11169:11187   */\n      0xffffffffffffffff\n        /* \"#utility.yul\":11161:11167   */\n      dup3\n        /* \"#utility.yul\":11158:11188   */\n      gt\n        /* \"#utility.yul\":11155:11211   */\n      iszero\n      tag_245\n      jumpi\n        /* \"#utility.yul\":11191:11209   */\n      tag_246\n      tag_113\n      jump\t// in\n    tag_246:\n        /* \"#utility.yul\":11155:11211   */\n    tag_245:\n        /* \"#utility.yul\":11229:11258   */\n      tag_247\n        /* \"#utility.yul\":11251:11257   */\n      dup3\n        /* \"#utility.yul\":11229:11258   */\n      tag_93\n      jump\t// in\n    tag_247:\n        /* \"#utility.yul\":11221:11258   */\n      swap1\n      pop\n        /* \"#utility.yul\":11313:11317   */\n      0x20\n        /* \"#utility.yul\":11307:11311   */\n      dup2\n        /* \"#utility.yul\":11303:11318   */\n      add\n        /* \"#utility.yul\":11295:11318   */\n      swap1\n      pop\n        /* \"#utility.yul\":11017:11325   */\n      swap2\n      swap1\n      pop\n      jump\t// out\n        /* \"#utility.yul\":11331:11479   */\n    tag_117:\n        /* \"#utility.yul\":11429:11435   */\n      dup3\n        /* \"#utility.yul\":11424:11427   */\n      dup2\n        /* \"#utility.yul\":11419:11422   */\n      dup4\n        /* \"#utility.yul\":11406:11436   */\n      calldatacopy\n        /* \"#utility.yul\":11470:11471   */\n      0x00\n        /* \"#utility.yul\":11461:11467   */\n      dup4\n        /* \"#utility.yul\":11456:11459   */\n      dup4\n        /* \"#utility.yul\":11452:11468   */\n      add\n        /* \"#utility.yul\":11445:11472   */\n      mstore\n        /* \"#utility.yul\":11331:11479   */\n      pop\n      pop\n      pop\n      jump\t// out\n        /* \"#utility.yul\":11485:11910   */\n    tag_118:\n        /* \"#utility.yul\":11563:11568   */\n      0x00\n        /* \"#utility.yul\":11588:11654   */\n      tag_250\n        /* \"#utility.yul\":11604:11653   */\n      tag_251\n        /* \"#utility.yul\":11646:11652   */\n      dup5\n        /* \"#utility.yul\":11604:11653   */\n      tag_116\n      jump\t// in\n    tag_251:\n        /* \"#utility.yul\":11588:11654   */\n      tag_115\n      jump\t// in\n    tag_250:\n        /* \"#utility.yul\":11579:11654   */\n      swap1\n      pop\n        /* \"#utility.yul\":11677:11683   */\n      dup3\n        /* \"#utility.yul\":11670:11675   */\n      dup2\n        /* \"#utility.yul\":11663:11684   */\n      mstore\n        /* \"#utility.yul\":11715:11719   */\n      0x20\n        /* \"#utility.yul\":11708:11713   */\n      dup2\n        /* \"#utility.yul\":11704:11720   */\n      add\n        /* \"#utility.yul\":11753:11756   */\n      dup5\n        /* \"#utility.yul\":11744:11750   */\n      dup5\n        /* \"#utility.yul\":11739:11742   */\n      dup5\n        /* \"#utility.yul\":11735:11751   */\n      add\n        /* \"#utility.yul\":11732:11757   */\n      gt\n        /* \"#utility.yul\":11729:11841   */\n      iszero\n      tag_252\n      jumpi\n        /* \"#utility.yul\":11760:11839   */\n      tag_253\n      tag_112\n      jump\t// in\n    tag_253:\n        /* \"#utility.yul\":11729:11841   */\n    tag_252:\n        /* \"#utility.yul\":11850:11904   */\n      tag_254\n        /* \"#utility.yul\":11897:11903   */\n      dup5\n        /* \"#utility.yul\":11892:11895   */\n      dup3\n        /* \"#utility.yul\":11887:11890   */\n      dup6\n        /* \"#utility.yul\":11850:11904   */\n      tag_117\n      jump\t// in\n    tag_254:\n        /* \"#utility.yul\":11569:11910   */\n      pop\n        /* \"#utility.yul\":11485:11910   */\n      swap4\n      swap3\n      pop\n      pop\n      pop\n      jump\t// out\n        /* \"#utility.yul\":11930:12270   */\n    tag_119:\n        /* \"#utility.yul\":11986:11991   */\n      0x00\n        /* \"#utility.yul\":12035:12038   */\n      dup3\n        /* \"#utility.yul\":12028:12032   */\n      0x1f\n        /* \"#utility.yul\":12020:12026   */\n      dup4\n        /* \"#utility.yul\":12016:12033   */\n      add\n        /* \"#utility.yul\":12012:12039   */\n      slt\n        /* \"#utility.yul\":12002:12124   */\n      tag_256\n      jumpi\n        /* \"#utility.yul\":12043:12122   */\n      tag_257\n      tag_111\n      jump\t// in\n    tag_257:\n        /* \"#utility.yul\":12002:12124   */\n    tag_256:\n        /* \"#utility.yul\":12160:12166   */\n      dup2\n        /* \"#utility.yul\":12147:12167   */\n      calldataload\n        /* \"#utility.yul\":12185:12264   */\n      tag_258\n        /* \"#utility.yul\":12260:12263   */\n      dup5\n        /* \"#utility.yul\":12252:12258   */\n      dup3\n        /* \"#utility.yul\":12245:12249   */\n      0x20\n        /* \"#utility.yul\":12237:12243   */\n      dup7\n        /* \"#utility.yul\":12233:12250   */\n      add\n        /* \"#utility.yul\":12185:12264   */\n      tag_118\n      jump\t// in\n    tag_258:\n        /* \"#utility.yul\":12176:12264   */\n      swap2\n      pop\n        /* \"#utility.yul\":11992:12270   */\n      pop\n        /* \"#utility.yul\":11930:12270   */\n      swap3\n      swap2\n      pop\n      pop\n      jump\t// out\n        /* \"#utility.yul\":12276:12785   */\n    tag_32:\n        /* \"#utility.yul\":12345:12351   */\n      0x00\n        /* \"#utility.yul\":12394:12396   */\n      0x20\n        /* \"#utility.yul\":12382:12391   */\n      dup3\n        /* \"#utility.yul\":12373:12380   */\n      dup5\n        /* \"#utility.yul\":12369:12392   */\n      sub\n        /* \"#utility.yul\":12365:12397   */\n      slt\n        /* \"#utility.yul\":12362:12481   */\n      iszero\n      tag_260\n      jumpi\n        /* \"#utility.yul\":12400:12479   */\n      tag_261\n      tag_80\n      jump\t// in\n    tag_261:\n        /* \"#utility.yul\":12362:12481   */\n    tag_260:\n        /* \"#utility.yul\":12548:12549   */\n      0x00\n        /* \"#utility.yul\":12537:12546   */\n      dup3\n        /* \"#utility.yul\":12533:12550   */\n      add\n        /* \"#utility.yul\":12520:12551   */\n      calldataload\n        /* \"#utility.yul\":12578:12596   */\n      0xffffffffffffffff\n        /* \"#utility.yul\":12570:12576   */\n      dup2\n        /* \"#utility.yul\":12567:12597   */\n      gt\n        /* \"#utility.yul\":12564:12681   */\n      iszero\n      tag_262\n      jumpi\n        /* \"#utility.yul\":12600:12679   */\n      tag_263\n      tag_81\n      jump\t// in\n    tag_263:\n        /* \"#utility.yul\":12564:12681   */\n    tag_262:\n        /* \"#utility.yul\":12705:12768   */\n      tag_264\n        /* \"#utility.yul\":12760:12767   */\n      dup5\n        /* \"#utility.yul\":12751:12757   */\n      dup3\n        /* \"#utility.yul\":12740:12749   */\n      dup6\n        /* \"#utility.yul\":12736:12758   */\n      add\n        /* \"#utility.yul\":12705:12768   */\n      tag_119\n      jump\t// in\n    tag_264:\n        /* \"#utility.yul\":12695:12768   */\n      swap2\n      pop\n        /* \"#utility.yul\":12491:12778   */\n      pop\n        /* \"#utility.yul\":12276:12785   */\n      swap3\n      swap2\n      pop\n      pop\n      jump\t// out\n        /* \"#utility.yul\":12791:13013   */\n    tag_37:\n        /* \"#utility.yul\":12884:12888   */\n      0x00\n        /* \"#utility.yul\":12922:12924   */\n      0x20\n        /* \"#utility.yul\":12911:12920   */\n      dup3\n        /* \"#utility.yul\":12907:12925   */\n      add\n        /* \"#utility.yul\":12899:12925   */\n      swap1\n      pop\n        /* \"#utility.yul\":12935:13006   */\n      tag_266\n        /* \"#utility.yul\":13003:13004   */\n      0x00\n        /* \"#utility.yul\":12992:13001   */\n      dup4\n        /* \"#utility.yul\":12988:13005   */\n      add\n        /* \"#utility.yul\":12979:12985   */\n      dup5\n        /* \"#utility.yul\":12935:13006   */\n      tag_89\n      jump\t// in\n    tag_266:\n        /* \"#utility.yul\":12791:13013   */\n      swap3\n      swap2\n      pop\n      pop\n      jump\t// out\n        /* \"#utility.yul\":13019:13199   */\n    tag_120:\n        /* \"#utility.yul\":13067:13144   */\n      0x4e487b7100000000000000000000000000000000000000000000000000000000\n        /* \"#utility.yul\":13064:13065   */\n      0x00\n        /* \"#utility.yul\":13057:13145   */\n      mstore\n        /* \"#utility.yul\":13164:13168   */\n      0x22\n        /* \"#utility.yul\":13161:13162   */\n      0x04\n        /* \"#utility.yul\":13154:13169   */\n      mstore\n        /* \"#utility.yul\":13188:13192   */\n      0x24\n        /* \"#utility.yul\":13185:13186   */\n      0x00\n        /* \"#utility.yul\":13178:13193   */\n      revert\n        /* \"#utility.yul\":13205:13525   */\n    tag_41:\n        /* \"#utility.yul\":13249:13255   */\n      0x00\n        /* \"#utility.yul\":13286:13287   */\n      0x02\n        /* \"#utility.yul\":13280:13284   */\n      dup3\n        /* \"#utility.yul\":13276:13288   */\n      div\n        /* \"#utility.yul\":13266:13288   */\n      swap1\n      pop\n        /* \"#utility.yul\":13333:13334   */\n      0x01\n        /* \"#utility.yul\":13327:13331   */\n      dup3\n        /* \"#utility.yul\":13323:13335   */\n      and\n        /* \"#utility.yul\":13354:13372   */\n      dup1\n        /* \"#utility.yul\":13344:13425   */\n      tag_269\n      jumpi\n        /* \"#utility.yul\":13410:13414   */\n      0x7f\n        /* \"#utility.yul\":13402:13408   */\n      dup3\n        /* \"#utility.yul\":13398:13415   */\n      and\n        /* \"#utility.yul\":13388:13415   */\n      swap2\n      pop\n        /* \"#utility.yul\":13344:13425   */\n    tag_269:\n        /* \"#utility.yul\":13472:13474   */\n      0x20\n        /* \"#utility.yul\":13464:13470   */\n      dup3\n        /* \"#utility.yul\":13461:13475   */\n      lt\n        /* \"#utility.yul\":13441:13459   */\n      dup2\n        /* \"#utility.yul\":13438:13476   */\n      sub\n        /* \"#utility.yul\":13435:13519   */\n      tag_270\n      jumpi\n        /* \"#utility.yul\":13491:13509   */\n      tag_271\n      tag_120\n      jump\t// in\n    tag_271:\n        /* \"#utility.yul\":13435:13519   */\n    tag_270:\n        /* \"#utility.yul\":13256:13525   */\n      pop\n        /* \"#utility.yul\":13205:13525   */\n      swap2\n      swap1\n      pop\n      jump\t// out\n        /* \"#utility.yul\":13531:13711   */\n    tag_51:\n        /* \"#utility.yul\":13579:13656   */\n      0x4e487b7100000000000000000000000000000000000000000000000000000000\n        /* \"#utility.yul\":13576:13577   */\n      0x00\n        /* \"#utility.yul\":13569:13657   */\n      mstore\n        /* \"#utility.yul\":13676:13680   */\n      0x32\n        /* \"#utility.yul\":13673:13674   */\n      0x04\n        /* \"#utility.yul\":13666:13681   */\n      mstore\n        /* \"#utility.yul\":13700:13704   */\n      0x24\n        /* \"#utility.yul\":13697:13698   */\n      0x00\n        /* \"#utility.yul\":13690:13705   */\n      revert\n        /* \"#utility.yul\":13717:13955   */\n    tag_121:\n        /* \"#utility.yul\":13857:13891   */\n      0x4f6e6c79206f776e6572206f662074686520636f6e74726163742063616e2070\n        /* \"#utility.yul\":13853:13854   */\n      0x00\n        /* \"#utility.yul\":13845:13851   */\n      dup3\n        /* \"#utility.yul\":13841:13855   */\n      add\n        /* \"#utility.yul\":13834:13892   */\n      mstore\n        /* \"#utility.yul\":13926:13947   */\n      0x6572666f726d207468697320616374696f6e2e00000000000000000000000000\n        /* \"#utility.yul\":13921:13923   */\n      0x20\n        /* \"#utility.yul\":13913:13919   */\n      dup3\n        /* \"#utility.yul\":13909:13924   */\n      add\n        /* \"#utility.yul\":13902:13948   */\n      mstore\n        /* \"#utility.yul\":13717:13955   */\n      pop\n      jump\t// out\n        /* \"#utility.yul\":13961:14327   */\n    tag_122:\n        /* \"#utility.yul\":14103:14106   */\n      0x00\n        /* \"#utility.yul\":14124:14191   */\n      tag_275\n        /* \"#utility.yul\":14188:14190   */\n      0x33\n        /* \"#utility.yul\":14183:14186   */\n      dup4\n        /* \"#utility.yul\":14124:14191   */\n      tag_91\n      jump\t// in\n    tag_275:\n        /* \"#utility.yul\":14117:14191   */\n      swap2\n      pop\n        /* \"#utility.yul\":14200:14293   */\n      tag_276\n        /* \"#utility.yul\":14289:14292   */\n      dup3\n        /* \"#utility.yul\":14200:14293   */\n      tag_121\n      jump\t// in\n    tag_276:\n        /* \"#utility.yul\":14318:14320   */\n      0x40\n        /* \"#utility.yul\":14313:14316   */\n      dup3\n        /* \"#utility.yul\":14309:14321   */\n      add\n        /* \"#utility.yul\":14302:14321   */\n      swap1\n      pop\n        /* \"#utility.yul\":13961:14327   */\n      swap2\n      swap1\n      pop\n      jump\t// out\n        /* \"#utility.yul\":14333:14752   */\n    tag_70:\n        /* \"#utility.yul\":14499:14503   */\n      0x00\n        /* \"#utility.yul\":14537:14539   */\n      0x20\n        /* \"#utility.yul\":14526:14535   */\n      dup3\n        /* \"#utility.yul\":14522:14540   */\n      add\n        /* \"#utility.yul\":14514:14540   */\n      swap1\n      pop\n        /* \"#utility.yul\":14586:14595   */\n      dup2\n        /* \"#utility.yul\":14580:14584   */\n      dup2\n        /* \"#utility.yul\":14576:14596   */\n      sub\n        /* \"#utility.yul\":14572:14573   */\n      0x00\n        /* \"#utility.yul\":14561:14570   */\n      dup4\n        /* \"#utility.yul\":14557:14574   */\n      add\n        /* \"#utility.yul\":14550:14597   */\n      mstore\n        /* \"#utility.yul\":14614:14745   */\n      tag_278\n        /* \"#utility.yul\":14740:14744   */\n      dup2\n        /* \"#utility.yul\":14614:14745   */\n      tag_122\n      jump\t// in\n    tag_278:\n        /* \"#utility.yul\":14606:14745   */\n      swap1\n      pop\n        /* \"#utility.yul\":14333:14752   */\n      swap2\n      swap1\n      pop\n      jump\t// out\n        /* \"#utility.yul\":14758:14939   */\n    tag_123:\n        /* \"#utility.yul\":14898:14931   */\n      0x594f55275645205245414348454420544845205457454554204c494d49542100\n        /* \"#utility.yul\":14894:14895   */\n      0x00\n        /* \"#utility.yul\":14886:14892   */\n      dup3\n        /* \"#utility.yul\":14882:14896   */\n      add\n        /* \"#utility.yul\":14875:14932   */\n      mstore\n        /* \"#utility.yul\":14758:14939   */\n      pop\n      jump\t// out\n        /* \"#utility.yul\":14945:15311   */\n    tag_124:\n        /* \"#utility.yul\":15087:15090   */\n      0x00\n        /* \"#utility.yul\":15108:15175   */\n      tag_281\n        /* \"#utility.yul\":15172:15174   */\n      0x1f\n        /* \"#utility.yul\":15167:15170   */\n      dup4\n        /* \"#utility.yul\":15108:15175   */\n      tag_91\n      jump\t// in\n    tag_281:\n        /* \"#utility.yul\":15101:15175   */\n      swap2\n      pop\n        /* \"#utility.yul\":15184:15277   */\n      tag_282\n        /* \"#utility.yul\":15273:15276   */\n      dup3\n        /* \"#utility.yul\":15184:15277   */\n      tag_123\n      jump\t// in\n    tag_282:\n        /* \"#utility.yul\":15302:15304   */\n      0x20\n        /* \"#utility.yul\":15297:15300   */\n      dup3\n        /* \"#utility.yul\":15293:15305   */\n      add\n        /* \"#utility.yul\":15286:15305   */\n      swap1\n      pop\n        /* \"#utility.yul\":14945:15311   */\n      swap2\n      swap1\n      pop\n      jump\t// out\n        /* \"#utility.yul\":15317:15736   */\n    tag_75:\n        /* \"#utility.yul\":15483:15487   */\n      0x00\n        /* \"#utility.yul\":15521:15523   */\n      0x20\n        /* \"#utility.yul\":15510:15519   */\n      dup3\n        /* \"#utility.yul\":15506:15524   */\n      add\n        /* \"#utility.yul\":15498:15524   */\n      swap1\n      pop\n        /* \"#utility.yul\":15570:15579   */\n      dup2\n        /* \"#utility.yul\":15564:15568   */\n      dup2\n        /* \"#utility.yul\":15560:15580   */\n      sub\n        /* \"#utility.yul\":15556:15557   */\n      0x00\n        /* \"#utility.yul\":15545:15554   */\n      dup4\n        /* \"#utility.yul\":15541:15558   */\n      add\n        /* \"#utility.yul\":15534:15581   */\n      mstore\n        /* \"#utility.yul\":15598:15729   */\n      tag_284\n        /* \"#utility.yul\":15724:15728   */\n      dup2\n        /* \"#utility.yul\":15598:15729   */\n      tag_124\n      jump\t// in\n    tag_284:\n        /* \"#utility.yul\":15590:15729   */\n      swap1\n      pop\n        /* \"#utility.yul\":15317:15736   */\n      swap2\n      swap1\n      pop\n      jump\t// out\n        /* \"#utility.yul\":15742:15883   */\n    tag_125:\n        /* \"#utility.yul\":15791:15795   */\n      0x00\n        /* \"#utility.yul\":15814:15817   */\n      dup2\n        /* \"#utility.yul\":15806:15817   */\n      swap1\n      pop\n        /* \"#utility.yul\":15837:15840   */\n      dup2\n        /* \"#utility.yul\":15834:15835   */\n      0x00\n        /* \"#utility.yul\":15827:15841   */\n      mstore\n        /* \"#utility.yul\":15871:15875   */\n      0x20\n        /* \"#utility.yul\":15868:15869   */\n      0x00\n        /* \"#utility.yul\":15858:15876   */\n      keccak256\n        /* \"#utility.yul\":15850:15876   */\n      swap1\n      pop\n        /* \"#utility.yul\":15742:15883   */\n      swap2\n      swap1\n      pop\n      jump\t// out\n        /* \"#utility.yul\":15889:15982   */\n    tag_126:\n        /* \"#utility.yul\":15926:15932   */\n      0x00\n        /* \"#utility.yul\":15973:15975   */\n      0x20\n        /* \"#utility.yul\":15968:15970   */\n      0x1f\n        /* \"#utility.yul\":15961:15966   */\n      dup4\n        /* \"#utility.yul\":15957:15971   */\n      add\n        /* \"#utility.yul\":15953:15976   */\n      div\n        /* \"#utility.yul\":15943:15976   */\n      swap1\n      pop\n        /* \"#utility.yul\":15889:15982   */\n      swap2\n      swap1\n      pop\n      jump\t// out\n        /* \"#utility.yul\":15988:16095   */\n    tag_127:\n        /* \"#utility.yul\":16032:16040   */\n      0x00\n        /* \"#utility.yul\":16082:16087   */\n      dup3\n        /* \"#utility.yul\":16076:16080   */\n      dup3\n        /* \"#utility.yul\":16072:16088   */\n      shl\n        /* \"#utility.yul\":16051:16088   */\n      swap1\n      pop\n        /* \"#utility.yul\":15988:16095   */\n      swap3\n      swap2\n      pop\n      pop\n      jump\t// out\n        /* \"#utility.yul\":16101:16494   */\n    tag_128:\n        /* \"#utility.yul\":16170:16176   */\n      0x00\n        /* \"#utility.yul\":16220:16221   */\n      0x08\n        /* \"#utility.yul\":16208:16218   */\n      dup4\n        /* \"#utility.yul\":16204:16222   */\n      mul\n        /* \"#utility.yul\":16243:16340   */\n      tag_289\n        /* \"#utility.yul\":16273:16339   */\n      0xffffffffffffffffffffffffffffffffffffffffffffffffffffffffffffffff\n        /* \"#utility.yul\":16262:16271   */\n      dup3\n        /* \"#utility.yul\":16243:16340   */\n      tag_127\n      jump\t// in\n    tag_289:\n        /* \"#utility.yul\":16361:16400   */\n      tag_290\n        /* \"#utility.yul\":16391:16399   */\n      dup7\n        /* \"#utility.yul\":16380:16389   */\n      dup4\n        /* \"#utility.yul\":16361:16400   */\n      tag_127\n      jump\t// in\n    tag_290:\n        /* \"#utility.yul\":16349:16400   */\n      swap6\n      pop\n        /* \"#utility.yul\":16433:16437   */\n      dup1\n        /* \"#utility.yul\":16429:16438   */\n      not\n        /* \"#utility.yul\":16422:16427   */\n      dup5\n        /* \"#utility.yul\":16418:16439   */\n      and\n        /* \"#utility.yul\":16409:16439   */\n      swap4\n      pop\n        /* \"#utility.yul\":16482:16486   */\n      dup1\n        /* \"#utility.yul\":16472:16480   */\n      dup7\n        /* \"#utility.yul\":16468:16487   */\n      and\n        /* \"#utility.yul\":16461:16466   */\n      dup5\n        /* \"#utility.yul\":16458:16488   */\n      or\n        /* \"#utility.yul\":16448:16488   */\n      swap3\n      pop\n        /* \"#utility.yul\":16177:16494   */\n      pop\n      pop\n        /* \"#utility.yul\":16101:16494   */\n      swap4\n      swap3\n      pop\n      pop\n      pop\n      jump\t// out\n        /* \"#utility.yul\":16500:16560   */\n    tag_129:\n        /* \"#utility.yul\":16528:16531   */\n      0x00\n        /* \"#utility.yul\":16549:16554   */\n      dup2\n        /* \"#utility.yul\":16542:16554   */\n      swap1\n      pop\n        /* \"#utility.yul\":16500:16560   */\n      swap2\n      swap1\n      pop\n      jump\t// out\n        /* \"#utility.yul\":16566:16708   */\n    tag_130:\n        /* \"#utility.yul\":16616:16625   */\n      0x00\n        /* \"#utility.yul\":16649:16702   */\n      tag_293\n        /* \"#utility.yul\":16667:16701   */\n      tag_294\n        /* \"#utility.yul\":16676:16700   */\n      tag_295\n        /* \"#utility.yul\":16694:16699   */\n      dup5\n        /* \"#utility.yul\":16676:16700   */\n      tag_86\n      jump\t// in\n    tag_295:\n        /* \"#utility.yul\":16667:16701   */\n      tag_129\n      jump\t// in\n    tag_294:\n        /* \"#utility.yul\":16649:16702   */\n      tag_86\n      jump\t// in\n    tag_293:\n        /* \"#utility.yul\":16636:16702   */\n      swap1\n      pop\n        /* \"#utility.yul\":16566:16708   */\n      swap2\n      swap1\n      pop\n      jump\t// out\n        /* \"#utility.yul\":16714:16789   */\n    tag_131:\n        /* \"#utility.yul\":16757:16760   */\n      0x00\n        /* \"#utility.yul\":16778:16783   */\n      dup2\n        /* \"#utility.yul\":16771:16783   */\n      swap1\n      pop\n        /* \"#utility.yul\":16714:16789   */\n      swap2\n      swap1\n      pop\n      jump\t// out\n        /* \"#utility.yul\":16795:17064   */\n    tag_132:\n        /* \"#utility.yul\":16905:16944   */\n      tag_298\n        /* \"#utility.yul\":16936:16943   */\n      dup4\n        /* \"#utility.yul\":16905:16944   */\n      tag_130\n      jump\t// in\n    tag_298:\n        /* \"#utility.yul\":16966:17057   */\n      tag_299\n        /* \"#utility.yul\":17015:17056   */\n      tag_300\n        /* \"#utility.yul\":17039:17055   */\n      dup3\n        /* \"#utility.yul\":17015:17056   */\n      tag_131\n      jump\t// in\n    tag_300:\n        /* \"#utility.yul\":17007:17013   */\n      dup5\n        /* \"#utility.yul\":17000:17004   */\n      dup5\n        /* \"#utility.yul\":16994:17005   */\n      sload\n        /* \"#utility.yul\":16966:17057   */\n      tag_128\n      jump\t// in\n    tag_299:\n        /* \"#utility.yul\":16960:16964   */\n      dup3\n        /* \"#utility.yul\":16953:17058   */\n      sstore\n        /* \"#utility.yul\":16871:17064   */\n      pop\n        /* \"#utility.yul\":16795:17064   */\n      pop\n      pop\n      pop\n      jump\t// out\n        /* \"#utility.yul\":17070:17143   */\n    tag_133:\n        /* \"#utility.yul\":17115:17118   */\n      0x00\n        /* \"#utility.yul\":17136:17137   */\n      0x00\n        /* \"#utility.yul\":17129:17137   */\n      swap1\n      pop\n        /* \"#utility.yul\":17070:17143   */\n      swap1\n      jump\t// out\n        /* \"#utility.yul\":17149:17338   */\n    tag_134:\n        /* \"#utility.yul\":17226:17258   */\n      tag_303\n      tag_133\n      jump\t// in\n    tag_303:\n        /* \"#utility.yul\":17267:17332   */\n      tag_304\n        /* \"#utility.yul\":17325:17331   */\n      dup2\n        /* \"#utility.yul\":17317:17323   */\n      dup5\n        /* \"#utility.yul\":17311:17315   */\n      dup5\n        /* \"#utility.yul\":17267:17332   */\n      tag_132\n      jump\t// in\n    tag_304:\n        /* \"#utility.yul\":17202:17338   */\n      pop\n        /* \"#utility.yul\":17149:17338   */\n      pop\n      pop\n      jump\t// out\n        /* \"#utility.yul\":17344:17530   */\n    tag_135:\n        /* \"#utility.yul\":17404:17524   */\n    tag_306:\n        /* \"#utility.yul\":17421:17424   */\n      dup2\n        /* \"#utility.yul\":17414:17419   */\n      dup2\n        /* \"#utility.yul\":17411:17425   */\n      lt\n        /* \"#utility.yul\":17404:17524   */\n      iszero\n      tag_308\n      jumpi\n        /* \"#utility.yul\":17475:17514   */\n      tag_309\n        /* \"#utility.yul\":17512:17513   */\n      0x00\n        /* \"#utility.yul\":17505:17510   */\n      dup3\n        /* \"#utility.yul\":17475:17514   */\n      tag_134\n      jump\t// in\n    tag_309:\n        /* \"#utility.yul\":17448:17449   */\n      0x01\n        /* \"#utility.yul\":17441:17446   */\n      dup2\n        /* \"#utility.yul\":17437:17450   */\n      add\n        /* \"#utility.yul\":17428:17450   */\n      swap1\n      pop\n        /* \"#utility.yul\":17404:17524   */\n      jump(tag_306)\n    tag_308:\n        /* \"#utility.yul\":17344:17530   */\n      pop\n      pop\n      jump\t// out\n        /* \"#utility.yul\":17536:18079   */\n    tag_136:\n        /* \"#utility.yul\":17637:17639   */\n      0x1f\n        /* \"#utility.yul\":17632:17635   */\n      dup3\n        /* \"#utility.yul\":17629:17640   */\n      gt\n        /* \"#utility.yul\":17626:18072   */\n      iszero\n      tag_311\n      jumpi\n        /* \"#utility.yul\":17671:17709   */\n      tag_312\n        /* \"#utility.yul\":17703:17708   */\n      dup2\n        /* \"#utility.yul\":17671:17709   */\n      tag_125\n      jump\t// in\n    tag_312:\n        /* \"#utility.yul\":17755:17784   */\n      tag_313\n        /* \"#utility.yul\":17773:17783   */\n      dup5\n        /* \"#utility.yul\":17755:17784   */\n      tag_126\n      jump\t// in\n    tag_313:\n        /* \"#utility.yul\":17745:17753   */\n      dup2\n        /* \"#utility.yul\":17741:17785   */\n      add\n        /* \"#utility.yul\":17938:17940   */\n      0x20\n        /* \"#utility.yul\":17926:17936   */\n      dup6\n        /* \"#utility.yul\":17923:17941   */\n      lt\n        /* \"#utility.yul\":17920:17969   */\n      iszero\n      tag_314\n      jumpi\n        /* \"#utility.yul\":17959:17967   */\n      dup2\n        /* \"#utility.yul\":17944:17967   */\n      swap1\n      pop\n        /* \"#utility.yul\":17920:17969   */\n    tag_314:\n        /* \"#utility.yul\":17982:18062   */\n      tag_315\n        /* \"#utility.yul\":18038:18060   */\n      tag_316\n        /* \"#utility.yul\":18056:18059   */\n      dup6\n        /* \"#utility.yul\":18038:18060   */\n      tag_126\n      jump\t// in\n    tag_316:\n        /* \"#utility.yul\":18028:18036   */\n      dup4\n        /* \"#utility.yul\":18024:18061   */\n      add\n        /* \"#utility.yul\":18011:18022   */\n      dup3\n        /* \"#utility.yul\":17982:18062   */\n      tag_135\n      jump\t// in\n    tag_315:\n        /* \"#utility.yul\":17641:18072   */\n      pop\n      pop\n        /* \"#utility.yul\":17626:18072   */\n    tag_311:\n        /* \"#utility.yul\":17536:18079   */\n      pop\n      pop\n      pop\n      jump\t// out\n        /* \"#utility.yul\":18085:18202   */\n    tag_137:\n        /* \"#utility.yul\":18139:18147   */\n      0x00\n        /* \"#utility.yul\":18189:18194   */\n      dup3\n        /* \"#utility.yul\":18183:18187   */\n      dup3\n        /* \"#utility.yul\":18179:18195   */\n      shr\n        /* \"#utility.yul\":18158:18195   */\n      swap1\n      pop\n        /* \"#utility.yul\":18085:18202   */\n      swap3\n      swap2\n      pop\n      pop\n      jump\t// out\n        /* \"#utility.yul\":18208:18377   */\n    tag_138:\n        /* \"#utility.yul\":18252:18258   */\n      0x00\n        /* \"#utility.yul\":18285:18336   */\n      tag_319\n        /* \"#utility.yul\":18333:18334   */\n      0x00\n        /* \"#utility.yul\":18329:18335   */\n      not\n        /* \"#utility.yul\":18321:18326   */\n      dup5\n        /* \"#utility.yul\":18318:18319   */\n      0x08\n        /* \"#utility.yul\":18314:18327   */\n      mul\n        /* \"#utility.yul\":18285:18336   */\n      tag_137\n      jump\t// in\n    tag_319:\n        /* \"#utility.yul\":18281:18337   */\n      not\n        /* \"#utility.yul\":18366:18370   */\n      dup1\n        /* \"#utility.yul\":18360:18364   */\n      dup4\n        /* \"#utility.yul\":18356:18371   */\n      and\n        /* \"#utility.yul\":18346:18371   */\n      swap2\n      pop\n        /* \"#utility.yul\":18259:18377   */\n      pop\n        /* \"#utility.yul\":18208:18377   */\n      swap3\n      swap2\n      pop\n      pop\n      jump\t// out\n        /* \"#utility.yul\":18382:18677   */\n    tag_139:\n        /* \"#utility.yul\":18458:18462   */\n      0x00\n        /* \"#utility.yul\":18604:18633   */\n      tag_321\n        /* \"#utility.yul\":18629:18632   */\n      dup4\n        /* \"#utility.yul\":18623:18627   */\n      dup4\n        /* \"#utility.yul\":18604:18633   */\n      tag_138\n      jump\t// in\n    tag_321:\n        /* \"#utility.yul\":18596:18633   */\n      swap2\n      pop\n        /* \"#utility.yul\":18666:18669   */\n      dup3\n        /* \"#utility.yul\":18663:18664   */\n      0x02\n        /* \"#utility.yul\":18659:18670   */\n      mul\n        /* \"#utility.yul\":18653:18657   */\n      dup3\n        /* \"#utility.yul\":18650:18671   */\n      or\n        /* \"#utility.yul\":18642:18671   */\n      swap1\n      pop\n        /* \"#utility.yul\":18382:18677   */\n      swap3\n      swap2\n      pop\n      pop\n      jump\t// out\n        /* \"#utility.yul\":18682:20077   */\n    tag_78:\n        /* \"#utility.yul\":18799:18836   */\n      tag_323\n        /* \"#utility.yul\":18832:18835   */\n      dup3\n        /* \"#utility.yul\":18799:18836   */\n      tag_90\n      jump\t// in\n    tag_323:\n        /* \"#utility.yul\":18901:18919   */\n      0xffffffffffffffff\n        /* \"#utility.yul\":18893:18899   */\n      dup2\n        /* \"#utility.yul\":18890:18920   */\n      gt\n        /* \"#utility.yul\":18887:18943   */\n      iszero\n      tag_324\n      jumpi\n        /* \"#utility.yul\":18923:18941   */\n      tag_325\n      tag_113\n      jump\t// in\n    tag_325:\n        /* \"#utility.yul\":18887:18943   */\n    tag_324:\n        /* \"#utility.yul\":18967:19005   */\n      tag_326\n        /* \"#utility.yul\":18999:19003   */\n      dup3\n        /* \"#utility.yul\":18993:19004   */\n      sload\n        /* \"#utility.yul\":18967:19005   */\n      tag_41\n      jump\t// in\n    tag_326:\n        /* \"#utility.yul\":19052:19119   */\n      tag_327\n        /* \"#utility.yul\":19112:19118   */\n      dup3\n        /* \"#utility.yul\":19104:19110   */\n      dup3\n        /* \"#utility.yul\":19098:19102   */\n      dup6\n        /* \"#utility.yul\":19052:19119   */\n      tag_136\n      jump\t// in\n    tag_327:\n        /* \"#utility.yul\":19146:19147   */\n      0x00\n        /* \"#utility.yul\":19170:19174   */\n      0x20\n        /* \"#utility.yul\":19157:19174   */\n      swap1\n      pop\n        /* \"#utility.yul\":19202:19204   */\n      0x1f\n        /* \"#utility.yul\":19194:19200   */\n      dup4\n        /* \"#utility.yul\":19191:19205   */\n      gt\n        /* \"#utility.yul\":19219:19220   */\n      0x01\n        /* \"#utility.yul\":19214:19832   */\n      dup2\n      eq\n      tag_329\n      jumpi\n        /* \"#utility.yul\":19876:19877   */\n      0x00\n        /* \"#utility.yul\":19893:19899   */\n      dup5\n        /* \"#utility.yul\":19890:19967   */\n      iszero\n      tag_330\n      jumpi\n        /* \"#utility.yul\":19942:19951   */\n      dup3\n        /* \"#utility.yul\":19937:19940   */\n      dup8\n        /* \"#utility.yul\":19933:19952   */\n      add\n        /* \"#utility.yul\":19927:19953   */\n      mload\n        /* \"#utility.yul\":19918:19953   */\n      swap1\n      pop\n        /* \"#utility.yul\":19890:19967   */\n    tag_330:\n        /* \"#utility.yul\":19993:20060   */\n      tag_331\n        /* \"#utility.yul\":20053:20059   */\n      dup6\n        /* \"#utility.yul\":20046:20051   */\n      dup3\n        /* \"#utility.yul\":19993:20060   */\n      tag_139\n      jump\t// in\n    tag_331:\n        /* \"#utility.yul\":19987:19991   */\n      dup7\n        /* \"#utility.yul\":19980:20061   */\n      sstore\n        /* \"#utility.yul\":19849:20071   */\n      pop\n        /* \"#utility.yul\":19184:20071   */\n      jump(tag_328)\n        /* \"#utility.yul\":19214:19832   */\n    tag_329:\n        /* \"#utility.yul\":19266:19270   */\n      0x1f\n        /* \"#utility.yul\":19262:19271   */\n      not\n        /* \"#utility.yul\":19254:19260   */\n      dup5\n        /* \"#utility.yul\":19250:19272   */\n      and\n        /* \"#utility.yul\":19300:19337   */\n      tag_332\n        /* \"#utility.yul\":19332:19336   */\n      dup7\n        /* \"#utility.yul\":19300:19337   */\n      tag_125\n      jump\t// in\n    tag_332:\n        /* \"#utility.yul\":19359:19360   */\n      0x00\n        /* \"#utility.yul\":19373:19581   */\n    tag_333:\n        /* \"#utility.yul\":19387:19394   */\n      dup3\n        /* \"#utility.yul\":19384:19385   */\n      dup2\n        /* \"#utility.yul\":19381:19395   */\n      lt\n        /* \"#utility.yul\":19373:19581   */\n      iszero\n      tag_335\n      jumpi\n        /* \"#utility.yul\":19466:19475   */\n      dup5\n        /* \"#utility.yul\":19461:19464   */\n      dup10\n        /* \"#utility.yul\":19457:19476   */\n      add\n        /* \"#utility.yul\":19451:19477   */\n      mload\n        /* \"#utility.yul\":19443:19449   */\n      dup3\n        /* \"#utility.yul\":19436:19478   */\n      sstore\n        /* \"#utility.yul\":19517:19518   */\n      0x01\n        /* \"#utility.yul\":19509:19515   */\n      dup3\n        /* \"#utility.yul\":19505:19519   */\n      add\n        /* \"#utility.yul\":19495:19519   */\n      swap2\n      pop\n        /* \"#utility.yul\":19564:19566   */\n      0x20\n        /* \"#utility.yul\":19553:19562   */\n      dup6\n        /* \"#utility.yul\":19549:19567   */\n      add\n        /* \"#utility.yul\":19536:19567   */\n      swap5\n      pop\n        /* \"#utility.yul\":19410:19414   */\n      0x20\n        /* \"#utility.yul\":19407:19408   */\n      dup2\n        /* \"#utility.yul\":19403:19415   */\n      add\n        /* \"#utility.yul\":19398:19415   */\n      swap1\n      pop\n        /* \"#utility.yul\":19373:19581   */\n      jump(tag_333)\n    tag_335:\n        /* \"#utility.yul\":19609:19615   */\n      dup7\n        /* \"#utility.yul\":19600:19607   */\n      dup4\n        /* \"#utility.yul\":19597:19616   */\n      lt\n        /* \"#utility.yul\":19594:19773   */\n      iszero\n      tag_336\n      jumpi\n        /* \"#utility.yul\":19667:19676   */\n      dup5\n        /* \"#utility.yul\":19662:19665   */\n      dup10\n        /* \"#utility.yul\":19658:19677   */\n      add\n        /* \"#utility.yul\":19652:19678   */\n      mload\n        /* \"#utility.yul\":19710:19758   */\n      tag_337\n        /* \"#utility.yul\":19752:19756   */\n      0x1f\n        /* \"#utility.yul\":19744:19750   */\n      dup10\n        /* \"#utility.yul\":19740:19757   */\n      and\n        /* \"#utility.yul\":19729:19738   */\n      dup3\n        /* \"#utility.yul\":19710:19758   */\n      tag_138\n      jump\t// in\n    tag_337:\n        /* \"#utility.yul\":19702:19708   */\n      dup4\n        /* \"#utility.yul\":19695:19759   */\n      sstore\n        /* \"#utility.yul\":19617:19773   */\n      pop\n        /* \"#utility.yul\":19594:19773   */\n    tag_336:\n        /* \"#utility.yul\":19819:19820   */\n      0x01\n        /* \"#utility.yul\":19815:19816   */\n      0x02\n        /* \"#utility.yul\":19807:19813   */\n      dup9\n        /* \"#utility.yul\":19803:19817   */\n      mul\n        /* \"#utility.yul\":19799:19821   */\n      add\n        /* \"#utility.yul\":19793:19797   */\n      dup9\n        /* \"#utility.yul\":19786:19822   */\n      sstore\n        /* \"#utility.yul\":19221:19832   */\n      pop\n      pop\n      pop\n        /* \"#utility.yul\":19184:20071   */\n    tag_328:\n      pop\n        /* \"#utility.yul\":18774:20077   */\n      pop\n      pop\n      pop\n        /* \"#utility.yul\":18682:20077   */\n      pop\n      pop\n      jump\t// out\n\n    auxdata: 0xa2646970667358221220b212bec3923e1bd4199edbc918b657fac2e70923c244c051c7e5cb48c43d76c664736f6c634300081e0033\n}\n",
				"bytecode": {
					"linkReferences": {},
					"object": "608060405260fa5f5f6101000a81548161ffff021916908361ffff160217905550348015602a575f5ffd5b50335f60026101000a81548173ffffffffffffffffffffffffffffffffffffffff021916908373ffffffffffffffffffffffffffffffffffffffff1602179055506111bf806100785f395ff3fe608060405234801561000f575f5ffd5b5060043610610060575f3560e01c806305a1b4a914610064578063112f54e31461009757806312e7ee1c146100c757806358bfa4ab146100f75780637c9cd2bc146101135780638da5cb5b1461012f575b5f5ffd5b61007e6004803603810190610079919061084a565b61014d565b60405161008e9493929190610916565b60405180910390f35b6100b160048036038101906100ac919061084a565b610238565b6040516100be9190610a26565b60405180910390f35b6100e160048036038101906100dc9190610a46565b6103a6565b6040516100ee9190610b8c565b60405180910390f35b610111600480360381019061010c9190610be3565b610537565b005b61012d60048036038101906101289190610d3a565b6105e4565b005b61013761074c565b6040516101449190610d81565b60405180910390f35b6001602052815f5260405f208181548110610166575f80fd5b905f5260205f2090600402015f9150915050805f015f9054906101000a900473ffffffffffffffffffffffffffffffffffffffff16908060010180546101ab90610dc7565b80601f01602080910402602001604051908101604052809291908181526020018280546101d790610dc7565b80156102225780601f106101f957610100808354040283529160200191610222565b820191905f5260205f20905b81548152906001019060200180831161020557829003601f168201915b5050505050908060020154908060030154905084565b610240610771565b60015f8473ffffffffffffffffffffffffffffffffffffffff1673ffffffffffffffffffffffffffffffffffffffff1681526020019081526020015f20828154811061028f5761028e610df7565b5b905f5260205f2090600402016040518060800160405290815f82015f9054906101000a900473ffffffffffffffffffffffffffffffffffffffff1673ffffffffffffffffffffffffffffffffffffffff1673ffffffffffffffffffffffffffffffffffffffff16815260200160018201805461030a90610dc7565b80601f016020809104026020016040519081016040528092919081815260200182805461033690610dc7565b80156103815780601f1061035857610100808354040283529160200191610381565b820191905f5260205f20905b81548152906001019060200180831161036457829003601f168201915b5050505050815260200160028201548152602001600382015481525050905092915050565b606060015f8373ffffffffffffffffffffffffffffffffffffffff1673ffffffffffffffffffffffffffffffffffffffff1681526020019081526020015f20805480602002602001604051908101604052809291908181526020015f905b8282101561052c578382905f5260205f2090600402016040518060800160405290815f82015f9054906101000a900473ffffffffffffffffffffffffffffffffffffffff1673ffffffffffffffffffffffffffffffffffffffff1673ffffffffffffffffffffffffffffffffffffffff16815260200160018201805461048990610dc7565b80601f01602080910402602001604051908101604052809291908181526020018280546104b590610dc7565b80156105005780601f106104d757610100808354040283529160200191610500565b820191905f5260205f20905b8154815290600101906020018083116104e357829003601f168201915b505050505081526020016002820154815260200160038201548152505081526020019060010190610404565b505050509050919050565b5f60029054906101000a900473ffffffffffffffffffffffffffffffffffffffff1673ffffffffffffffffffffffffffffffffffffffff163373ffffffffffffffffffffffffffffffffffffffff16146105c6576040517f08c379a00000000000000000000000000000000000000000000000000000000081526004016105bd90610e94565b60405180910390fd5b805f5f6101000a81548161ffff021916908361ffff16021790555050565b5f5f9054906101000a900461ffff1661ffff168151111561063a576040517f08c379a000000000000000000000000000000000000000000000000000000000815260040161063190610efc565b60405180910390fd5b5f60405180608001604052803373ffffffffffffffffffffffffffffffffffffffff1681526020018381526020014281526020015f815250905060015f3373ffffffffffffffffffffffffffffffffffffffff1673ffffffffffffffffffffffffffffffffffffffff1681526020019081526020015f2081908060018154018082558091505060019003905f5260205f2090600402015f909190919091505f820151815f015f6101000a81548173ffffffffffffffffffffffffffffffffffffffff021916908373ffffffffffffffffffffffffffffffffffffffff160217905550602082015181600101908161073191906110ba565b50604082015181600201556060820151816003015550505050565b5f60029054906101000a900473ffffffffffffffffffffffffffffffffffffffff1681565b60405180608001604052805f73ffffffffffffffffffffffffffffffffffffffff168152602001606081526020015f81526020015f81525090565b5f604051905090565b5f5ffd5b5f5ffd5b5f73ffffffffffffffffffffffffffffffffffffffff82169050919050565b5f6107e6826107bd565b9050919050565b6107f6816107dc565b8114610800575f5ffd5b50565b5f81359050610811816107ed565b92915050565b5f819050919050565b61082981610817565b8114610833575f5ffd5b50565b5f8135905061084481610820565b92915050565b5f5f604083850312156108605761085f6107b5565b5b5f61086d85828601610803565b925050602061087e85828601610836565b9150509250929050565b610891816107dc565b82525050565b5f81519050919050565b5f82825260208201905092915050565b8281835e5f83830152505050565b5f601f19601f8301169050919050565b5f6108d982610897565b6108e381856108a1565b93506108f38185602086016108b1565b6108fc816108bf565b840191505092915050565b61091081610817565b82525050565b5f6080820190506109295f830187610888565b818103602083015261093b81866108cf565b905061094a6040830185610907565b6109576060830184610907565b95945050505050565b610969816107dc565b82525050565b5f82825260208201905092915050565b5f61098982610897565b610993818561096f565b93506109a38185602086016108b1565b6109ac816108bf565b840191505092915050565b6109c081610817565b82525050565b5f608083015f8301516109db5f860182610960565b50602083015184820360208601526109f3828261097f565b9150506040830151610a0860408601826109b7565b506060830151610a1b60608601826109b7565b508091505092915050565b5f6020820190508181035f830152610a3e81846109c6565b905092915050565b5f60208284031215610a5b57610a5a6107b5565b5b5f610a6884828501610803565b91505092915050565b5f81519050919050565b5f82825260208201905092915050565b5f819050602082019050919050565b5f608083015f830151610aaf5f860182610960565b5060208301518482036020860152610ac7828261097f565b9150506040830151610adc60408601826109b7565b506060830151610aef60608601826109b7565b508091505092915050565b5f610b058383610a9a565b905092915050565b5f602082019050919050565b5f610b2382610a71565b610b2d8185610a7b565b935083602082028501610b3f85610a8b565b805f5b85811015610b7a5784840389528151610b5b8582610afa565b9450610b6683610b0d565b925060208a01995050600181019050610b42565b50829750879550505050505092915050565b5f6020820190508181035f830152610ba48184610b19565b905092915050565b5f61ffff82169050919050565b610bc281610bac565b8114610bcc575f5ffd5b50565b5f81359050610bdd81610bb9565b92915050565b5f60208284031215610bf857610bf76107b5565b5b5f610c0584828501610bcf565b91505092915050565b5f5ffd5b5f5ffd5b7f4e487b71000000000000000000000000000000000000000000000000000000005f52604160045260245ffd5b610c4c826108bf565b810181811067ffffffffffffffff82111715610c6b57610c6a610c16565b5b80604052505050565b5f610c7d6107ac565b9050610c898282610c43565b919050565b5f67ffffffffffffffff821115610ca857610ca7610c16565b5b610cb1826108bf565b9050602081019050919050565b828183375f83830152505050565b5f610cde610cd984610c8e565b610c74565b905082815260208101848484011115610cfa57610cf9610c12565b5b610d05848285610cbe565b509392505050565b5f82601f830112610d2157610d20610c0e565b5b8135610d31848260208601610ccc565b91505092915050565b5f60208284031215610d4f57610d4e6107b5565b5b5f82013567ffffffffffffffff811115610d6c57610d6b6107b9565b5b610d7884828501610d0d565b91505092915050565b5f602082019050610d945f830184610888565b92915050565b7f4e487b71000000000000000000000000000000000000000000000000000000005f52602260045260245ffd5b5f6002820490506001821680610dde57607f821691505b602082108103610df157610df0610d9a565b5b50919050565b7f4e487b71000000000000000000000000000000000000000000000000000000005f52603260045260245ffd5b7f4f6e6c79206f776e6572206f662074686520636f6e74726163742063616e20705f8201527f6572666f726d207468697320616374696f6e2e00000000000000000000000000602082015250565b5f610e7e6033836108a1565b9150610e8982610e24565b604082019050919050565b5f6020820190508181035f830152610eab81610e72565b9050919050565b7f594f55275645205245414348454420544845205457454554204c494d495421005f82015250565b5f610ee6601f836108a1565b9150610ef182610eb2565b602082019050919050565b5f6020820190508181035f830152610f1381610eda565b9050919050565b5f819050815f5260205f209050919050565b5f6020601f8301049050919050565b5f82821b905092915050565b5f60088302610f767fffffffffffffffffffffffffffffffffffffffffffffffffffffffffffffffff82610f3b565b610f808683610f3b565b95508019841693508086168417925050509392505050565b5f819050919050565b5f610fbb610fb6610fb184610817565b610f98565b610817565b9050919050565b5f819050919050565b610fd483610fa1565b610fe8610fe082610fc2565b848454610f47565b825550505050565b5f5f905090565b610fff610ff0565b61100a818484610fcb565b505050565b5b8181101561102d576110225f82610ff7565b600181019050611010565b5050565b601f8211156110725761104381610f1a565b61104c84610f2c565b8101602085101561105b578190505b61106f61106785610f2c565b83018261100f565b50505b505050565b5f82821c905092915050565b5f6110925f1984600802611077565b1980831691505092915050565b5f6110aa8383611083565b9150826002028217905092915050565b6110c382610897565b67ffffffffffffffff8111156110dc576110db610c16565b5b6110e68254610dc7565b6110f1828285611031565b5f60209050601f831160018114611122575f8415611110578287015190505b61111a858261109f565b865550611181565b601f19841661113086610f1a565b5f5b8281101561115757848901518255600182019150602085019450602081019050611132565b868310156111745784890151611170601f891682611083565b8355505b6001600288020188555050505b50505050505056fea2646970667358221220b212bec3923e1bd4199edbc918b657fac2e70923c244c051c7e5cb48c43d76c664736f6c634300081e0033",
					"opcodes": "PUSH1 0x80 PUSH1 0x40 MSTORE PUSH1 0xFA PUSH0 PUSH0 PUSH2 0x100 EXP DUP2 SLOAD DUP2 PUSH2 0xFFFF MUL NOT AND SWAP1 DUP4 PUSH2 0xFFFF AND MUL OR SWAP1 SSTORE POP CALLVALUE DUP1 ISZERO PUSH1 0x2A JUMPI PUSH0 PUSH0 REVERT JUMPDEST POP CALLER PUSH0 PUSH1 0x2 PUSH2 0x100 EXP DUP2 SLOAD DUP2 PUSH20 0xFFFFFFFFFFFFFFFFFFFFFFFFFFFFFFFFFFFFFFFF MUL NOT AND SWAP1 DUP4 PUSH20 0xFFFFFFFFFFFFFFFFFFFFFFFFFFFFFFFFFFFFFFFF AND MUL OR SWAP1 SSTORE POP PUSH2 0x11BF DUP1 PUSH2 0x78 PUSH0 CODECOPY PUSH0 RETURN INVALID PUSH1 0x80 PUSH1 0x40 MSTORE CALLVALUE DUP1 ISZERO PUSH2 0xF JUMPI PUSH0 PUSH0 REVERT JUMPDEST POP PUSH1 0x4 CALLDATASIZE LT PUSH2 0x60 JUMPI PUSH0 CALLDATALOAD PUSH1 0xE0 SHR DUP1 PUSH4 0x5A1B4A9 EQ PUSH2 0x64 JUMPI DUP1 PUSH4 0x112F54E3 EQ PUSH2 0x97 JUMPI DUP1 PUSH4 0x12E7EE1C EQ PUSH2 0xC7 JUMPI DUP1 PUSH4 0x58BFA4AB EQ PUSH2 0xF7 JUMPI DUP1 PUSH4 0x7C9CD2BC EQ PUSH2 0x113 JUMPI DUP1 PUSH4 0x8DA5CB5B EQ PUSH2 0x12F JUMPI JUMPDEST PUSH0 PUSH0 REVERT JUMPDEST PUSH2 0x7E PUSH1 0x4 DUP1 CALLDATASIZE SUB DUP2 ADD SWAP1 PUSH2 0x79 SWAP2 SWAP1 PUSH2 0x84A JUMP JUMPDEST PUSH2 0x14D JUMP JUMPDEST PUSH1 0x40 MLOAD PUSH2 0x8E SWAP5 SWAP4 SWAP3 SWAP2 SWAP1 PUSH2 0x916 JUMP JUMPDEST PUSH1 0x40 MLOAD DUP1 SWAP2 SUB SWAP1 RETURN JUMPDEST PUSH2 0xB1 PUSH1 0x4 DUP1 CALLDATASIZE SUB DUP2 ADD SWAP1 PUSH2 0xAC SWAP2 SWAP1 PUSH2 0x84A JUMP JUMPDEST PUSH2 0x238 JUMP JUMPDEST PUSH1 0x40 MLOAD PUSH2 0xBE SWAP2 SWAP1 PUSH2 0xA26 JUMP JUMPDEST PUSH1 0x40 MLOAD DUP1 SWAP2 SUB SWAP1 RETURN JUMPDEST PUSH2 0xE1 PUSH1 0x4 DUP1 CALLDATASIZE SUB DUP2 ADD SWAP1 PUSH2 0xDC SWAP2 SWAP1 PUSH2 0xA46 JUMP JUMPDEST PUSH2 0x3A6 JUMP JUMPDEST PUSH1 0x40 MLOAD PUSH2 0xEE SWAP2 SWAP1 PUSH2 0xB8C JUMP JUMPDEST PUSH1 0x40 MLOAD DUP1 SWAP2 SUB SWAP1 RETURN JUMPDEST PUSH2 0x111 PUSH1 0x4 DUP1 CALLDATASIZE SUB DUP2 ADD SWAP1 PUSH2 0x10C SWAP2 SWAP1 PUSH2 0xBE3 JUMP JUMPDEST PUSH2 0x537 JUMP JUMPDEST STOP JUMPDEST PUSH2 0x12D PUSH1 0x4 DUP1 CALLDATASIZE SUB DUP2 ADD SWAP1 PUSH2 0x128 SWAP2 SWAP1 PUSH2 0xD3A JUMP JUMPDEST PUSH2 0x5E4 JUMP JUMPDEST STOP JUMPDEST PUSH2 0x137 PUSH2 0x74C JUMP JUMPDEST PUSH1 0x40 MLOAD PUSH2 0x144 SWAP2 SWAP1 PUSH2 0xD81 JUMP JUMPDEST PUSH1 0x40 MLOAD DUP1 SWAP2 SUB SWAP1 RETURN JUMPDEST PUSH1 0x1 PUSH1 0x20 MSTORE DUP2 PUSH0 MSTORE PUSH1 0x40 PUSH0 KECCAK256 DUP2 DUP2 SLOAD DUP2 LT PUSH2 0x166 JUMPI PUSH0 DUP1 REVERT JUMPDEST SWAP1 PUSH0 MSTORE PUSH1 0x20 PUSH0 KECCAK256 SWAP1 PUSH1 0x4 MUL ADD PUSH0 SWAP2 POP SWAP2 POP POP DUP1 PUSH0 ADD PUSH0 SWAP1 SLOAD SWAP1 PUSH2 0x100 EXP SWAP1 DIV PUSH20 0xFFFFFFFFFFFFFFFFFFFFFFFFFFFFFFFFFFFFFFFF AND SWAP1 DUP1 PUSH1 0x1 ADD DUP1 SLOAD PUSH2 0x1AB SWAP1 PUSH2 0xDC7 JUMP JUMPDEST DUP1 PUSH1 0x1F ADD PUSH1 0x20 DUP1 SWAP2 DIV MUL PUSH1 0x20 ADD PUSH1 0x40 MLOAD SWAP1 DUP2 ADD PUSH1 0x40 MSTORE DUP1 SWAP3 SWAP2 SWAP1 DUP2 DUP2 MSTORE PUSH1 0x20 ADD DUP3 DUP1 SLOAD PUSH2 0x1D7 SWAP1 PUSH2 0xDC7 JUMP JUMPDEST DUP1 ISZERO PUSH2 0x222 JUMPI DUP1 PUSH1 0x1F LT PUSH2 0x1F9 JUMPI PUSH2 0x100 DUP1 DUP4 SLOAD DIV MUL DUP4 MSTORE SWAP2 PUSH1 0x20 ADD SWAP2 PUSH2 0x222 JUMP JUMPDEST DUP3 ADD SWAP2 SWAP1 PUSH0 MSTORE PUSH1 0x20 PUSH0 KECCAK256 SWAP1 JUMPDEST DUP2 SLOAD DUP2 MSTORE SWAP1 PUSH1 0x1 ADD SWAP1 PUSH1 0x20 ADD DUP1 DUP4 GT PUSH2 0x205 JUMPI DUP3 SWAP1 SUB PUSH1 0x1F AND DUP3 ADD SWAP2 JUMPDEST POP POP POP POP POP SWAP1 DUP1 PUSH1 0x2 ADD SLOAD SWAP1 DUP1 PUSH1 0x3 ADD SLOAD SWAP1 POP DUP5 JUMP JUMPDEST PUSH2 0x240 PUSH2 0x771 JUMP JUMPDEST PUSH1 0x1 PUSH0 DUP5 PUSH20 0xFFFFFFFFFFFFFFFFFFFFFFFFFFFFFFFFFFFFFFFF AND PUSH20 0xFFFFFFFFFFFFFFFFFFFFFFFFFFFFFFFFFFFFFFFF AND DUP2 MSTORE PUSH1 0x20 ADD SWAP1 DUP2 MSTORE PUSH1 0x20 ADD PUSH0 KECCAK256 DUP3 DUP2 SLOAD DUP2 LT PUSH2 0x28F JUMPI PUSH2 0x28E PUSH2 0xDF7 JUMP JUMPDEST JUMPDEST SWAP1 PUSH0 MSTORE PUSH1 0x20 PUSH0 KECCAK256 SWAP1 PUSH1 0x4 MUL ADD PUSH1 0x40 MLOAD DUP1 PUSH1 0x80 ADD PUSH1 0x40 MSTORE SWAP1 DUP2 PUSH0 DUP3 ADD PUSH0 SWAP1 SLOAD SWAP1 PUSH2 0x100 EXP SWAP1 DIV PUSH20 0xFFFFFFFFFFFFFFFFFFFFFFFFFFFFFFFFFFFFFFFF AND PUSH20 0xFFFFFFFFFFFFFFFFFFFFFFFFFFFFFFFFFFFFFFFF AND PUSH20 0xFFFFFFFFFFFFFFFFFFFFFFFFFFFFFFFFFFFFFFFF AND DUP2 MSTORE PUSH1 0x20 ADD PUSH1 0x1 DUP3 ADD DUP1 SLOAD PUSH2 0x30A SWAP1 PUSH2 0xDC7 JUMP JUMPDEST DUP1 PUSH1 0x1F ADD PUSH1 0x20 DUP1 SWAP2 DIV MUL PUSH1 0x20 ADD PUSH1 0x40 MLOAD SWAP1 DUP2 ADD PUSH1 0x40 MSTORE DUP1 SWAP3 SWAP2 SWAP1 DUP2 DUP2 MSTORE PUSH1 0x20 ADD DUP3 DUP1 SLOAD PUSH2 0x336 SWAP1 PUSH2 0xDC7 JUMP JUMPDEST DUP1 ISZERO PUSH2 0x381 JUMPI DUP1 PUSH1 0x1F LT PUSH2 0x358 JUMPI PUSH2 0x100 DUP1 DUP4 SLOAD DIV MUL DUP4 MSTORE SWAP2 PUSH1 0x20 ADD SWAP2 PUSH2 0x381 JUMP JUMPDEST DUP3 ADD SWAP2 SWAP1 PUSH0 MSTORE PUSH1 0x20 PUSH0 KECCAK256 SWAP1 JUMPDEST DUP2 SLOAD DUP2 MSTORE SWAP1 PUSH1 0x1 ADD SWAP1 PUSH1 0x20 ADD DUP1 DUP4 GT PUSH2 0x364 JUMPI DUP3 SWAP1 SUB PUSH1 0x1F AND DUP3 ADD SWAP2 JUMPDEST POP POP POP POP POP DUP2 MSTORE PUSH1 0x20 ADD PUSH1 0x2 DUP3 ADD SLOAD DUP2 MSTORE PUSH1 0x20 ADD PUSH1 0x3 DUP3 ADD SLOAD DUP2 MSTORE POP POP SWAP1 POP SWAP3 SWAP2 POP POP JUMP JUMPDEST PUSH1 0x60 PUSH1 0x1 PUSH0 DUP4 PUSH20 0xFFFFFFFFFFFFFFFFFFFFFFFFFFFFFFFFFFFFFFFF AND PUSH20 0xFFFFFFFFFFFFFFFFFFFFFFFFFFFFFFFFFFFFFFFF AND DUP2 MSTORE PUSH1 0x20 ADD SWAP1 DUP2 MSTORE PUSH1 0x20 ADD PUSH0 KECCAK256 DUP1 SLOAD DUP1 PUSH1 0x20 MUL PUSH1 0x20 ADD PUSH1 0x40 MLOAD SWAP1 DUP2 ADD PUSH1 0x40 MSTORE DUP1 SWAP3 SWAP2 SWAP1 DUP2 DUP2 MSTORE PUSH1 0x20 ADD PUSH0 SWAP1 JUMPDEST DUP3 DUP3 LT ISZERO PUSH2 0x52C JUMPI DUP4 DUP3 SWAP1 PUSH0 MSTORE PUSH1 0x20 PUSH0 KECCAK256 SWAP1 PUSH1 0x4 MUL ADD PUSH1 0x40 MLOAD DUP1 PUSH1 0x80 ADD PUSH1 0x40 MSTORE SWAP1 DUP2 PUSH0 DUP3 ADD PUSH0 SWAP1 SLOAD SWAP1 PUSH2 0x100 EXP SWAP1 DIV PUSH20 0xFFFFFFFFFFFFFFFFFFFFFFFFFFFFFFFFFFFFFFFF AND PUSH20 0xFFFFFFFFFFFFFFFFFFFFFFFFFFFFFFFFFFFFFFFF AND PUSH20 0xFFFFFFFFFFFFFFFFFFFFFFFFFFFFFFFFFFFFFFFF AND DUP2 MSTORE PUSH1 0x20 ADD PUSH1 0x1 DUP3 ADD DUP1 SLOAD PUSH2 0x489 SWAP1 PUSH2 0xDC7 JUMP JUMPDEST DUP1 PUSH1 0x1F ADD PUSH1 0x20 DUP1 SWAP2 DIV MUL PUSH1 0x20 ADD PUSH1 0x40 MLOAD SWAP1 DUP2 ADD PUSH1 0x40 MSTORE DUP1 SWAP3 SWAP2 SWAP1 DUP2 DUP2 MSTORE PUSH1 0x20 ADD DUP3 DUP1 SLOAD PUSH2 0x4B5 SWAP1 PUSH2 0xDC7 JUMP JUMPDEST DUP1 ISZERO PUSH2 0x500 JUMPI DUP1 PUSH1 0x1F LT PUSH2 0x4D7 JUMPI PUSH2 0x100 DUP1 DUP4 SLOAD DIV MUL DUP4 MSTORE SWAP2 PUSH1 0x20 ADD SWAP2 PUSH2 0x500 JUMP JUMPDEST DUP3 ADD SWAP2 SWAP1 PUSH0 MSTORE PUSH1 0x20 PUSH0 KECCAK256 SWAP1 JUMPDEST DUP2 SLOAD DUP2 MSTORE SWAP1 PUSH1 0x1 ADD SWAP1 PUSH1 0x20 ADD DUP1 DUP4 GT PUSH2 0x4E3 JUMPI DUP3 SWAP1 SUB PUSH1 0x1F AND DUP3 ADD SWAP2 JUMPDEST POP POP POP POP POP DUP2 MSTORE PUSH1 0x20 ADD PUSH1 0x2 DUP3 ADD SLOAD DUP2 MSTORE PUSH1 0x20 ADD PUSH1 0x3 DUP3 ADD SLOAD DUP2 MSTORE POP POP DUP2 MSTORE PUSH1 0x20 ADD SWAP1 PUSH1 0x1 ADD SWAP1 PUSH2 0x404 JUMP JUMPDEST POP POP POP POP SWAP1 POP SWAP2 SWAP1 POP JUMP JUMPDEST PUSH0 PUSH1 0x2 SWAP1 SLOAD SWAP1 PUSH2 0x100 EXP SWAP1 DIV PUSH20 0xFFFFFFFFFFFFFFFFFFFFFFFFFFFFFFFFFFFFFFFF AND PUSH20 0xFFFFFFFFFFFFFFFFFFFFFFFFFFFFFFFFFFFFFFFF AND CALLER PUSH20 0xFFFFFFFFFFFFFFFFFFFFFFFFFFFFFFFFFFFFFFFF AND EQ PUSH2 0x5C6 JUMPI PUSH1 0x40 MLOAD PUSH32 0x8C379A000000000000000000000000000000000000000000000000000000000 DUP2 MSTORE PUSH1 0x4 ADD PUSH2 0x5BD SWAP1 PUSH2 0xE94 JUMP JUMPDEST PUSH1 0x40 MLOAD DUP1 SWAP2 SUB SWAP1 REVERT JUMPDEST DUP1 PUSH0 PUSH0 PUSH2 0x100 EXP DUP2 SLOAD DUP2 PUSH2 0xFFFF MUL NOT AND SWAP1 DUP4 PUSH2 0xFFFF AND MUL OR SWAP1 SSTORE POP POP JUMP JUMPDEST PUSH0 PUSH0 SWAP1 SLOAD SWAP1 PUSH2 0x100 EXP SWAP1 DIV PUSH2 0xFFFF AND PUSH2 0xFFFF AND DUP2 MLOAD GT ISZERO PUSH2 0x63A JUMPI PUSH1 0x40 MLOAD PUSH32 0x8C379A000000000000000000000000000000000000000000000000000000000 DUP2 MSTORE PUSH1 0x4 ADD PUSH2 0x631 SWAP1 PUSH2 0xEFC JUMP JUMPDEST PUSH1 0x40 MLOAD DUP1 SWAP2 SUB SWAP1 REVERT JUMPDEST PUSH0 PUSH1 0x40 MLOAD DUP1 PUSH1 0x80 ADD PUSH1 0x40 MSTORE DUP1 CALLER PUSH20 0xFFFFFFFFFFFFFFFFFFFFFFFFFFFFFFFFFFFFFFFF AND DUP2 MSTORE PUSH1 0x20 ADD DUP4 DUP2 MSTORE PUSH1 0x20 ADD TIMESTAMP DUP2 MSTORE PUSH1 0x20 ADD PUSH0 DUP2 MSTORE POP SWAP1 POP PUSH1 0x1 PUSH0 CALLER PUSH20 0xFFFFFFFFFFFFFFFFFFFFFFFFFFFFFFFFFFFFFFFF AND PUSH20 0xFFFFFFFFFFFFFFFFFFFFFFFFFFFFFFFFFFFFFFFF AND DUP2 MSTORE PUSH1 0x20 ADD SWAP1 DUP2 MSTORE PUSH1 0x20 ADD PUSH0 KECCAK256 DUP2 SWAP1 DUP1 PUSH1 0x1 DUP2 SLOAD ADD DUP1 DUP3 SSTORE DUP1 SWAP2 POP POP PUSH1 0x1 SWAP1 SUB SWAP1 PUSH0 MSTORE PUSH1 0x20 PUSH0 KECCAK256 SWAP1 PUSH1 0x4 MUL ADD PUSH0 SWAP1 SWAP2 SWAP1 SWAP2 SWAP1 SWAP2 POP PUSH0 DUP3 ADD MLOAD DUP2 PUSH0 ADD PUSH0 PUSH2 0x100 EXP DUP2 SLOAD DUP2 PUSH20 0xFFFFFFFFFFFFFFFFFFFFFFFFFFFFFFFFFFFFFFFF MUL NOT AND SWAP1 DUP4 PUSH20 0xFFFFFFFFFFFFFFFFFFFFFFFFFFFFFFFFFFFFFFFF AND MUL OR SWAP1 SSTORE POP PUSH1 0x20 DUP3 ADD MLOAD DUP2 PUSH1 0x1 ADD SWAP1 DUP2 PUSH2 0x731 SWAP2 SWAP1 PUSH2 0x10BA JUMP JUMPDEST POP PUSH1 0x40 DUP3 ADD MLOAD DUP2 PUSH1 0x2 ADD SSTORE PUSH1 0x60 DUP3 ADD MLOAD DUP2 PUSH1 0x3 ADD SSTORE POP POP POP POP JUMP JUMPDEST PUSH0 PUSH1 0x2 SWAP1 SLOAD SWAP1 PUSH2 0x100 EXP SWAP1 DIV PUSH20 0xFFFFFFFFFFFFFFFFFFFFFFFFFFFFFFFFFFFFFFFF AND DUP2 JUMP JUMPDEST PUSH1 0x40 MLOAD DUP1 PUSH1 0x80 ADD PUSH1 0x40 MSTORE DUP1 PUSH0 PUSH20 0xFFFFFFFFFFFFFFFFFFFFFFFFFFFFFFFFFFFFFFFF AND DUP2 MSTORE PUSH1 0x20 ADD PUSH1 0x60 DUP2 MSTORE PUSH1 0x20 ADD PUSH0 DUP2 MSTORE PUSH1 0x20 ADD PUSH0 DUP2 MSTORE POP SWAP1 JUMP JUMPDEST PUSH0 PUSH1 0x40 MLOAD SWAP1 POP SWAP1 JUMP JUMPDEST PUSH0 PUSH0 REVERT JUMPDEST PUSH0 PUSH0 REVERT JUMPDEST PUSH0 PUSH20 0xFFFFFFFFFFFFFFFFFFFFFFFFFFFFFFFFFFFFFFFF DUP3 AND SWAP1 POP SWAP2 SWAP1 POP JUMP JUMPDEST PUSH0 PUSH2 0x7E6 DUP3 PUSH2 0x7BD JUMP JUMPDEST SWAP1 POP SWAP2 SWAP1 POP JUMP JUMPDEST PUSH2 0x7F6 DUP2 PUSH2 0x7DC JUMP JUMPDEST DUP2 EQ PUSH2 0x800 JUMPI PUSH0 PUSH0 REVERT JUMPDEST POP JUMP JUMPDEST PUSH0 DUP2 CALLDATALOAD SWAP1 POP PUSH2 0x811 DUP2 PUSH2 0x7ED JUMP JUMPDEST SWAP3 SWAP2 POP POP JUMP JUMPDEST PUSH0 DUP2 SWAP1 POP SWAP2 SWAP1 POP JUMP JUMPDEST PUSH2 0x829 DUP2 PUSH2 0x817 JUMP JUMPDEST DUP2 EQ PUSH2 0x833 JUMPI PUSH0 PUSH0 REVERT JUMPDEST POP JUMP JUMPDEST PUSH0 DUP2 CALLDATALOAD SWAP1 POP PUSH2 0x844 DUP2 PUSH2 0x820 JUMP JUMPDEST SWAP3 SWAP2 POP POP JUMP JUMPDEST PUSH0 PUSH0 PUSH1 0x40 DUP4 DUP6 SUB SLT ISZERO PUSH2 0x860 JUMPI PUSH2 0x85F PUSH2 0x7B5 JUMP JUMPDEST JUMPDEST PUSH0 PUSH2 0x86D DUP6 DUP3 DUP7 ADD PUSH2 0x803 JUMP JUMPDEST SWAP3 POP POP PUSH1 0x20 PUSH2 0x87E DUP6 DUP3 DUP7 ADD PUSH2 0x836 JUMP JUMPDEST SWAP2 POP POP SWAP3 POP SWAP3 SWAP1 POP JUMP JUMPDEST PUSH2 0x891 DUP2 PUSH2 0x7DC JUMP JUMPDEST DUP3 MSTORE POP POP JUMP JUMPDEST PUSH0 DUP2 MLOAD SWAP1 POP SWAP2 SWAP1 POP JUMP JUMPDEST PUSH0 DUP3 DUP3 MSTORE PUSH1 0x20 DUP3 ADD SWAP1 POP SWAP3 SWAP2 POP POP JUMP JUMPDEST DUP3 DUP2 DUP4 MCOPY PUSH0 DUP4 DUP4 ADD MSTORE POP POP POP JUMP JUMPDEST PUSH0 PUSH1 0x1F NOT PUSH1 0x1F DUP4 ADD AND SWAP1 POP SWAP2 SWAP1 POP JUMP JUMPDEST PUSH0 PUSH2 0x8D9 DUP3 PUSH2 0x897 JUMP JUMPDEST PUSH2 0x8E3 DUP2 DUP6 PUSH2 0x8A1 JUMP JUMPDEST SWAP4 POP PUSH2 0x8F3 DUP2 DUP6 PUSH1 0x20 DUP7 ADD PUSH2 0x8B1 JUMP JUMPDEST PUSH2 0x8FC DUP2 PUSH2 0x8BF JUMP JUMPDEST DUP5 ADD SWAP2 POP POP SWAP3 SWAP2 POP POP JUMP JUMPDEST PUSH2 0x910 DUP2 PUSH2 0x817 JUMP JUMPDEST DUP3 MSTORE POP POP JUMP JUMPDEST PUSH0 PUSH1 0x80 DUP3 ADD SWAP1 POP PUSH2 0x929 PUSH0 DUP4 ADD DUP8 PUSH2 0x888 JUMP JUMPDEST DUP2 DUP2 SUB PUSH1 0x20 DUP4 ADD MSTORE PUSH2 0x93B DUP2 DUP7 PUSH2 0x8CF JUMP JUMPDEST SWAP1 POP PUSH2 0x94A PUSH1 0x40 DUP4 ADD DUP6 PUSH2 0x907 JUMP JUMPDEST PUSH2 0x957 PUSH1 0x60 DUP4 ADD DUP5 PUSH2 0x907 JUMP JUMPDEST SWAP6 SWAP5 POP POP POP POP POP JUMP JUMPDEST PUSH2 0x969 DUP2 PUSH2 0x7DC JUMP JUMPDEST DUP3 MSTORE POP POP JUMP JUMPDEST PUSH0 DUP3 DUP3 MSTORE PUSH1 0x20 DUP3 ADD SWAP1 POP SWAP3 SWAP2 POP POP JUMP JUMPDEST PUSH0 PUSH2 0x989 DUP3 PUSH2 0x897 JUMP JUMPDEST PUSH2 0x993 DUP2 DUP6 PUSH2 0x96F JUMP JUMPDEST SWAP4 POP PUSH2 0x9A3 DUP2 DUP6 PUSH1 0x20 DUP7 ADD PUSH2 0x8B1 JUMP JUMPDEST PUSH2 0x9AC DUP2 PUSH2 0x8BF JUMP JUMPDEST DUP5 ADD SWAP2 POP POP SWAP3 SWAP2 POP POP JUMP JUMPDEST PUSH2 0x9C0 DUP2 PUSH2 0x817 JUMP JUMPDEST DUP3 MSTORE POP POP JUMP JUMPDEST PUSH0 PUSH1 0x80 DUP4 ADD PUSH0 DUP4 ADD MLOAD PUSH2 0x9DB PUSH0 DUP7 ADD DUP3 PUSH2 0x960 JUMP JUMPDEST POP PUSH1 0x20 DUP4 ADD MLOAD DUP5 DUP3 SUB PUSH1 0x20 DUP7 ADD MSTORE PUSH2 0x9F3 DUP3 DUP3 PUSH2 0x97F JUMP JUMPDEST SWAP2 POP POP PUSH1 0x40 DUP4 ADD MLOAD PUSH2 0xA08 PUSH1 0x40 DUP7 ADD DUP3 PUSH2 0x9B7 JUMP JUMPDEST POP PUSH1 0x60 DUP4 ADD MLOAD PUSH2 0xA1B PUSH1 0x60 DUP7 ADD DUP3 PUSH2 0x9B7 JUMP JUMPDEST POP DUP1 SWAP2 POP POP SWAP3 SWAP2 POP POP JUMP JUMPDEST PUSH0 PUSH1 0x20 DUP3 ADD SWAP1 POP DUP2 DUP2 SUB PUSH0 DUP4 ADD MSTORE PUSH2 0xA3E DUP2 DUP5 PUSH2 0x9C6 JUMP JUMPDEST SWAP1 POP SWAP3 SWAP2 POP POP JUMP JUMPDEST PUSH0 PUSH1 0x20 DUP3 DUP5 SUB SLT ISZERO PUSH2 0xA5B JUMPI PUSH2 0xA5A PUSH2 0x7B5 JUMP JUMPDEST JUMPDEST PUSH0 PUSH2 0xA68 DUP5 DUP3 DUP6 ADD PUSH2 0x803 JUMP JUMPDEST SWAP2 POP POP SWAP3 SWAP2 POP POP JUMP JUMPDEST PUSH0 DUP2 MLOAD SWAP1 POP SWAP2 SWAP1 POP JUMP JUMPDEST PUSH0 DUP3 DUP3 MSTORE PUSH1 0x20 DUP3 ADD SWAP1 POP SWAP3 SWAP2 POP POP JUMP JUMPDEST PUSH0 DUP2 SWAP1 POP PUSH1 0x20 DUP3 ADD SWAP1 POP SWAP2 SWAP1 POP JUMP JUMPDEST PUSH0 PUSH1 0x80 DUP4 ADD PUSH0 DUP4 ADD MLOAD PUSH2 0xAAF PUSH0 DUP7 ADD DUP3 PUSH2 0x960 JUMP JUMPDEST POP PUSH1 0x20 DUP4 ADD MLOAD DUP5 DUP3 SUB PUSH1 0x20 DUP7 ADD MSTORE PUSH2 0xAC7 DUP3 DUP3 PUSH2 0x97F JUMP JUMPDEST SWAP2 POP POP PUSH1 0x40 DUP4 ADD MLOAD PUSH2 0xADC PUSH1 0x40 DUP7 ADD DUP3 PUSH2 0x9B7 JUMP JUMPDEST POP PUSH1 0x60 DUP4 ADD MLOAD PUSH2 0xAEF PUSH1 0x60 DUP7 ADD DUP3 PUSH2 0x9B7 JUMP JUMPDEST POP DUP1 SWAP2 POP POP SWAP3 SWAP2 POP POP JUMP JUMPDEST PUSH0 PUSH2 0xB05 DUP4 DUP4 PUSH2 0xA9A JUMP JUMPDEST SWAP1 POP SWAP3 SWAP2 POP POP JUMP JUMPDEST PUSH0 PUSH1 0x20 DUP3 ADD SWAP1 POP SWAP2 SWAP1 POP JUMP JUMPDEST PUSH0 PUSH2 0xB23 DUP3 PUSH2 0xA71 JUMP JUMPDEST PUSH2 0xB2D DUP2 DUP6 PUSH2 0xA7B JUMP JUMPDEST SWAP4 POP DUP4 PUSH1 0x20 DUP3 MUL DUP6 ADD PUSH2 0xB3F DUP6 PUSH2 0xA8B JUMP JUMPDEST DUP1 PUSH0 JUMPDEST DUP6 DUP2 LT ISZERO PUSH2 0xB7A JUMPI DUP5 DUP5 SUB DUP10 MSTORE DUP2 MLOAD PUSH2 0xB5B DUP6 DUP3 PUSH2 0xAFA JUMP JUMPDEST SWAP5 POP PUSH2 0xB66 DUP4 PUSH2 0xB0D JUMP JUMPDEST SWAP3 POP PUSH1 0x20 DUP11 ADD SWAP10 POP POP PUSH1 0x1 DUP2 ADD SWAP1 POP PUSH2 0xB42 JUMP JUMPDEST POP DUP3 SWAP8 POP DUP8 SWAP6 POP POP POP POP POP POP SWAP3 SWAP2 POP POP JUMP JUMPDEST PUSH0 PUSH1 0x20 DUP3 ADD SWAP1 POP DUP2 DUP2 SUB PUSH0 DUP4 ADD MSTORE PUSH2 0xBA4 DUP2 DUP5 PUSH2 0xB19 JUMP JUMPDEST SWAP1 POP SWAP3 SWAP2 POP POP JUMP JUMPDEST PUSH0 PUSH2 0xFFFF DUP3 AND SWAP1 POP SWAP2 SWAP1 POP JUMP JUMPDEST PUSH2 0xBC2 DUP2 PUSH2 0xBAC JUMP JUMPDEST DUP2 EQ PUSH2 0xBCC JUMPI PUSH0 PUSH0 REVERT JUMPDEST POP JUMP JUMPDEST PUSH0 DUP2 CALLDATALOAD SWAP1 POP PUSH2 0xBDD DUP2 PUSH2 0xBB9 JUMP JUMPDEST SWAP3 SWAP2 POP POP JUMP JUMPDEST PUSH0 PUSH1 0x20 DUP3 DUP5 SUB SLT ISZERO PUSH2 0xBF8 JUMPI PUSH2 0xBF7 PUSH2 0x7B5 JUMP JUMPDEST JUMPDEST PUSH0 PUSH2 0xC05 DUP5 DUP3 DUP6 ADD PUSH2 0xBCF JUMP JUMPDEST SWAP2 POP POP SWAP3 SWAP2 POP POP JUMP JUMPDEST PUSH0 PUSH0 REVERT JUMPDEST PUSH0 PUSH0 REVERT JUMPDEST PUSH32 0x4E487B7100000000000000000000000000000000000000000000000000000000 PUSH0 MSTORE PUSH1 0x41 PUSH1 0x4 MSTORE PUSH1 0x24 PUSH0 REVERT JUMPDEST PUSH2 0xC4C DUP3 PUSH2 0x8BF JUMP JUMPDEST DUP2 ADD DUP2 DUP2 LT PUSH8 0xFFFFFFFFFFFFFFFF DUP3 GT OR ISZERO PUSH2 0xC6B JUMPI PUSH2 0xC6A PUSH2 0xC16 JUMP JUMPDEST JUMPDEST DUP1 PUSH1 0x40 MSTORE POP POP POP JUMP JUMPDEST PUSH0 PUSH2 0xC7D PUSH2 0x7AC JUMP JUMPDEST SWAP1 POP PUSH2 0xC89 DUP3 DUP3 PUSH2 0xC43 JUMP JUMPDEST SWAP2 SWAP1 POP JUMP JUMPDEST PUSH0 PUSH8 0xFFFFFFFFFFFFFFFF DUP3 GT ISZERO PUSH2 0xCA8 JUMPI PUSH2 0xCA7 PUSH2 0xC16 JUMP JUMPDEST JUMPDEST PUSH2 0xCB1 DUP3 PUSH2 0x8BF JUMP JUMPDEST SWAP1 POP PUSH1 0x20 DUP2 ADD SWAP1 POP SWAP2 SWAP1 POP JUMP JUMPDEST DUP3 DUP2 DUP4 CALLDATACOPY PUSH0 DUP4 DUP4 ADD MSTORE POP POP POP JUMP JUMPDEST PUSH0 PUSH2 0xCDE PUSH2 0xCD9 DUP5 PUSH2 0xC8E JUMP JUMPDEST PUSH2 0xC74 JUMP JUMPDEST SWAP1 POP DUP3 DUP2 MSTORE PUSH1 0x20 DUP2 ADD DUP5 DUP5 DUP5 ADD GT ISZERO PUSH2 0xCFA JUMPI PUSH2 0xCF9 PUSH2 0xC12 JUMP JUMPDEST JUMPDEST PUSH2 0xD05 DUP5 DUP3 DUP6 PUSH2 0xCBE JUMP JUMPDEST POP SWAP4 SWAP3 POP POP POP JUMP JUMPDEST PUSH0 DUP3 PUSH1 0x1F DUP4 ADD SLT PUSH2 0xD21 JUMPI PUSH2 0xD20 PUSH2 0xC0E JUMP JUMPDEST JUMPDEST DUP2 CALLDATALOAD PUSH2 0xD31 DUP5 DUP3 PUSH1 0x20 DUP7 ADD PUSH2 0xCCC JUMP JUMPDEST SWAP2 POP POP SWAP3 SWAP2 POP POP JUMP JUMPDEST PUSH0 PUSH1 0x20 DUP3 DUP5 SUB SLT ISZERO PUSH2 0xD4F JUMPI PUSH2 0xD4E PUSH2 0x7B5 JUMP JUMPDEST JUMPDEST PUSH0 DUP3 ADD CALLDATALOAD PUSH8 0xFFFFFFFFFFFFFFFF DUP2 GT ISZERO PUSH2 0xD6C JUMPI PUSH2 0xD6B PUSH2 0x7B9 JUMP JUMPDEST JUMPDEST PUSH2 0xD78 DUP5 DUP3 DUP6 ADD PUSH2 0xD0D JUMP JUMPDEST SWAP2 POP POP SWAP3 SWAP2 POP POP JUMP JUMPDEST PUSH0 PUSH1 0x20 DUP3 ADD SWAP1 POP PUSH2 0xD94 PUSH0 DUP4 ADD DUP5 PUSH2 0x888 JUMP JUMPDEST SWAP3 SWAP2 POP POP JUMP JUMPDEST PUSH32 0x4E487B7100000000000000000000000000000000000000000000000000000000 PUSH0 MSTORE PUSH1 0x22 PUSH1 0x4 MSTORE PUSH1 0x24 PUSH0 REVERT JUMPDEST PUSH0 PUSH1 0x2 DUP3 DIV SWAP1 POP PUSH1 0x1 DUP3 AND DUP1 PUSH2 0xDDE JUMPI PUSH1 0x7F DUP3 AND SWAP2 POP JUMPDEST PUSH1 0x20 DUP3 LT DUP2 SUB PUSH2 0xDF1 JUMPI PUSH2 0xDF0 PUSH2 0xD9A JUMP JUMPDEST JUMPDEST POP SWAP2 SWAP1 POP JUMP JUMPDEST PUSH32 0x4E487B7100000000000000000000000000000000000000000000000000000000 PUSH0 MSTORE PUSH1 0x32 PUSH1 0x4 MSTORE PUSH1 0x24 PUSH0 REVERT JUMPDEST PUSH32 0x4F6E6C79206F776E6572206F662074686520636F6E74726163742063616E2070 PUSH0 DUP3 ADD MSTORE PUSH32 0x6572666F726D207468697320616374696F6E2E00000000000000000000000000 PUSH1 0x20 DUP3 ADD MSTORE POP JUMP JUMPDEST PUSH0 PUSH2 0xE7E PUSH1 0x33 DUP4 PUSH2 0x8A1 JUMP JUMPDEST SWAP2 POP PUSH2 0xE89 DUP3 PUSH2 0xE24 JUMP JUMPDEST PUSH1 0x40 DUP3 ADD SWAP1 POP SWAP2 SWAP1 POP JUMP JUMPDEST PUSH0 PUSH1 0x20 DUP3 ADD SWAP1 POP DUP2 DUP2 SUB PUSH0 DUP4 ADD MSTORE PUSH2 0xEAB DUP2 PUSH2 0xE72 JUMP JUMPDEST SWAP1 POP SWAP2 SWAP1 POP JUMP JUMPDEST PUSH32 0x594F55275645205245414348454420544845205457454554204C494D49542100 PUSH0 DUP3 ADD MSTORE POP JUMP JUMPDEST PUSH0 PUSH2 0xEE6 PUSH1 0x1F DUP4 PUSH2 0x8A1 JUMP JUMPDEST SWAP2 POP PUSH2 0xEF1 DUP3 PUSH2 0xEB2 JUMP JUMPDEST PUSH1 0x20 DUP3 ADD SWAP1 POP SWAP2 SWAP1 POP JUMP JUMPDEST PUSH0 PUSH1 0x20 DUP3 ADD SWAP1 POP DUP2 DUP2 SUB PUSH0 DUP4 ADD MSTORE PUSH2 0xF13 DUP2 PUSH2 0xEDA JUMP JUMPDEST SWAP1 POP SWAP2 SWAP1 POP JUMP JUMPDEST PUSH0 DUP2 SWAP1 POP DUP2 PUSH0 MSTORE PUSH1 0x20 PUSH0 KECCAK256 SWAP1 POP SWAP2 SWAP1 POP JUMP JUMPDEST PUSH0 PUSH1 0x20 PUSH1 0x1F DUP4 ADD DIV SWAP1 POP SWAP2 SWAP1 POP JUMP JUMPDEST PUSH0 DUP3 DUP3 SHL SWAP1 POP SWAP3 SWAP2 POP POP JUMP JUMPDEST PUSH0 PUSH1 0x8 DUP4 MUL PUSH2 0xF76 PUSH32 0xFFFFFFFFFFFFFFFFFFFFFFFFFFFFFFFFFFFFFFFFFFFFFFFFFFFFFFFFFFFFFFFF DUP3 PUSH2 0xF3B JUMP JUMPDEST PUSH2 0xF80 DUP7 DUP4 PUSH2 0xF3B JUMP JUMPDEST SWAP6 POP DUP1 NOT DUP5 AND SWAP4 POP DUP1 DUP7 AND DUP5 OR SWAP3 POP POP POP SWAP4 SWAP3 POP POP POP JUMP JUMPDEST PUSH0 DUP2 SWAP1 POP SWAP2 SWAP1 POP JUMP JUMPDEST PUSH0 PUSH2 0xFBB PUSH2 0xFB6 PUSH2 0xFB1 DUP5 PUSH2 0x817 JUMP JUMPDEST PUSH2 0xF98 JUMP JUMPDEST PUSH2 0x817 JUMP JUMPDEST SWAP1 POP SWAP2 SWAP1 POP JUMP JUMPDEST PUSH0 DUP2 SWAP1 POP SWAP2 SWAP1 POP JUMP JUMPDEST PUSH2 0xFD4 DUP4 PUSH2 0xFA1 JUMP JUMPDEST PUSH2 0xFE8 PUSH2 0xFE0 DUP3 PUSH2 0xFC2 JUMP JUMPDEST DUP5 DUP5 SLOAD PUSH2 0xF47 JUMP JUMPDEST DUP3 SSTORE POP POP POP POP JUMP JUMPDEST PUSH0 PUSH0 SWAP1 POP SWAP1 JUMP JUMPDEST PUSH2 0xFFF PUSH2 0xFF0 JUMP JUMPDEST PUSH2 0x100A DUP2 DUP5 DUP5 PUSH2 0xFCB JUMP JUMPDEST POP POP POP JUMP JUMPDEST JUMPDEST DUP2 DUP2 LT ISZERO PUSH2 0x102D JUMPI PUSH2 0x1022 PUSH0 DUP3 PUSH2 0xFF7 JUMP JUMPDEST PUSH1 0x1 DUP2 ADD SWAP1 POP PUSH2 0x1010 JUMP JUMPDEST POP POP JUMP JUMPDEST PUSH1 0x1F DUP3 GT ISZERO PUSH2 0x1072 JUMPI PUSH2 0x1043 DUP2 PUSH2 0xF1A JUMP JUMPDEST PUSH2 0x104C DUP5 PUSH2 0xF2C JUMP JUMPDEST DUP2 ADD PUSH1 0x20 DUP6 LT ISZERO PUSH2 0x105B JUMPI DUP2 SWAP1 POP JUMPDEST PUSH2 0x106F PUSH2 0x1067 DUP6 PUSH2 0xF2C JUMP JUMPDEST DUP4 ADD DUP3 PUSH2 0x100F JUMP JUMPDEST POP POP JUMPDEST POP POP POP JUMP JUMPDEST PUSH0 DUP3 DUP3 SHR SWAP1 POP SWAP3 SWAP2 POP POP JUMP JUMPDEST PUSH0 PUSH2 0x1092 PUSH0 NOT DUP5 PUSH1 0x8 MUL PUSH2 0x1077 JUMP JUMPDEST NOT DUP1 DUP4 AND SWAP2 POP POP SWAP3 SWAP2 POP POP JUMP JUMPDEST PUSH0 PUSH2 0x10AA DUP4 DUP4 PUSH2 0x1083 JUMP JUMPDEST SWAP2 POP DUP3 PUSH1 0x2 MUL DUP3 OR SWAP1 POP SWAP3 SWAP2 POP POP JUMP JUMPDEST PUSH2 0x10C3 DUP3 PUSH2 0x897 JUMP JUMPDEST PUSH8 0xFFFFFFFFFFFFFFFF DUP2 GT ISZERO PUSH2 0x10DC JUMPI PUSH2 0x10DB PUSH2 0xC16 JUMP JUMPDEST JUMPDEST PUSH2 0x10E6 DUP3 SLOAD PUSH2 0xDC7 JUMP JUMPDEST PUSH2 0x10F1 DUP3 DUP3 DUP6 PUSH2 0x1031 JUMP JUMPDEST PUSH0 PUSH1 0x20 SWAP1 POP PUSH1 0x1F DUP4 GT PUSH1 0x1 DUP2 EQ PUSH2 0x1122 JUMPI PUSH0 DUP5 ISZERO PUSH2 0x1110 JUMPI DUP3 DUP8 ADD MLOAD SWAP1 POP JUMPDEST PUSH2 0x111A DUP6 DUP3 PUSH2 0x109F JUMP JUMPDEST DUP7 SSTORE POP PUSH2 0x1181 JUMP JUMPDEST PUSH1 0x1F NOT DUP5 AND PUSH2 0x1130 DUP7 PUSH2 0xF1A JUMP JUMPDEST PUSH0 JUMPDEST DUP3 DUP2 LT ISZERO PUSH2 0x1157 JUMPI DUP5 DUP10 ADD MLOAD DUP3 SSTORE PUSH1 0x1 DUP3 ADD SWAP2 POP PUSH1 0x20 DUP6 ADD SWAP5 POP PUSH1 0x20 DUP2 ADD SWAP1 POP PUSH2 0x1132 JUMP JUMPDEST DUP7 DUP4 LT ISZERO PUSH2 0x1174 JUMPI DUP5 DUP10 ADD MLOAD PUSH2 0x1170 PUSH1 0x1F DUP10 AND DUP3 PUSH2 0x1083 JUMP JUMPDEST DUP4 SSTORE POP JUMPDEST PUSH1 0x1 PUSH1 0x2 DUP9 MUL ADD DUP9 SSTORE POP POP POP JUMPDEST POP POP POP POP POP POP JUMP INVALID LOG2 PUSH5 0x6970667358 0x22 SLT KECCAK256 0xB2 SLT 0xBE 0xC3 SWAP3 RETURNDATACOPY SHL 0xD4 NOT SWAP15 0xDB 0xC9 XOR 0xB6 JUMPI STATICCALL 0xC2 SWAPN 0x9 0x23 0xC2 PREVRANDAO 0xC0 MLOAD 0xC7 JUMPF 0xCB48 0xC4 RETURNDATASIZE PUSH23 0xC664736F6C634300081E00330000000000000000000000 "
				},
				"gasEstimates": {
					"creation": {
						"codeDepositCost": "908600",
						"executionCost": "49520",
						"totalCost": "958120"
					},
					"external": {
						"changeTweetLength(uint16)": "26935",
						"createTweet(string)": "infinite",
						"getAllTweets(address)": "infinite",
						"getTweet(address,uint256)": "infinite",
						"owner()": "2646",
						"tweets(address,uint256)": "infinite"
					}
				},
				"methodIdentifiers": {
					"changeTweetLength(uint16)": "58bfa4ab",
					"createTweet(string)": "7c9cd2bc",
					"getAllTweets(address)": "12e7ee1c",
					"getTweet(address,uint256)": "112f54e3",
					"owner()": "8da5cb5b",
					"tweets(address,uint256)": "05a1b4a9"
				}
			},
			"storageLayout": {
				"storage": [
					{
						"astId": 4,
						"contract": "contracts/Twitter.sol:Twitter",
						"label": "MAX_LIMIT",
						"offset": 0,
						"slot": "0",
						"type": "t_uint16"
					},
					{
						"astId": 6,
						"contract": "contracts/Twitter.sol:Twitter",
						"label": "owner",
						"offset": 2,
						"slot": "0",
						"type": "t_address"
					},
					{
						"astId": 30,
						"contract": "contracts/Twitter.sol:Twitter",
						"label": "tweets",
						"offset": 0,
						"slot": "1",
						"type": "t_mapping(t_address,t_array(t_struct(Tweet)24_storage)dyn_storage)"
					}
				],
				"types": {
					"t_address": {
						"encoding": "inplace",
						"label": "address",
						"numberOfBytes": "20"
					},
					"t_array(t_struct(Tweet)24_storage)dyn_storage": {
						"base": "t_struct(Tweet)24_storage",
						"encoding": "dynamic_array",
						"label": "struct Twitter.Tweet[]",
						"numberOfBytes": "32"
					},
					"t_mapping(t_address,t_array(t_struct(Tweet)24_storage)dyn_storage)": {
						"encoding": "mapping",
						"key": "t_address",
						"label": "mapping(address => struct Twitter.Tweet[])",
						"numberOfBytes": "32",
						"value": "t_array(t_struct(Tweet)24_storage)dyn_storage"
					},
					"t_string_storage": {
						"encoding": "bytes",
						"label": "string",
						"numberOfBytes": "32"
					},
					"t_struct(Tweet)24_storage": {
						"encoding": "inplace",
						"label": "struct Twitter.Tweet",
						"members": [
							{
								"astId": 17,
								"contract": "contracts/Twitter.sol:Twitter",
								"label": "author",
								"offset": 0,
								"slot": "0",
								"type": "t_address"
							},
							{
								"astId": 19,
								"contract": "contracts/Twitter.sol:Twitter",
								"label": "content",
								"offset": 0,
								"slot": "1",
								"type": "t_string_storage"
							},
							{
								"astId": 21,
								"contract": "contracts/Twitter.sol:Twitter",
								"label": "timestamp",
								"offset": 0,
								"slot": "2",
								"type": "t_uint256"
							},
							{
								"astId": 23,
								"contract": "contracts/Twitter.sol:Twitter",
								"label": "likes",
								"offset": 0,
								"slot": "3",
								"type": "t_uint256"
							}
						],
						"numberOfBytes": "128"
					},
					"t_uint16": {
						"encoding": "inplace",
						"label": "uint16",
						"numberOfBytes": "2"
					},
					"t_uint256": {
						"encoding": "inplace",
						"label": "uint256",
						"numberOfBytes": "32"
					}
				}
			},
			"userdoc": {
				"kind": "user",
				"methods": {},
				"version": 1
			}
		}
	}
}