{
	"contracts/Twitter.sol": {
		"Twitter": {
			"abi": [
				{
					"inputs": [
						{
							"internalType": "string",
							"name": "_tweet",
							"type": "string"
						}
					],
					"name": "createTweet",
					"outputs": [],
					"stateMutability": "nonpayable",
					"type": "function"
				},
				{
					"inputs": [
						{
							"internalType": "address",
							"name": "_owner",
							"type": "address"
						}
					],
					"name": "getAllTweets",
					"outputs": [
						{
							"components": [
								{
									"internalType": "address",
									"name": "author",
									"type": "address"
								},
								{
									"internalType": "string",
									"name": "content",
									"type": "string"
								},
								{
									"internalType": "uint256",
									"name": "timestamp",
									"type": "uint256"
								},
								{
									"internalType": "uint256",
									"name": "likes",
									"type": "uint256"
								}
							],
							"internalType": "struct Twitter.Tweet[]",
							"name": "",
							"type": "tuple[]"
						}
					],
					"stateMutability": "view",
					"type": "function"
				},
				{
					"inputs": [
						{
							"internalType": "address",
							"name": "_owner",
							"type": "address"
						},
						{
							"internalType": "uint256",
							"name": "_i",
							"type": "uint256"
						}
					],
					"name": "getTweet",
					"outputs": [
						{
							"components": [
								{
									"internalType": "address",
									"name": "author",
									"type": "address"
								},
								{
									"internalType": "string",
									"name": "content",
									"type": "string"
								},
								{
									"internalType": "uint256",
									"name": "timestamp",
									"type": "uint256"
								},
								{
									"internalType": "uint256",
									"name": "likes",
									"type": "uint256"
								}
							],
							"internalType": "struct Twitter.Tweet",
							"name": "",
							"type": "tuple"
						}
					],
					"stateMutability": "view",
					"type": "function"
				},
				{
					"inputs": [
						{
							"internalType": "address",
							"name": "",
							"type": "address"
						},
						{
							"internalType": "uint256",
							"name": "",
							"type": "uint256"
						}
					],
					"name": "tweets",
					"outputs": [
						{
							"internalType": "address",
							"name": "author",
							"type": "address"
						},
						{
							"internalType": "string",
							"name": "content",
							"type": "string"
						},
						{
							"internalType": "uint256",
							"name": "timestamp",
							"type": "uint256"
						},
						{
							"internalType": "uint256",
							"name": "likes",
							"type": "uint256"
						}
					],
					"stateMutability": "view",
					"type": "function"
				}
			],
			"devdoc": {
				"kind": "dev",
				"methods": {},
				"version": 1
			},
			"evm": {
				"assembly": "    /* \"contracts/Twitter.sol\":198:1095  contract Twitter {... */\n  mstore(0x40, 0x80)\n  callvalue\n  dup1\n  iszero\n  tag_1\n  jumpi\n  revert(0x00, 0x00)\ntag_1:\n  pop\n  dataSize(sub_0)\n  dup1\n  dataOffset(sub_0)\n  0x00\n  codecopy\n  0x00\n  return\nstop\n\nsub_0: assembly {\n        /* \"contracts/Twitter.sol\":198:1095  contract Twitter {... */\n      mstore(0x40, 0x80)\n      callvalue\n      dup1\n      iszero\n      tag_1\n      jumpi\n      revert(0x00, 0x00)\n    tag_1:\n      pop\n      jumpi(tag_2, lt(calldatasize, 0x04))\n      shr(0xe0, calldataload(0x00))\n      dup1\n      0x05a1b4a9\n      eq\n      tag_3\n      jumpi\n      dup1\n      0x112f54e3\n      eq\n      tag_4\n      jumpi\n      dup1\n      0x12e7ee1c\n      eq\n      tag_5\n      jumpi\n      dup1\n      0x7c9cd2bc\n      eq\n      tag_6\n      jumpi\n    tag_2:\n      revert(0x00, 0x00)\n        /* \"contracts/Twitter.sol\":395:436  mapping(address => Tweet[]) public tweets */\n    tag_3:\n      tag_7\n      0x04\n      dup1\n      calldatasize\n      sub\n      dup2\n      add\n      swap1\n      tag_8\n      swap2\n      swap1\n      tag_9\n      jump\t// in\n    tag_8:\n      tag_10\n      jump\t// in\n    tag_7:\n      mload(0x40)\n      tag_11\n      swap5\n      swap4\n      swap3\n      swap2\n      swap1\n      tag_12\n      jump\t// in\n    tag_11:\n      mload(0x40)\n      dup1\n      swap2\n      sub\n      swap1\n      return\n        /* \"contracts/Twitter.sol\":836:961  function getTweet(address _owner, uint256 _i) public view returns (Tweet memory) {... */\n    tag_4:\n      tag_13\n      0x04\n      dup1\n      calldatasize\n      sub\n      dup2\n      add\n      swap1\n      tag_14\n      swap2\n      swap1\n      tag_9\n      jump\t// in\n    tag_14:\n      tag_15\n      jump\t// in\n    tag_13:\n      mload(0x40)\n      tag_16\n      swap2\n      swap1\n      tag_17\n      jump\t// in\n    tag_16:\n      mload(0x40)\n      dup1\n      swap2\n      sub\n      swap1\n      return\n        /* \"contracts/Twitter.sol\":969:1084  function getAllTweets(address _owner) public view returns (Tweet[] memory) {... */\n    tag_5:\n      tag_18\n      0x04\n      dup1\n      calldatasize\n      sub\n      dup2\n      add\n      swap1\n      tag_19\n      swap2\n      swap1\n      tag_20\n      jump\t// in\n    tag_19:\n      tag_21\n      jump\t// in\n    tag_18:\n      mload(0x40)\n      tag_22\n      swap2\n      swap1\n      tag_23\n      jump\t// in\n    tag_22:\n      mload(0x40)\n      dup1\n      swap2\n      sub\n      swap1\n      return\n        /* \"contracts/Twitter.sol\":445:828  function createTweet(string memory _tweet) public {... */\n    tag_6:\n      tag_24\n      0x04\n      dup1\n      calldatasize\n      sub\n      dup2\n      add\n      swap1\n      tag_25\n      swap2\n      swap1\n      tag_26\n      jump\t// in\n    tag_25:\n      tag_27\n      jump\t// in\n    tag_24:\n      stop\n        /* \"contracts/Twitter.sol\":395:436  mapping(address => Tweet[]) public tweets */\n    tag_10:\n      mstore(0x20, 0x00)\n      dup2\n      0x00\n      mstore\n      keccak256(0x00, 0x40)\n      dup2\n      dup2\n      sload\n      dup2\n      lt\n      tag_28\n      jumpi\n      0x00\n      dup1\n      revert\n    tag_28:\n      swap1\n      0x00\n      mstore\n      keccak256(0x00, 0x20)\n      swap1\n      0x04\n      mul\n      add\n      0x00\n      swap2\n      pop\n      swap2\n      pop\n      pop\n      dup1\n      0x00\n      add\n      0x00\n      swap1\n      sload\n      swap1\n      0x0100\n      exp\n      swap1\n      div\n      0xffffffffffffffffffffffffffffffffffffffff\n      and\n      swap1\n      dup1\n      0x01\n      add\n      dup1\n      sload\n      tag_30\n      swap1\n      tag_31\n      jump\t// in\n    tag_30:\n      dup1\n      0x1f\n      add\n      0x20\n      dup1\n      swap2\n      div\n      mul\n      0x20\n      add\n      mload(0x40)\n      swap1\n      dup2\n      add\n      0x40\n      mstore\n      dup1\n      swap3\n      swap2\n      swap1\n      dup2\n      dup2\n      mstore\n      0x20\n      add\n      dup3\n      dup1\n      sload\n      tag_32\n      swap1\n      tag_31\n      jump\t// in\n    tag_32:\n      dup1\n      iszero\n      tag_33\n      jumpi\n      dup1\n      0x1f\n      lt\n      tag_34\n      jumpi\n      0x0100\n      dup1\n      dup4\n      sload\n      div\n      mul\n      dup4\n      mstore\n      swap2\n      0x20\n      add\n      swap2\n      jump(tag_33)\n    tag_34:\n      dup3\n      add\n      swap2\n      swap1\n      0x00\n      mstore\n      keccak256(0x00, 0x20)\n      swap1\n    tag_35:\n      dup2\n      sload\n      dup2\n      mstore\n      swap1\n      0x01\n      add\n      swap1\n      0x20\n      add\n      dup1\n      dup4\n      gt\n      tag_35\n      jumpi\n      dup3\n      swap1\n      sub\n      0x1f\n      and\n      dup3\n      add\n      swap2\n    tag_33:\n      pop\n      pop\n      pop\n      pop\n      pop\n      swap1\n      dup1\n      0x02\n      add\n      sload\n      swap1\n      dup1\n      0x03\n      add\n      sload\n      swap1\n      pop\n      dup5\n      jump\t// out\n        /* \"contracts/Twitter.sol\":836:961  function getTweet(address _owner, uint256 _i) public view returns (Tweet memory) {... */\n    tag_15:\n        /* \"contracts/Twitter.sol\":903:915  Tweet memory */\n      tag_36\n      tag_37\n      jump\t// in\n    tag_36:\n        /* \"contracts/Twitter.sol\":935:941  tweets */\n      0x00\n        /* \"contracts/Twitter.sol\":935:949  tweets[_owner] */\n      0x00\n        /* \"contracts/Twitter.sol\":942:948  _owner */\n      dup5\n        /* \"contracts/Twitter.sol\":935:949  tweets[_owner] */\n      0xffffffffffffffffffffffffffffffffffffffff\n      and\n      0xffffffffffffffffffffffffffffffffffffffff\n      and\n      dup2\n      mstore\n      0x20\n      add\n      swap1\n      dup2\n      mstore\n      0x20\n      add\n      0x00\n      keccak256\n        /* \"contracts/Twitter.sol\":950:952  _i */\n      dup3\n        /* \"contracts/Twitter.sol\":935:953  tweets[_owner][_i] */\n      dup2\n      sload\n      dup2\n      lt\n      tag_39\n      jumpi\n      tag_40\n      tag_41\n      jump\t// in\n    tag_40:\n    tag_39:\n      swap1\n      0x00\n      mstore\n      keccak256(0x00, 0x20)\n      swap1\n      0x04\n      mul\n      add\n        /* \"contracts/Twitter.sol\":928:953  return tweets[_owner][_i] */\n      mload(0x40)\n      dup1\n      0x80\n      add\n      0x40\n      mstore\n      swap1\n      dup2\n      0x00\n      dup3\n      add\n      0x00\n      swap1\n      sload\n      swap1\n      0x0100\n      exp\n      swap1\n      div\n      0xffffffffffffffffffffffffffffffffffffffff\n      and\n      0xffffffffffffffffffffffffffffffffffffffff\n      and\n      0xffffffffffffffffffffffffffffffffffffffff\n      and\n      dup2\n      mstore\n      0x20\n      add\n      0x01\n      dup3\n      add\n      dup1\n      sload\n      tag_43\n      swap1\n      tag_31\n      jump\t// in\n    tag_43:\n      dup1\n      0x1f\n      add\n      0x20\n      dup1\n      swap2\n      div\n      mul\n      0x20\n      add\n      mload(0x40)\n      swap1\n      dup2\n      add\n      0x40\n      mstore\n      dup1\n      swap3\n      swap2\n      swap1\n      dup2\n      dup2\n      mstore\n      0x20\n      add\n      dup3\n      dup1\n      sload\n      tag_44\n      swap1\n      tag_31\n      jump\t// in\n    tag_44:\n      dup1\n      iszero\n      tag_45\n      jumpi\n      dup1\n      0x1f\n      lt\n      tag_46\n      jumpi\n      0x0100\n      dup1\n      dup4\n      sload\n      div\n      mul\n      dup4\n      mstore\n      swap2\n      0x20\n      add\n      swap2\n      jump(tag_45)\n    tag_46:\n      dup3\n      add\n      swap2\n      swap1\n      0x00\n      mstore\n      keccak256(0x00, 0x20)\n      swap1\n    tag_47:\n      dup2\n      sload\n      dup2\n      mstore\n      swap1\n      0x01\n      add\n      swap1\n      0x20\n      add\n      dup1\n      dup4\n      gt\n      tag_47\n      jumpi\n      dup3\n      swap1\n      sub\n      0x1f\n      and\n      dup3\n      add\n      swap2\n    tag_45:\n      pop\n      pop\n      pop\n      pop\n      pop\n      dup2\n      mstore\n      0x20\n      add\n      0x02\n      dup3\n      add\n      sload\n      dup2\n      mstore\n      0x20\n      add\n      0x03\n      dup3\n      add\n      sload\n      dup2\n      mstore\n      pop\n      pop\n      swap1\n      pop\n        /* \"contracts/Twitter.sol\":836:961  function getTweet(address _owner, uint256 _i) public view returns (Tweet memory) {... */\n      swap3\n      swap2\n      pop\n      pop\n      jump\t// out\n        /* \"contracts/Twitter.sol\":969:1084  function getAllTweets(address _owner) public view returns (Tweet[] memory) {... */\n    tag_21:\n        /* \"contracts/Twitter.sol\":1028:1042  Tweet[] memory */\n      0x60\n        /* \"contracts/Twitter.sol\":1062:1068  tweets */\n      0x00\n        /* \"contracts/Twitter.sol\":1062:1076  tweets[_owner] */\n      0x00\n        /* \"contracts/Twitter.sol\":1069:1075  _owner */\n      dup4\n        /* \"contracts/Twitter.sol\":1062:1076  tweets[_owner] */\n      0xffffffffffffffffffffffffffffffffffffffff\n      and\n      0xffffffffffffffffffffffffffffffffffffffff\n      and\n      dup2\n      mstore\n      0x20\n      add\n      swap1\n      dup2\n      mstore\n      0x20\n      add\n      0x00\n      keccak256\n        /* \"contracts/Twitter.sol\":1055:1076  return tweets[_owner] */\n      dup1\n      sload\n      dup1\n      0x20\n      mul\n      0x20\n      add\n      mload(0x40)\n      swap1\n      dup2\n      add\n      0x40\n      mstore\n      dup1\n      swap3\n      swap2\n      swap1\n      dup2\n      dup2\n      mstore\n      0x20\n      add\n      0x00\n      swap1\n    tag_49:\n      dup3\n      dup3\n      lt\n      iszero\n      tag_50\n      jumpi\n      dup4\n      dup3\n      swap1\n      0x00\n      mstore\n      keccak256(0x00, 0x20)\n      swap1\n      0x04\n      mul\n      add\n      mload(0x40)\n      dup1\n      0x80\n      add\n      0x40\n      mstore\n      swap1\n      dup2\n      0x00\n      dup3\n      add\n      0x00\n      swap1\n      sload\n      swap1\n      0x0100\n      exp\n      swap1\n      div\n      0xffffffffffffffffffffffffffffffffffffffff\n      and\n      0xffffffffffffffffffffffffffffffffffffffff\n      and\n      0xffffffffffffffffffffffffffffffffffffffff\n      and\n      dup2\n      mstore\n      0x20\n      add\n      0x01\n      dup3\n      add\n      dup1\n      sload\n      tag_52\n      swap1\n      tag_31\n      jump\t// in\n    tag_52:\n      dup1\n      0x1f\n      add\n      0x20\n      dup1\n      swap2\n      div\n      mul\n      0x20\n      add\n      mload(0x40)\n      swap1\n      dup2\n      add\n      0x40\n      mstore\n      dup1\n      swap3\n      swap2\n      swap1\n      dup2\n      dup2\n      mstore\n      0x20\n      add\n      dup3\n      dup1\n      sload\n      tag_53\n      swap1\n      tag_31\n      jump\t// in\n    tag_53:\n      dup1\n      iszero\n      tag_54\n      jumpi\n      dup1\n      0x1f\n      lt\n      tag_55\n      jumpi\n      0x0100\n      dup1\n      dup4\n      sload\n      div\n      mul\n      dup4\n      mstore\n      swap2\n      0x20\n      add\n      swap2\n      jump(tag_54)\n    tag_55:\n      dup3\n      add\n      swap2\n      swap1\n      0x00\n      mstore\n      keccak256(0x00, 0x20)\n      swap1\n    tag_56:\n      dup2\n      sload\n      dup2\n      mstore\n      swap1\n      0x01\n      add\n      swap1\n      0x20\n      add\n      dup1\n      dup4\n      gt\n      tag_56\n      jumpi\n      dup3\n      swap1\n      sub\n      0x1f\n      and\n      dup3\n      add\n      swap2\n    tag_54:\n      pop\n      pop\n      pop\n      pop\n      pop\n      dup2\n      mstore\n      0x20\n      add\n      0x02\n      dup3\n      add\n      sload\n      dup2\n      mstore\n      0x20\n      add\n      0x03\n      dup3\n      add\n      sload\n      dup2\n      mstore\n      pop\n      pop\n      dup2\n      mstore\n      0x20\n      add\n      swap1\n      0x01\n      add\n      swap1\n      jump(tag_49)\n    tag_50:\n      pop\n      pop\n      pop\n      pop\n      swap1\n      pop\n        /* \"contracts/Twitter.sol\":969:1084  function getAllTweets(address _owner) public view returns (Tweet[] memory) {... */\n      swap2\n      swap1\n      pop\n      jump\t// out\n        /* \"contracts/Twitter.sol\":445:828  function createTweet(string memory _tweet) public {... */\n    tag_27:\n        /* \"contracts/Twitter.sol\":252:255  250 */\n      0xfa\n        /* \"contracts/Twitter.sol\":514:548  bytes (_tweet).length <= MAX_LIMIT */\n      0xffff\n      and\n        /* \"contracts/Twitter.sol\":521:527  _tweet */\n      dup2\n        /* \"contracts/Twitter.sol\":514:535  bytes (_tweet).length */\n      mload\n        /* \"contracts/Twitter.sol\":514:548  bytes (_tweet).length <= MAX_LIMIT */\n      gt\n      iszero\n        /* \"contracts/Twitter.sol\":506:584  require(bytes (_tweet).length <= MAX_LIMIT, \"YOU'VE REACHED THE TWEET LIMIT!\") */\n      tag_58\n      jumpi\n      mload(0x40)\n      0x08c379a000000000000000000000000000000000000000000000000000000000\n      dup2\n      mstore\n      0x04\n      add\n      tag_59\n      swap1\n      tag_60\n      jump\t// in\n    tag_59:\n      mload(0x40)\n      dup1\n      swap2\n      sub\n      swap1\n      revert\n    tag_58:\n        /* \"contracts/Twitter.sol\":605:626  Tweet memory newTweet */\n      0x00\n        /* \"contracts/Twitter.sol\":629:774  Tweet({... */\n      mload(0x40)\n      dup1\n      0x80\n      add\n      0x40\n      mstore\n      dup1\n        /* \"contracts/Twitter.sol\":658:668  msg.sender */\n      caller\n        /* \"contracts/Twitter.sol\":629:774  Tweet({... */\n      0xffffffffffffffffffffffffffffffffffffffff\n      and\n      dup2\n      mstore\n      0x20\n      add\n        /* \"contracts/Twitter.sol\":692:698  _tweet */\n      dup4\n        /* \"contracts/Twitter.sol\":629:774  Tweet({... */\n      dup2\n      mstore\n      0x20\n      add\n        /* \"contracts/Twitter.sol\":724:739  block.timestamp */\n      timestamp\n        /* \"contracts/Twitter.sol\":629:774  Tweet({... */\n      dup2\n      mstore\n      0x20\n      add\n        /* \"contracts/Twitter.sol\":761:762  0 */\n      0x00\n        /* \"contracts/Twitter.sol\":629:774  Tweet({... */\n      dup2\n      mstore\n      pop\n        /* \"contracts/Twitter.sol\":605:774  Tweet memory newTweet = Tweet({... */\n      swap1\n      pop\n        /* \"contracts/Twitter.sol\":787:793  tweets */\n      0x00\n        /* \"contracts/Twitter.sol\":787:805  tweets[msg.sender] */\n      0x00\n        /* \"contracts/Twitter.sol\":794:804  msg.sender */\n      caller\n        /* \"contracts/Twitter.sol\":787:805  tweets[msg.sender] */\n      0xffffffffffffffffffffffffffffffffffffffff\n      and\n      0xffffffffffffffffffffffffffffffffffffffff\n      and\n      dup2\n      mstore\n      0x20\n      add\n      swap1\n      dup2\n      mstore\n      0x20\n      add\n      0x00\n      keccak256\n        /* \"contracts/Twitter.sol\":811:819  newTweet */\n      dup2\n        /* \"contracts/Twitter.sol\":787:820  tweets[msg.sender].push(newTweet) */\n      swap1\n      dup1\n      0x01\n      dup2\n      sload\n      add\n      dup1\n      dup3\n      sstore\n      dup1\n      swap2\n      pop\n      pop\n      0x01\n      swap1\n      sub\n      swap1\n      0x00\n      mstore\n      keccak256(0x00, 0x20)\n      swap1\n      0x04\n      mul\n      add\n      0x00\n      swap1\n      swap2\n      swap1\n      swap2\n      swap1\n      swap2\n      pop\n      0x00\n      dup3\n      add\n      mload\n      dup2\n      0x00\n      add\n      exp(0x0100, 0x00)\n      dup2\n      sload\n      dup2\n      0xffffffffffffffffffffffffffffffffffffffff\n      mul\n      not\n      and\n      swap1\n      dup4\n      0xffffffffffffffffffffffffffffffffffffffff\n      and\n      mul\n      or\n      swap1\n      sstore\n      pop\n      0x20\n      dup3\n      add\n      mload\n      dup2\n      0x01\n      add\n      swap1\n      dup2\n      tag_62\n      swap2\n      swap1\n      tag_63\n      jump\t// in\n    tag_62:\n      pop\n      0x40\n      dup3\n      add\n      mload\n      dup2\n      0x02\n      add\n      sstore\n      0x60\n      dup3\n      add\n      mload\n      dup2\n      0x03\n      add\n      sstore\n      pop\n      pop\n        /* \"contracts/Twitter.sol\":495:828  {... */\n      pop\n        /* \"contracts/Twitter.sol\":445:828  function createTweet(string memory _tweet) public {... */\n      pop\n      jump\t// out\n    tag_37:\n      mload(0x40)\n      dup1\n      0x80\n      add\n      0x40\n      mstore\n      dup1\n      and(0xffffffffffffffffffffffffffffffffffffffff, 0x00)\n      dup2\n      mstore\n      0x20\n      add\n      0x60\n      dup2\n      mstore\n      0x20\n      add\n      0x00\n      dup2\n      mstore\n      0x20\n      add\n      0x00\n      dup2\n      mstore\n      pop\n      swap1\n      jump\t// out\n        /* \"#utility.yul\":7:82   */\n    tag_64:\n        /* \"#utility.yul\":40:46   */\n      0x00\n        /* \"#utility.yul\":73:75   */\n      0x40\n        /* \"#utility.yul\":67:76   */\n      mload\n        /* \"#utility.yul\":57:76   */\n      swap1\n      pop\n        /* \"#utility.yul\":7:82   */\n      swap1\n      jump\t// out\n        /* \"#utility.yul\":88:205   */\n    tag_65:\n        /* \"#utility.yul\":197:198   */\n      0x00\n        /* \"#utility.yul\":194:195   */\n      0x00\n        /* \"#utility.yul\":187:199   */\n      revert\n        /* \"#utility.yul\":211:328   */\n    tag_66:\n        /* \"#utility.yul\":320:321   */\n      0x00\n        /* \"#utility.yul\":317:318   */\n      0x00\n        /* \"#utility.yul\":310:322   */\n      revert\n        /* \"#utility.yul\":334:460   */\n    tag_67:\n        /* \"#utility.yul\":371:378   */\n      0x00\n        /* \"#utility.yul\":411:453   */\n      0xffffffffffffffffffffffffffffffffffffffff\n        /* \"#utility.yul\":404:409   */\n      dup3\n        /* \"#utility.yul\":400:454   */\n      and\n        /* \"#utility.yul\":389:454   */\n      swap1\n      pop\n        /* \"#utility.yul\":334:460   */\n      swap2\n      swap1\n      pop\n      jump\t// out\n        /* \"#utility.yul\":466:562   */\n    tag_68:\n        /* \"#utility.yul\":503:510   */\n      0x00\n        /* \"#utility.yul\":532:556   */\n      tag_126\n        /* \"#utility.yul\":550:555   */\n      dup3\n        /* \"#utility.yul\":532:556   */\n      tag_67\n      jump\t// in\n    tag_126:\n        /* \"#utility.yul\":521:556   */\n      swap1\n      pop\n        /* \"#utility.yul\":466:562   */\n      swap2\n      swap1\n      pop\n      jump\t// out\n        /* \"#utility.yul\":568:690   */\n    tag_69:\n        /* \"#utility.yul\":641:665   */\n      tag_128\n        /* \"#utility.yul\":659:664   */\n      dup2\n        /* \"#utility.yul\":641:665   */\n      tag_68\n      jump\t// in\n    tag_128:\n        /* \"#utility.yul\":634:639   */\n      dup2\n        /* \"#utility.yul\":631:666   */\n      eq\n        /* \"#utility.yul\":621:684   */\n      tag_129\n      jumpi\n        /* \"#utility.yul\":680:681   */\n      0x00\n        /* \"#utility.yul\":677:678   */\n      0x00\n        /* \"#utility.yul\":670:682   */\n      revert\n        /* \"#utility.yul\":621:684   */\n    tag_129:\n        /* \"#utility.yul\":568:690   */\n      pop\n      jump\t// out\n        /* \"#utility.yul\":696:835   */\n    tag_70:\n        /* \"#utility.yul\":742:747   */\n      0x00\n        /* \"#utility.yul\":780:786   */\n      dup2\n        /* \"#utility.yul\":767:787   */\n      calldataload\n        /* \"#utility.yul\":758:787   */\n      swap1\n      pop\n        /* \"#utility.yul\":796:829   */\n      tag_131\n        /* \"#utility.yul\":823:828   */\n      dup2\n        /* \"#utility.yul\":796:829   */\n      tag_69\n      jump\t// in\n    tag_131:\n        /* \"#utility.yul\":696:835   */\n      swap3\n      swap2\n      pop\n      pop\n      jump\t// out\n        /* \"#utility.yul\":841:918   */\n    tag_71:\n        /* \"#utility.yul\":878:885   */\n      0x00\n        /* \"#utility.yul\":907:912   */\n      dup2\n        /* \"#utility.yul\":896:912   */\n      swap1\n      pop\n        /* \"#utility.yul\":841:918   */\n      swap2\n      swap1\n      pop\n      jump\t// out\n        /* \"#utility.yul\":924:1046   */\n    tag_72:\n        /* \"#utility.yul\":997:1021   */\n      tag_134\n        /* \"#utility.yul\":1015:1020   */\n      dup2\n        /* \"#utility.yul\":997:1021   */\n      tag_71\n      jump\t// in\n    tag_134:\n        /* \"#utility.yul\":990:995   */\n      dup2\n        /* \"#utility.yul\":987:1022   */\n      eq\n        /* \"#utility.yul\":977:1040   */\n      tag_135\n      jumpi\n        /* \"#utility.yul\":1036:1037   */\n      0x00\n        /* \"#utility.yul\":1033:1034   */\n      0x00\n        /* \"#utility.yul\":1026:1038   */\n      revert\n        /* \"#utility.yul\":977:1040   */\n    tag_135:\n        /* \"#utility.yul\":924:1046   */\n      pop\n      jump\t// out\n        /* \"#utility.yul\":1052:1191   */\n    tag_73:\n        /* \"#utility.yul\":1098:1103   */\n      0x00\n        /* \"#utility.yul\":1136:1142   */\n      dup2\n        /* \"#utility.yul\":1123:1143   */\n      calldataload\n        /* \"#utility.yul\":1114:1143   */\n      swap1\n      pop\n        /* \"#utility.yul\":1152:1185   */\n      tag_137\n        /* \"#utility.yul\":1179:1184   */\n      dup2\n        /* \"#utility.yul\":1152:1185   */\n      tag_72\n      jump\t// in\n    tag_137:\n        /* \"#utility.yul\":1052:1191   */\n      swap3\n      swap2\n      pop\n      pop\n      jump\t// out\n        /* \"#utility.yul\":1197:1671   */\n    tag_9:\n        /* \"#utility.yul\":1265:1271   */\n      0x00\n        /* \"#utility.yul\":1273:1279   */\n      0x00\n        /* \"#utility.yul\":1322:1324   */\n      0x40\n        /* \"#utility.yul\":1310:1319   */\n      dup4\n        /* \"#utility.yul\":1301:1308   */\n      dup6\n        /* \"#utility.yul\":1297:1320   */\n      sub\n        /* \"#utility.yul\":1293:1325   */\n      slt\n        /* \"#utility.yul\":1290:1409   */\n      iszero\n      tag_139\n      jumpi\n        /* \"#utility.yul\":1328:1407   */\n      tag_140\n      tag_65\n      jump\t// in\n    tag_140:\n        /* \"#utility.yul\":1290:1409   */\n    tag_139:\n        /* \"#utility.yul\":1448:1449   */\n      0x00\n        /* \"#utility.yul\":1473:1526   */\n      tag_141\n        /* \"#utility.yul\":1518:1525   */\n      dup6\n        /* \"#utility.yul\":1509:1515   */\n      dup3\n        /* \"#utility.yul\":1498:1507   */\n      dup7\n        /* \"#utility.yul\":1494:1516   */\n      add\n        /* \"#utility.yul\":1473:1526   */\n      tag_70\n      jump\t// in\n    tag_141:\n        /* \"#utility.yul\":1463:1526   */\n      swap3\n      pop\n        /* \"#utility.yul\":1419:1536   */\n      pop\n        /* \"#utility.yul\":1575:1577   */\n      0x20\n        /* \"#utility.yul\":1601:1654   */\n      tag_142\n        /* \"#utility.yul\":1646:1653   */\n      dup6\n        /* \"#utility.yul\":1637:1643   */\n      dup3\n        /* \"#utility.yul\":1626:1635   */\n      dup7\n        /* \"#utility.yul\":1622:1644   */\n      add\n        /* \"#utility.yul\":1601:1654   */\n      tag_73\n      jump\t// in\n    tag_142:\n        /* \"#utility.yul\":1591:1654   */\n      swap2\n      pop\n        /* \"#utility.yul\":1546:1664   */\n      pop\n        /* \"#utility.yul\":1197:1671   */\n      swap3\n      pop\n      swap3\n      swap1\n      pop\n      jump\t// out\n        /* \"#utility.yul\":1677:1795   */\n    tag_74:\n        /* \"#utility.yul\":1764:1788   */\n      tag_144\n        /* \"#utility.yul\":1782:1787   */\n      dup2\n        /* \"#utility.yul\":1764:1788   */\n      tag_68\n      jump\t// in\n    tag_144:\n        /* \"#utility.yul\":1759:1762   */\n      dup3\n        /* \"#utility.yul\":1752:1789   */\n      mstore\n        /* \"#utility.yul\":1677:1795   */\n      pop\n      pop\n      jump\t// out\n        /* \"#utility.yul\":1801:1900   */\n    tag_75:\n        /* \"#utility.yul\":1853:1859   */\n      0x00\n        /* \"#utility.yul\":1887:1892   */\n      dup2\n        /* \"#utility.yul\":1881:1893   */\n      mload\n        /* \"#utility.yul\":1871:1893   */\n      swap1\n      pop\n        /* \"#utility.yul\":1801:1900   */\n      swap2\n      swap1\n      pop\n      jump\t// out\n        /* \"#utility.yul\":1906:2075   */\n    tag_76:\n        /* \"#utility.yul\":1990:2001   */\n      0x00\n        /* \"#utility.yul\":2024:2030   */\n      dup3\n        /* \"#utility.yul\":2019:2022   */\n      dup3\n        /* \"#utility.yul\":2012:2031   */\n      mstore\n        /* \"#utility.yul\":2064:2068   */\n      0x20\n        /* \"#utility.yul\":2059:2062   */\n      dup3\n        /* \"#utility.yul\":2055:2069   */\n      add\n        /* \"#utility.yul\":2040:2069   */\n      swap1\n      pop\n        /* \"#utility.yul\":1906:2075   */\n      swap3\n      swap2\n      pop\n      pop\n      jump\t// out\n        /* \"#utility.yul\":2081:2220   */\n    tag_77:\n        /* \"#utility.yul\":2170:2176   */\n      dup3\n        /* \"#utility.yul\":2165:2168   */\n      dup2\n        /* \"#utility.yul\":2160:2163   */\n      dup4\n        /* \"#utility.yul\":2154:2177   */\n      mcopy\n        /* \"#utility.yul\":2211:2212   */\n      0x00\n        /* \"#utility.yul\":2202:2208   */\n      dup4\n        /* \"#utility.yul\":2197:2200   */\n      dup4\n        /* \"#utility.yul\":2193:2209   */\n      add\n        /* \"#utility.yul\":2186:2213   */\n      mstore\n        /* \"#utility.yul\":2081:2220   */\n      pop\n      pop\n      pop\n      jump\t// out\n        /* \"#utility.yul\":2226:2328   */\n    tag_78:\n        /* \"#utility.yul\":2267:2273   */\n      0x00\n        /* \"#utility.yul\":2318:2320   */\n      0x1f\n        /* \"#utility.yul\":2314:2321   */\n      not\n        /* \"#utility.yul\":2309:2311   */\n      0x1f\n        /* \"#utility.yul\":2302:2307   */\n      dup4\n        /* \"#utility.yul\":2298:2312   */\n      add\n        /* \"#utility.yul\":2294:2322   */\n      and\n        /* \"#utility.yul\":2284:2322   */\n      swap1\n      pop\n        /* \"#utility.yul\":2226:2328   */\n      swap2\n      swap1\n      pop\n      jump\t// out\n        /* \"#utility.yul\":2334:2711   */\n    tag_79:\n        /* \"#utility.yul\":2422:2425   */\n      0x00\n        /* \"#utility.yul\":2450:2489   */\n      tag_150\n        /* \"#utility.yul\":2483:2488   */\n      dup3\n        /* \"#utility.yul\":2450:2489   */\n      tag_75\n      jump\t// in\n    tag_150:\n        /* \"#utility.yul\":2505:2576   */\n      tag_151\n        /* \"#utility.yul\":2569:2575   */\n      dup2\n        /* \"#utility.yul\":2564:2567   */\n      dup6\n        /* \"#utility.yul\":2505:2576   */\n      tag_76\n      jump\t// in\n    tag_151:\n        /* \"#utility.yul\":2498:2576   */\n      swap4\n      pop\n        /* \"#utility.yul\":2585:2650   */\n      tag_152\n        /* \"#utility.yul\":2643:2649   */\n      dup2\n        /* \"#utility.yul\":2638:2641   */\n      dup6\n        /* \"#utility.yul\":2631:2635   */\n      0x20\n        /* \"#utility.yul\":2624:2629   */\n      dup7\n        /* \"#utility.yul\":2620:2636   */\n      add\n        /* \"#utility.yul\":2585:2650   */\n      tag_77\n      jump\t// in\n    tag_152:\n        /* \"#utility.yul\":2675:2704   */\n      tag_153\n        /* \"#utility.yul\":2697:2703   */\n      dup2\n        /* \"#utility.yul\":2675:2704   */\n      tag_78\n      jump\t// in\n    tag_153:\n        /* \"#utility.yul\":2670:2673   */\n      dup5\n        /* \"#utility.yul\":2666:2705   */\n      add\n        /* \"#utility.yul\":2659:2705   */\n      swap2\n      pop\n        /* \"#utility.yul\":2426:2711   */\n      pop\n        /* \"#utility.yul\":2334:2711   */\n      swap3\n      swap2\n      pop\n      pop\n      jump\t// out\n        /* \"#utility.yul\":2717:2835   */\n    tag_80:\n        /* \"#utility.yul\":2804:2828   */\n      tag_155\n        /* \"#utility.yul\":2822:2827   */\n      dup2\n        /* \"#utility.yul\":2804:2828   */\n      tag_71\n      jump\t// in\n    tag_155:\n        /* \"#utility.yul\":2799:2802   */\n      dup3\n        /* \"#utility.yul\":2792:2829   */\n      mstore\n        /* \"#utility.yul\":2717:2835   */\n      pop\n      pop\n      jump\t// out\n        /* \"#utility.yul\":2841:3485   */\n    tag_12:\n        /* \"#utility.yul\":3038:3042   */\n      0x00\n        /* \"#utility.yul\":3076:3079   */\n      0x80\n        /* \"#utility.yul\":3065:3074   */\n      dup3\n        /* \"#utility.yul\":3061:3080   */\n      add\n        /* \"#utility.yul\":3053:3080   */\n      swap1\n      pop\n        /* \"#utility.yul\":3090:3161   */\n      tag_157\n        /* \"#utility.yul\":3158:3159   */\n      0x00\n        /* \"#utility.yul\":3147:3156   */\n      dup4\n        /* \"#utility.yul\":3143:3160   */\n      add\n        /* \"#utility.yul\":3134:3140   */\n      dup8\n        /* \"#utility.yul\":3090:3161   */\n      tag_74\n      jump\t// in\n    tag_157:\n        /* \"#utility.yul\":3208:3217   */\n      dup2\n        /* \"#utility.yul\":3202:3206   */\n      dup2\n        /* \"#utility.yul\":3198:3218   */\n      sub\n        /* \"#utility.yul\":3193:3195   */\n      0x20\n        /* \"#utility.yul\":3182:3191   */\n      dup4\n        /* \"#utility.yul\":3178:3196   */\n      add\n        /* \"#utility.yul\":3171:3219   */\n      mstore\n        /* \"#utility.yul\":3236:3314   */\n      tag_158\n        /* \"#utility.yul\":3309:3313   */\n      dup2\n        /* \"#utility.yul\":3300:3306   */\n      dup7\n        /* \"#utility.yul\":3236:3314   */\n      tag_79\n      jump\t// in\n    tag_158:\n        /* \"#utility.yul\":3228:3314   */\n      swap1\n      pop\n        /* \"#utility.yul\":3324:3396   */\n      tag_159\n        /* \"#utility.yul\":3392:3394   */\n      0x40\n        /* \"#utility.yul\":3381:3390   */\n      dup4\n        /* \"#utility.yul\":3377:3395   */\n      add\n        /* \"#utility.yul\":3368:3374   */\n      dup6\n        /* \"#utility.yul\":3324:3396   */\n      tag_80\n      jump\t// in\n    tag_159:\n        /* \"#utility.yul\":3406:3478   */\n      tag_160\n        /* \"#utility.yul\":3474:3476   */\n      0x60\n        /* \"#utility.yul\":3463:3472   */\n      dup4\n        /* \"#utility.yul\":3459:3477   */\n      add\n        /* \"#utility.yul\":3450:3456   */\n      dup5\n        /* \"#utility.yul\":3406:3478   */\n      tag_80\n      jump\t// in\n    tag_160:\n        /* \"#utility.yul\":2841:3485   */\n      swap6\n      swap5\n      pop\n      pop\n      pop\n      pop\n      pop\n      jump\t// out\n        /* \"#utility.yul\":3491:3599   */\n    tag_81:\n        /* \"#utility.yul\":3568:3592   */\n      tag_162\n        /* \"#utility.yul\":3586:3591   */\n      dup2\n        /* \"#utility.yul\":3568:3592   */\n      tag_68\n      jump\t// in\n    tag_162:\n        /* \"#utility.yul\":3563:3566   */\n      dup3\n        /* \"#utility.yul\":3556:3593   */\n      mstore\n        /* \"#utility.yul\":3491:3599   */\n      pop\n      pop\n      jump\t// out\n        /* \"#utility.yul\":3605:3764   */\n    tag_82:\n        /* \"#utility.yul\":3679:3690   */\n      0x00\n        /* \"#utility.yul\":3713:3719   */\n      dup3\n        /* \"#utility.yul\":3708:3711   */\n      dup3\n        /* \"#utility.yul\":3701:3720   */\n      mstore\n        /* \"#utility.yul\":3753:3757   */\n      0x20\n        /* \"#utility.yul\":3748:3751   */\n      dup3\n        /* \"#utility.yul\":3744:3758   */\n      add\n        /* \"#utility.yul\":3729:3758   */\n      swap1\n      pop\n        /* \"#utility.yul\":3605:3764   */\n      swap3\n      swap2\n      pop\n      pop\n      jump\t// out\n        /* \"#utility.yul\":3770:4127   */\n    tag_83:\n        /* \"#utility.yul\":3848:3851   */\n      0x00\n        /* \"#utility.yul\":3876:3915   */\n      tag_165\n        /* \"#utility.yul\":3909:3914   */\n      dup3\n        /* \"#utility.yul\":3876:3915   */\n      tag_75\n      jump\t// in\n    tag_165:\n        /* \"#utility.yul\":3931:3992   */\n      tag_166\n        /* \"#utility.yul\":3985:3991   */\n      dup2\n        /* \"#utility.yul\":3980:3983   */\n      dup6\n        /* \"#utility.yul\":3931:3992   */\n      tag_82\n      jump\t// in\n    tag_166:\n        /* \"#utility.yul\":3924:3992   */\n      swap4\n      pop\n        /* \"#utility.yul\":4001:4066   */\n      tag_167\n        /* \"#utility.yul\":4059:4065   */\n      dup2\n        /* \"#utility.yul\":4054:4057   */\n      dup6\n        /* \"#utility.yul\":4047:4051   */\n      0x20\n        /* \"#utility.yul\":4040:4045   */\n      dup7\n        /* \"#utility.yul\":4036:4052   */\n      add\n        /* \"#utility.yul\":4001:4066   */\n      tag_77\n      jump\t// in\n    tag_167:\n        /* \"#utility.yul\":4091:4120   */\n      tag_168\n        /* \"#utility.yul\":4113:4119   */\n      dup2\n        /* \"#utility.yul\":4091:4120   */\n      tag_78\n      jump\t// in\n    tag_168:\n        /* \"#utility.yul\":4086:4089   */\n      dup5\n        /* \"#utility.yul\":4082:4121   */\n      add\n        /* \"#utility.yul\":4075:4121   */\n      swap2\n      pop\n        /* \"#utility.yul\":3852:4127   */\n      pop\n        /* \"#utility.yul\":3770:4127   */\n      swap3\n      swap2\n      pop\n      pop\n      jump\t// out\n        /* \"#utility.yul\":4133:4241   */\n    tag_84:\n        /* \"#utility.yul\":4210:4234   */\n      tag_170\n        /* \"#utility.yul\":4228:4233   */\n      dup2\n        /* \"#utility.yul\":4210:4234   */\n      tag_71\n      jump\t// in\n    tag_170:\n        /* \"#utility.yul\":4205:4208   */\n      dup3\n        /* \"#utility.yul\":4198:4235   */\n      mstore\n        /* \"#utility.yul\":4133:4241   */\n      pop\n      pop\n      jump\t// out\n        /* \"#utility.yul\":4299:5256   */\n    tag_85:\n        /* \"#utility.yul\":4410:4413   */\n      0x00\n        /* \"#utility.yul\":4446:4450   */\n      0x80\n        /* \"#utility.yul\":4441:4444   */\n      dup4\n        /* \"#utility.yul\":4437:4451   */\n      add\n        /* \"#utility.yul\":4535:4539   */\n      0x00\n        /* \"#utility.yul\":4528:4533   */\n      dup4\n        /* \"#utility.yul\":4524:4540   */\n      add\n        /* \"#utility.yul\":4518:4541   */\n      mload\n        /* \"#utility.yul\":4554:4617   */\n      tag_172\n        /* \"#utility.yul\":4611:4615   */\n      0x00\n        /* \"#utility.yul\":4606:4609   */\n      dup7\n        /* \"#utility.yul\":4602:4616   */\n      add\n        /* \"#utility.yul\":4588:4600   */\n      dup3\n        /* \"#utility.yul\":4554:4617   */\n      tag_81\n      jump\t// in\n    tag_172:\n        /* \"#utility.yul\":4461:4627   */\n      pop\n        /* \"#utility.yul\":4712:4716   */\n      0x20\n        /* \"#utility.yul\":4705:4710   */\n      dup4\n        /* \"#utility.yul\":4701:4717   */\n      add\n        /* \"#utility.yul\":4695:4718   */\n      mload\n        /* \"#utility.yul\":4765:4768   */\n      dup5\n        /* \"#utility.yul\":4759:4763   */\n      dup3\n        /* \"#utility.yul\":4755:4769   */\n      sub\n        /* \"#utility.yul\":4748:4752   */\n      0x20\n        /* \"#utility.yul\":4743:4746   */\n      dup7\n        /* \"#utility.yul\":4739:4753   */\n      add\n        /* \"#utility.yul\":4732:4770   */\n      mstore\n        /* \"#utility.yul\":4791:4864   */\n      tag_173\n        /* \"#utility.yul\":4859:4863   */\n      dup3\n        /* \"#utility.yul\":4845:4857   */\n      dup3\n        /* \"#utility.yul\":4791:4864   */\n      tag_83\n      jump\t// in\n    tag_173:\n        /* \"#utility.yul\":4783:4864   */\n      swap2\n      pop\n        /* \"#utility.yul\":4637:4875   */\n      pop\n        /* \"#utility.yul\":4962:4966   */\n      0x40\n        /* \"#utility.yul\":4955:4960   */\n      dup4\n        /* \"#utility.yul\":4951:4967   */\n      add\n        /* \"#utility.yul\":4945:4968   */\n      mload\n        /* \"#utility.yul\":4981:5044   */\n      tag_174\n        /* \"#utility.yul\":5038:5042   */\n      0x40\n        /* \"#utility.yul\":5033:5036   */\n      dup7\n        /* \"#utility.yul\":5029:5043   */\n      add\n        /* \"#utility.yul\":5015:5027   */\n      dup3\n        /* \"#utility.yul\":4981:5044   */\n      tag_84\n      jump\t// in\n    tag_174:\n        /* \"#utility.yul\":4885:5054   */\n      pop\n        /* \"#utility.yul\":5137:5141   */\n      0x60\n        /* \"#utility.yul\":5130:5135   */\n      dup4\n        /* \"#utility.yul\":5126:5142   */\n      add\n        /* \"#utility.yul\":5120:5143   */\n      mload\n        /* \"#utility.yul\":5156:5219   */\n      tag_175\n        /* \"#utility.yul\":5213:5217   */\n      0x60\n        /* \"#utility.yul\":5208:5211   */\n      dup7\n        /* \"#utility.yul\":5204:5218   */\n      add\n        /* \"#utility.yul\":5190:5202   */\n      dup3\n        /* \"#utility.yul\":5156:5219   */\n      tag_84\n      jump\t// in\n    tag_175:\n        /* \"#utility.yul\":5064:5229   */\n      pop\n        /* \"#utility.yul\":5246:5250   */\n      dup1\n        /* \"#utility.yul\":5239:5250   */\n      swap2\n      pop\n        /* \"#utility.yul\":4415:5256   */\n      pop\n        /* \"#utility.yul\":4299:5256   */\n      swap3\n      swap2\n      pop\n      pop\n      jump\t// out\n        /* \"#utility.yul\":5262:5619   */\n    tag_17:\n        /* \"#utility.yul\":5397:5401   */\n      0x00\n        /* \"#utility.yul\":5435:5437   */\n      0x20\n        /* \"#utility.yul\":5424:5433   */\n      dup3\n        /* \"#utility.yul\":5420:5438   */\n      add\n        /* \"#utility.yul\":5412:5438   */\n      swap1\n      pop\n        /* \"#utility.yul\":5484:5493   */\n      dup2\n        /* \"#utility.yul\":5478:5482   */\n      dup2\n        /* \"#utility.yul\":5474:5494   */\n      sub\n        /* \"#utility.yul\":5470:5471   */\n      0x00\n        /* \"#utility.yul\":5459:5468   */\n      dup4\n        /* \"#utility.yul\":5455:5472   */\n      add\n        /* \"#utility.yul\":5448:5495   */\n      mstore\n        /* \"#utility.yul\":5512:5612   */\n      tag_177\n        /* \"#utility.yul\":5607:5611   */\n      dup2\n        /* \"#utility.yul\":5598:5604   */\n      dup5\n        /* \"#utility.yul\":5512:5612   */\n      tag_85\n      jump\t// in\n    tag_177:\n        /* \"#utility.yul\":5504:5612   */\n      swap1\n      pop\n        /* \"#utility.yul\":5262:5619   */\n      swap3\n      swap2\n      pop\n      pop\n      jump\t// out\n        /* \"#utility.yul\":5625:5954   */\n    tag_20:\n        /* \"#utility.yul\":5684:5690   */\n      0x00\n        /* \"#utility.yul\":5733:5735   */\n      0x20\n        /* \"#utility.yul\":5721:5730   */\n      dup3\n        /* \"#utility.yul\":5712:5719   */\n      dup5\n        /* \"#utility.yul\":5708:5731   */\n      sub\n        /* \"#utility.yul\":5704:5736   */\n      slt\n        /* \"#utility.yul\":5701:5820   */\n      iszero\n      tag_179\n      jumpi\n        /* \"#utility.yul\":5739:5818   */\n      tag_180\n      tag_65\n      jump\t// in\n    tag_180:\n        /* \"#utility.yul\":5701:5820   */\n    tag_179:\n        /* \"#utility.yul\":5859:5860   */\n      0x00\n        /* \"#utility.yul\":5884:5937   */\n      tag_181\n        /* \"#utility.yul\":5929:5936   */\n      dup5\n        /* \"#utility.yul\":5920:5926   */\n      dup3\n        /* \"#utility.yul\":5909:5918   */\n      dup6\n        /* \"#utility.yul\":5905:5927   */\n      add\n        /* \"#utility.yul\":5884:5937   */\n      tag_70\n      jump\t// in\n    tag_181:\n        /* \"#utility.yul\":5874:5937   */\n      swap2\n      pop\n        /* \"#utility.yul\":5830:5947   */\n      pop\n        /* \"#utility.yul\":5625:5954   */\n      swap3\n      swap2\n      pop\n      pop\n      jump\t// out\n        /* \"#utility.yul\":5960:6095   */\n    tag_86:\n        /* \"#utility.yul\":6048:6054   */\n      0x00\n        /* \"#utility.yul\":6082:6087   */\n      dup2\n        /* \"#utility.yul\":6076:6088   */\n      mload\n        /* \"#utility.yul\":6066:6088   */\n      swap1\n      pop\n        /* \"#utility.yul\":5960:6095   */\n      swap2\n      swap1\n      pop\n      jump\t// out\n        /* \"#utility.yul\":6101:6306   */\n    tag_87:\n        /* \"#utility.yul\":6221:6232   */\n      0x00\n        /* \"#utility.yul\":6255:6261   */\n      dup3\n        /* \"#utility.yul\":6250:6253   */\n      dup3\n        /* \"#utility.yul\":6243:6262   */\n      mstore\n        /* \"#utility.yul\":6295:6299   */\n      0x20\n        /* \"#utility.yul\":6290:6293   */\n      dup3\n        /* \"#utility.yul\":6286:6300   */\n      add\n        /* \"#utility.yul\":6271:6300   */\n      swap1\n      pop\n        /* \"#utility.yul\":6101:6306   */\n      swap3\n      swap2\n      pop\n      pop\n      jump\t// out\n        /* \"#utility.yul\":6312:6465   */\n    tag_88:\n        /* \"#utility.yul\":6400:6404   */\n      0x00\n        /* \"#utility.yul\":6423:6426   */\n      dup2\n        /* \"#utility.yul\":6415:6426   */\n      swap1\n      pop\n        /* \"#utility.yul\":6453:6457   */\n      0x20\n        /* \"#utility.yul\":6448:6451   */\n      dup3\n        /* \"#utility.yul\":6444:6458   */\n      add\n        /* \"#utility.yul\":6436:6458   */\n      swap1\n      pop\n        /* \"#utility.yul\":6312:6465   */\n      swap2\n      swap1\n      pop\n      jump\t// out\n        /* \"#utility.yul\":6523:7470   */\n    tag_89:\n        /* \"#utility.yul\":6624:6627   */\n      0x00\n        /* \"#utility.yul\":6660:6664   */\n      0x80\n        /* \"#utility.yul\":6655:6658   */\n      dup4\n        /* \"#utility.yul\":6651:6665   */\n      add\n        /* \"#utility.yul\":6749:6753   */\n      0x00\n        /* \"#utility.yul\":6742:6747   */\n      dup4\n        /* \"#utility.yul\":6738:6754   */\n      add\n        /* \"#utility.yul\":6732:6755   */\n      mload\n        /* \"#utility.yul\":6768:6831   */\n      tag_186\n        /* \"#utility.yul\":6825:6829   */\n      0x00\n        /* \"#utility.yul\":6820:6823   */\n      dup7\n        /* \"#utility.yul\":6816:6830   */\n      add\n        /* \"#utility.yul\":6802:6814   */\n      dup3\n        /* \"#utility.yul\":6768:6831   */\n      tag_81\n      jump\t// in\n    tag_186:\n        /* \"#utility.yul\":6675:6841   */\n      pop\n        /* \"#utility.yul\":6926:6930   */\n      0x20\n        /* \"#utility.yul\":6919:6924   */\n      dup4\n        /* \"#utility.yul\":6915:6931   */\n      add\n        /* \"#utility.yul\":6909:6932   */\n      mload\n        /* \"#utility.yul\":6979:6982   */\n      dup5\n        /* \"#utility.yul\":6973:6977   */\n      dup3\n        /* \"#utility.yul\":6969:6983   */\n      sub\n        /* \"#utility.yul\":6962:6966   */\n      0x20\n        /* \"#utility.yul\":6957:6960   */\n      dup7\n        /* \"#utility.yul\":6953:6967   */\n      add\n        /* \"#utility.yul\":6946:6984   */\n      mstore\n        /* \"#utility.yul\":7005:7078   */\n      tag_187\n        /* \"#utility.yul\":7073:7077   */\n      dup3\n        /* \"#utility.yul\":7059:7071   */\n      dup3\n        /* \"#utility.yul\":7005:7078   */\n      tag_83\n      jump\t// in\n    tag_187:\n        /* \"#utility.yul\":6997:7078   */\n      swap2\n      pop\n        /* \"#utility.yul\":6851:7089   */\n      pop\n        /* \"#utility.yul\":7176:7180   */\n      0x40\n        /* \"#utility.yul\":7169:7174   */\n      dup4\n        /* \"#utility.yul\":7165:7181   */\n      add\n        /* \"#utility.yul\":7159:7182   */\n      mload\n        /* \"#utility.yul\":7195:7258   */\n      tag_188\n        /* \"#utility.yul\":7252:7256   */\n      0x40\n        /* \"#utility.yul\":7247:7250   */\n      dup7\n        /* \"#utility.yul\":7243:7257   */\n      add\n        /* \"#utility.yul\":7229:7241   */\n      dup3\n        /* \"#utility.yul\":7195:7258   */\n      tag_84\n      jump\t// in\n    tag_188:\n        /* \"#utility.yul\":7099:7268   */\n      pop\n        /* \"#utility.yul\":7351:7355   */\n      0x60\n        /* \"#utility.yul\":7344:7349   */\n      dup4\n        /* \"#utility.yul\":7340:7356   */\n      add\n        /* \"#utility.yul\":7334:7357   */\n      mload\n        /* \"#utility.yul\":7370:7433   */\n      tag_189\n        /* \"#utility.yul\":7427:7431   */\n      0x60\n        /* \"#utility.yul\":7422:7425   */\n      dup7\n        /* \"#utility.yul\":7418:7432   */\n      add\n        /* \"#utility.yul\":7404:7416   */\n      dup3\n        /* \"#utility.yul\":7370:7433   */\n      tag_84\n      jump\t// in\n    tag_189:\n        /* \"#utility.yul\":7278:7443   */\n      pop\n        /* \"#utility.yul\":7460:7464   */\n      dup1\n        /* \"#utility.yul\":7453:7464   */\n      swap2\n      pop\n        /* \"#utility.yul\":6629:7470   */\n      pop\n        /* \"#utility.yul\":6523:7470   */\n      swap3\n      swap2\n      pop\n      pop\n      jump\t// out\n        /* \"#utility.yul\":7476:7716   */\n    tag_90:\n        /* \"#utility.yul\":7587:7597   */\n      0x00\n        /* \"#utility.yul\":7622:7710   */\n      tag_191\n        /* \"#utility.yul\":7706:7709   */\n      dup4\n        /* \"#utility.yul\":7698:7704   */\n      dup4\n        /* \"#utility.yul\":7622:7710   */\n      tag_89\n      jump\t// in\n    tag_191:\n        /* \"#utility.yul\":7608:7710   */\n      swap1\n      pop\n        /* \"#utility.yul\":7476:7716   */\n      swap3\n      swap2\n      pop\n      pop\n      jump\t// out\n        /* \"#utility.yul\":7722:7856   */\n    tag_91:\n        /* \"#utility.yul\":7813:7817   */\n      0x00\n        /* \"#utility.yul\":7845:7849   */\n      0x20\n        /* \"#utility.yul\":7840:7843   */\n      dup3\n        /* \"#utility.yul\":7836:7850   */\n      add\n        /* \"#utility.yul\":7828:7850   */\n      swap1\n      pop\n        /* \"#utility.yul\":7722:7856   */\n      swap2\n      swap1\n      pop\n      jump\t// out\n        /* \"#utility.yul\":7918:8997   */\n    tag_92:\n        /* \"#utility.yul\":8079:8082   */\n      0x00\n        /* \"#utility.yul\":8108:8183   */\n      tag_194\n        /* \"#utility.yul\":8177:8182   */\n      dup3\n        /* \"#utility.yul\":8108:8183   */\n      tag_86\n      jump\t// in\n    tag_194:\n        /* \"#utility.yul\":8199:8306   */\n      tag_195\n        /* \"#utility.yul\":8299:8305   */\n      dup2\n        /* \"#utility.yul\":8294:8297   */\n      dup6\n        /* \"#utility.yul\":8199:8306   */\n      tag_87\n      jump\t// in\n    tag_195:\n        /* \"#utility.yul\":8192:8306   */\n      swap4\n      pop\n        /* \"#utility.yul\":8332:8335   */\n      dup4\n        /* \"#utility.yul\":8377:8381   */\n      0x20\n        /* \"#utility.yul\":8369:8375   */\n      dup3\n        /* \"#utility.yul\":8365:8382   */\n      mul\n        /* \"#utility.yul\":8360:8363   */\n      dup6\n        /* \"#utility.yul\":8356:8383   */\n      add\n        /* \"#utility.yul\":8407:8484   */\n      tag_196\n        /* \"#utility.yul\":8478:8483   */\n      dup6\n        /* \"#utility.yul\":8407:8484   */\n      tag_88\n      jump\t// in\n    tag_196:\n        /* \"#utility.yul\":8507:8514   */\n      dup1\n        /* \"#utility.yul\":8538:8539   */\n      0x00\n        /* \"#utility.yul\":8523:8952   */\n    tag_197:\n        /* \"#utility.yul\":8548:8554   */\n      dup6\n        /* \"#utility.yul\":8545:8546   */\n      dup2\n        /* \"#utility.yul\":8542:8555   */\n      lt\n        /* \"#utility.yul\":8523:8952   */\n      iszero\n      tag_199\n      jumpi\n        /* \"#utility.yul\":8619:8628   */\n      dup5\n        /* \"#utility.yul\":8613:8617   */\n      dup5\n        /* \"#utility.yul\":8609:8629   */\n      sub\n        /* \"#utility.yul\":8604:8607   */\n      dup10\n        /* \"#utility.yul\":8597:8630   */\n      mstore\n        /* \"#utility.yul\":8670:8676   */\n      dup2\n        /* \"#utility.yul\":8664:8677   */\n      mload\n        /* \"#utility.yul\":8698:8804   */\n      tag_200\n        /* \"#utility.yul\":8799:8803   */\n      dup6\n        /* \"#utility.yul\":8784:8797   */\n      dup3\n        /* \"#utility.yul\":8698:8804   */\n      tag_90\n      jump\t// in\n    tag_200:\n        /* \"#utility.yul\":8690:8804   */\n      swap5\n      pop\n        /* \"#utility.yul\":8827:8908   */\n      tag_201\n        /* \"#utility.yul\":8901:8907   */\n      dup4\n        /* \"#utility.yul\":8827:8908   */\n      tag_91\n      jump\t// in\n    tag_201:\n        /* \"#utility.yul\":8817:8908   */\n      swap3\n      pop\n        /* \"#utility.yul\":8937:8941   */\n      0x20\n        /* \"#utility.yul\":8932:8935   */\n      dup11\n        /* \"#utility.yul\":8928:8942   */\n      add\n        /* \"#utility.yul\":8921:8942   */\n      swap10\n      pop\n        /* \"#utility.yul\":8583:8952   */\n      pop\n        /* \"#utility.yul\":8570:8571   */\n      0x01\n        /* \"#utility.yul\":8567:8568   */\n      dup2\n        /* \"#utility.yul\":8563:8572   */\n      add\n        /* \"#utility.yul\":8558:8572   */\n      swap1\n      pop\n        /* \"#utility.yul\":8523:8952   */\n      jump(tag_197)\n    tag_199:\n        /* \"#utility.yul\":8527:8541   */\n      pop\n        /* \"#utility.yul\":8968:8972   */\n      dup3\n        /* \"#utility.yul\":8961:8972   */\n      swap8\n      pop\n        /* \"#utility.yul\":8988:8991   */\n      dup8\n        /* \"#utility.yul\":8981:8991   */\n      swap6\n      pop\n        /* \"#utility.yul\":8084:8997   */\n      pop\n      pop\n      pop\n      pop\n      pop\n        /* \"#utility.yul\":7918:8997   */\n      swap3\n      swap2\n      pop\n      pop\n      jump\t// out\n        /* \"#utility.yul\":9003:9460   */\n    tag_23:\n        /* \"#utility.yul\":9188:9192   */\n      0x00\n        /* \"#utility.yul\":9226:9228   */\n      0x20\n        /* \"#utility.yul\":9215:9224   */\n      dup3\n        /* \"#utility.yul\":9211:9229   */\n      add\n        /* \"#utility.yul\":9203:9229   */\n      swap1\n      pop\n        /* \"#utility.yul\":9275:9284   */\n      dup2\n        /* \"#utility.yul\":9269:9273   */\n      dup2\n        /* \"#utility.yul\":9265:9285   */\n      sub\n        /* \"#utility.yul\":9261:9262   */\n      0x00\n        /* \"#utility.yul\":9250:9259   */\n      dup4\n        /* \"#utility.yul\":9246:9263   */\n      add\n        /* \"#utility.yul\":9239:9286   */\n      mstore\n        /* \"#utility.yul\":9303:9453   */\n      tag_203\n        /* \"#utility.yul\":9448:9452   */\n      dup2\n        /* \"#utility.yul\":9439:9445   */\n      dup5\n        /* \"#utility.yul\":9303:9453   */\n      tag_92\n      jump\t// in\n    tag_203:\n        /* \"#utility.yul\":9295:9453   */\n      swap1\n      pop\n        /* \"#utility.yul\":9003:9460   */\n      swap3\n      swap2\n      pop\n      pop\n      jump\t// out\n        /* \"#utility.yul\":9466:9583   */\n    tag_93:\n        /* \"#utility.yul\":9575:9576   */\n      0x00\n        /* \"#utility.yul\":9572:9573   */\n      0x00\n        /* \"#utility.yul\":9565:9577   */\n      revert\n        /* \"#utility.yul\":9589:9706   */\n    tag_94:\n        /* \"#utility.yul\":9698:9699   */\n      0x00\n        /* \"#utility.yul\":9695:9696   */\n      0x00\n        /* \"#utility.yul\":9688:9700   */\n      revert\n        /* \"#utility.yul\":9712:9892   */\n    tag_95:\n        /* \"#utility.yul\":9760:9837   */\n      0x4e487b7100000000000000000000000000000000000000000000000000000000\n        /* \"#utility.yul\":9757:9758   */\n      0x00\n        /* \"#utility.yul\":9750:9838   */\n      mstore\n        /* \"#utility.yul\":9857:9861   */\n      0x41\n        /* \"#utility.yul\":9854:9855   */\n      0x04\n        /* \"#utility.yul\":9847:9862   */\n      mstore\n        /* \"#utility.yul\":9881:9885   */\n      0x24\n        /* \"#utility.yul\":9878:9879   */\n      0x00\n        /* \"#utility.yul\":9871:9886   */\n      revert\n        /* \"#utility.yul\":9898:10179   */\n    tag_96:\n        /* \"#utility.yul\":9981:10008   */\n      tag_208\n        /* \"#utility.yul\":10003:10007   */\n      dup3\n        /* \"#utility.yul\":9981:10008   */\n      tag_78\n      jump\t// in\n    tag_208:\n        /* \"#utility.yul\":9973:9979   */\n      dup2\n        /* \"#utility.yul\":9969:10009   */\n      add\n        /* \"#utility.yul\":10111:10117   */\n      dup2\n        /* \"#utility.yul\":10099:10109   */\n      dup2\n        /* \"#utility.yul\":10096:10118   */\n      lt\n        /* \"#utility.yul\":10075:10093   */\n      0xffffffffffffffff\n        /* \"#utility.yul\":10063:10073   */\n      dup3\n        /* \"#utility.yul\":10060:10094   */\n      gt\n        /* \"#utility.yul\":10057:10119   */\n      or\n        /* \"#utility.yul\":10054:10142   */\n      iszero\n      tag_209\n      jumpi\n        /* \"#utility.yul\":10122:10140   */\n      tag_210\n      tag_95\n      jump\t// in\n    tag_210:\n        /* \"#utility.yul\":10054:10142   */\n    tag_209:\n        /* \"#utility.yul\":10162:10172   */\n      dup1\n        /* \"#utility.yul\":10158:10160   */\n      0x40\n        /* \"#utility.yul\":10151:10173   */\n      mstore\n        /* \"#utility.yul\":9941:10179   */\n      pop\n        /* \"#utility.yul\":9898:10179   */\n      pop\n      pop\n      jump\t// out\n        /* \"#utility.yul\":10185:10314   */\n    tag_97:\n        /* \"#utility.yul\":10219:10225   */\n      0x00\n        /* \"#utility.yul\":10246:10266   */\n      tag_212\n      tag_64\n      jump\t// in\n    tag_212:\n        /* \"#utility.yul\":10236:10266   */\n      swap1\n      pop\n        /* \"#utility.yul\":10275:10308   */\n      tag_213\n        /* \"#utility.yul\":10303:10307   */\n      dup3\n        /* \"#utility.yul\":10295:10301   */\n      dup3\n        /* \"#utility.yul\":10275:10308   */\n      tag_96\n      jump\t// in\n    tag_213:\n        /* \"#utility.yul\":10185:10314   */\n      swap2\n      swap1\n      pop\n      jump\t// out\n        /* \"#utility.yul\":10320:10628   */\n    tag_98:\n        /* \"#utility.yul\":10382:10386   */\n      0x00\n        /* \"#utility.yul\":10472:10490   */\n      0xffffffffffffffff\n        /* \"#utility.yul\":10464:10470   */\n      dup3\n        /* \"#utility.yul\":10461:10491   */\n      gt\n        /* \"#utility.yul\":10458:10514   */\n      iszero\n      tag_215\n      jumpi\n        /* \"#utility.yul\":10494:10512   */\n      tag_216\n      tag_95\n      jump\t// in\n    tag_216:\n        /* \"#utility.yul\":10458:10514   */\n    tag_215:\n        /* \"#utility.yul\":10532:10561   */\n      tag_217\n        /* \"#utility.yul\":10554:10560   */\n      dup3\n        /* \"#utility.yul\":10532:10561   */\n      tag_78\n      jump\t// in\n    tag_217:\n        /* \"#utility.yul\":10524:10561   */\n      swap1\n      pop\n        /* \"#utility.yul\":10616:10620   */\n      0x20\n        /* \"#utility.yul\":10610:10614   */\n      dup2\n        /* \"#utility.yul\":10606:10621   */\n      add\n        /* \"#utility.yul\":10598:10621   */\n      swap1\n      pop\n        /* \"#utility.yul\":10320:10628   */\n      swap2\n      swap1\n      pop\n      jump\t// out\n        /* \"#utility.yul\":10634:10782   */\n    tag_99:\n        /* \"#utility.yul\":10732:10738   */\n      dup3\n        /* \"#utility.yul\":10727:10730   */\n      dup2\n        /* \"#utility.yul\":10722:10725   */\n      dup4\n        /* \"#utility.yul\":10709:10739   */\n      calldatacopy\n        /* \"#utility.yul\":10773:10774   */\n      0x00\n        /* \"#utility.yul\":10764:10770   */\n      dup4\n        /* \"#utility.yul\":10759:10762   */\n      dup4\n        /* \"#utility.yul\":10755:10771   */\n      add\n        /* \"#utility.yul\":10748:10775   */\n      mstore\n        /* \"#utility.yul\":10634:10782   */\n      pop\n      pop\n      pop\n      jump\t// out\n        /* \"#utility.yul\":10788:11213   */\n    tag_100:\n        /* \"#utility.yul\":10866:10871   */\n      0x00\n        /* \"#utility.yul\":10891:10957   */\n      tag_220\n        /* \"#utility.yul\":10907:10956   */\n      tag_221\n        /* \"#utility.yul\":10949:10955   */\n      dup5\n        /* \"#utility.yul\":10907:10956   */\n      tag_98\n      jump\t// in\n    tag_221:\n        /* \"#utility.yul\":10891:10957   */\n      tag_97\n      jump\t// in\n    tag_220:\n        /* \"#utility.yul\":10882:10957   */\n      swap1\n      pop\n        /* \"#utility.yul\":10980:10986   */\n      dup3\n        /* \"#utility.yul\":10973:10978   */\n      dup2\n        /* \"#utility.yul\":10966:10987   */\n      mstore\n        /* \"#utility.yul\":11018:11022   */\n      0x20\n        /* \"#utility.yul\":11011:11016   */\n      dup2\n        /* \"#utility.yul\":11007:11023   */\n      add\n        /* \"#utility.yul\":11056:11059   */\n      dup5\n        /* \"#utility.yul\":11047:11053   */\n      dup5\n        /* \"#utility.yul\":11042:11045   */\n      dup5\n        /* \"#utility.yul\":11038:11054   */\n      add\n        /* \"#utility.yul\":11035:11060   */\n      gt\n        /* \"#utility.yul\":11032:11144   */\n      iszero\n      tag_222\n      jumpi\n        /* \"#utility.yul\":11063:11142   */\n      tag_223\n      tag_94\n      jump\t// in\n    tag_223:\n        /* \"#utility.yul\":11032:11144   */\n    tag_222:\n        /* \"#utility.yul\":11153:11207   */\n      tag_224\n        /* \"#utility.yul\":11200:11206   */\n      dup5\n        /* \"#utility.yul\":11195:11198   */\n      dup3\n        /* \"#utility.yul\":11190:11193   */\n      dup6\n        /* \"#utility.yul\":11153:11207   */\n      tag_99\n      jump\t// in\n    tag_224:\n        /* \"#utility.yul\":10872:11213   */\n      pop\n        /* \"#utility.yul\":10788:11213   */\n      swap4\n      swap3\n      pop\n      pop\n      pop\n      jump\t// out\n        /* \"#utility.yul\":11233:11573   */\n    tag_101:\n        /* \"#utility.yul\":11289:11294   */\n      0x00\n        /* \"#utility.yul\":11338:11341   */\n      dup3\n        /* \"#utility.yul\":11331:11335   */\n      0x1f\n        /* \"#utility.yul\":11323:11329   */\n      dup4\n        /* \"#utility.yul\":11319:11336   */\n      add\n        /* \"#utility.yul\":11315:11342   */\n      slt\n        /* \"#utility.yul\":11305:11427   */\n      tag_226\n      jumpi\n        /* \"#utility.yul\":11346:11425   */\n      tag_227\n      tag_93\n      jump\t// in\n    tag_227:\n        /* \"#utility.yul\":11305:11427   */\n    tag_226:\n        /* \"#utility.yul\":11463:11469   */\n      dup2\n        /* \"#utility.yul\":11450:11470   */\n      calldataload\n        /* \"#utility.yul\":11488:11567   */\n      tag_228\n        /* \"#utility.yul\":11563:11566   */\n      dup5\n        /* \"#utility.yul\":11555:11561   */\n      dup3\n        /* \"#utility.yul\":11548:11552   */\n      0x20\n        /* \"#utility.yul\":11540:11546   */\n      dup7\n        /* \"#utility.yul\":11536:11553   */\n      add\n        /* \"#utility.yul\":11488:11567   */\n      tag_100\n      jump\t// in\n    tag_228:\n        /* \"#utility.yul\":11479:11567   */\n      swap2\n      pop\n        /* \"#utility.yul\":11295:11573   */\n      pop\n        /* \"#utility.yul\":11233:11573   */\n      swap3\n      swap2\n      pop\n      pop\n      jump\t// out\n        /* \"#utility.yul\":11579:12088   */\n    tag_26:\n        /* \"#utility.yul\":11648:11654   */\n      0x00\n        /* \"#utility.yul\":11697:11699   */\n      0x20\n        /* \"#utility.yul\":11685:11694   */\n      dup3\n        /* \"#utility.yul\":11676:11683   */\n      dup5\n        /* \"#utility.yul\":11672:11695   */\n      sub\n        /* \"#utility.yul\":11668:11700   */\n      slt\n        /* \"#utility.yul\":11665:11784   */\n      iszero\n      tag_230\n      jumpi\n        /* \"#utility.yul\":11703:11782   */\n      tag_231\n      tag_65\n      jump\t// in\n    tag_231:\n        /* \"#utility.yul\":11665:11784   */\n    tag_230:\n        /* \"#utility.yul\":11851:11852   */\n      0x00\n        /* \"#utility.yul\":11840:11849   */\n      dup3\n        /* \"#utility.yul\":11836:11853   */\n      add\n        /* \"#utility.yul\":11823:11854   */\n      calldataload\n        /* \"#utility.yul\":11881:11899   */\n      0xffffffffffffffff\n        /* \"#utility.yul\":11873:11879   */\n      dup2\n        /* \"#utility.yul\":11870:11900   */\n      gt\n        /* \"#utility.yul\":11867:11984   */\n      iszero\n      tag_232\n      jumpi\n        /* \"#utility.yul\":11903:11982   */\n      tag_233\n      tag_66\n      jump\t// in\n    tag_233:\n        /* \"#utility.yul\":11867:11984   */\n    tag_232:\n        /* \"#utility.yul\":12008:12071   */\n      tag_234\n        /* \"#utility.yul\":12063:12070   */\n      dup5\n        /* \"#utility.yul\":12054:12060   */\n      dup3\n        /* \"#utility.yul\":12043:12052   */\n      dup6\n        /* \"#utility.yul\":12039:12061   */\n      add\n        /* \"#utility.yul\":12008:12071   */\n      tag_101\n      jump\t// in\n    tag_234:\n        /* \"#utility.yul\":11998:12071   */\n      swap2\n      pop\n        /* \"#utility.yul\":11794:12081   */\n      pop\n        /* \"#utility.yul\":11579:12088   */\n      swap3\n      swap2\n      pop\n      pop\n      jump\t// out\n        /* \"#utility.yul\":12094:12274   */\n    tag_102:\n        /* \"#utility.yul\":12142:12219   */\n      0x4e487b7100000000000000000000000000000000000000000000000000000000\n        /* \"#utility.yul\":12139:12140   */\n      0x00\n        /* \"#utility.yul\":12132:12220   */\n      mstore\n        /* \"#utility.yul\":12239:12243   */\n      0x22\n        /* \"#utility.yul\":12236:12237   */\n      0x04\n        /* \"#utility.yul\":12229:12244   */\n      mstore\n        /* \"#utility.yul\":12263:12267   */\n      0x24\n        /* \"#utility.yul\":12260:12261   */\n      0x00\n        /* \"#utility.yul\":12253:12268   */\n      revert\n        /* \"#utility.yul\":12280:12600   */\n    tag_31:\n        /* \"#utility.yul\":12324:12330   */\n      0x00\n        /* \"#utility.yul\":12361:12362   */\n      0x02\n        /* \"#utility.yul\":12355:12359   */\n      dup3\n        /* \"#utility.yul\":12351:12363   */\n      div\n        /* \"#utility.yul\":12341:12363   */\n      swap1\n      pop\n        /* \"#utility.yul\":12408:12409   */\n      0x01\n        /* \"#utility.yul\":12402:12406   */\n      dup3\n        /* \"#utility.yul\":12398:12410   */\n      and\n        /* \"#utility.yul\":12429:12447   */\n      dup1\n        /* \"#utility.yul\":12419:12500   */\n      tag_237\n      jumpi\n        /* \"#utility.yul\":12485:12489   */\n      0x7f\n        /* \"#utility.yul\":12477:12483   */\n      dup3\n        /* \"#utility.yul\":12473:12490   */\n      and\n        /* \"#utility.yul\":12463:12490   */\n      swap2\n      pop\n        /* \"#utility.yul\":12419:12500   */\n    tag_237:\n        /* \"#utility.yul\":12547:12549   */\n      0x20\n        /* \"#utility.yul\":12539:12545   */\n      dup3\n        /* \"#utility.yul\":12536:12550   */\n      lt\n        /* \"#utility.yul\":12516:12534   */\n      dup2\n        /* \"#utility.yul\":12513:12551   */\n      sub\n        /* \"#utility.yul\":12510:12594   */\n      tag_238\n      jumpi\n        /* \"#utility.yul\":12566:12584   */\n      tag_239\n      tag_102\n      jump\t// in\n    tag_239:\n        /* \"#utility.yul\":12510:12594   */\n    tag_238:\n        /* \"#utility.yul\":12331:12600   */\n      pop\n        /* \"#utility.yul\":12280:12600   */\n      swap2\n      swap1\n      pop\n      jump\t// out\n        /* \"#utility.yul\":12606:12786   */\n    tag_41:\n        /* \"#utility.yul\":12654:12731   */\n      0x4e487b7100000000000000000000000000000000000000000000000000000000\n        /* \"#utility.yul\":12651:12652   */\n      0x00\n        /* \"#utility.yul\":12644:12732   */\n      mstore\n        /* \"#utility.yul\":12751:12755   */\n      0x32\n        /* \"#utility.yul\":12748:12749   */\n      0x04\n        /* \"#utility.yul\":12741:12756   */\n      mstore\n        /* \"#utility.yul\":12775:12779   */\n      0x24\n        /* \"#utility.yul\":12772:12773   */\n      0x00\n        /* \"#utility.yul\":12765:12780   */\n      revert\n        /* \"#utility.yul\":12792:12973   */\n    tag_103:\n        /* \"#utility.yul\":12932:12965   */\n      0x594f55275645205245414348454420544845205457454554204c494d49542100\n        /* \"#utility.yul\":12928:12929   */\n      0x00\n        /* \"#utility.yul\":12920:12926   */\n      dup3\n        /* \"#utility.yul\":12916:12930   */\n      add\n        /* \"#utility.yul\":12909:12966   */\n      mstore\n        /* \"#utility.yul\":12792:12973   */\n      pop\n      jump\t// out\n        /* \"#utility.yul\":12979:13345   */\n    tag_104:\n        /* \"#utility.yul\":13121:13124   */\n      0x00\n        /* \"#utility.yul\":13142:13209   */\n      tag_243\n        /* \"#utility.yul\":13206:13208   */\n      0x1f\n        /* \"#utility.yul\":13201:13204   */\n      dup4\n        /* \"#utility.yul\":13142:13209   */\n      tag_76\n      jump\t// in\n    tag_243:\n        /* \"#utility.yul\":13135:13209   */\n      swap2\n      pop\n        /* \"#utility.yul\":13218:13311   */\n      tag_244\n        /* \"#utility.yul\":13307:13310   */\n      dup3\n        /* \"#utility.yul\":13218:13311   */\n      tag_103\n      jump\t// in\n    tag_244:\n        /* \"#utility.yul\":13336:13338   */\n      0x20\n        /* \"#utility.yul\":13331:13334   */\n      dup3\n        /* \"#utility.yul\":13327:13339   */\n      add\n        /* \"#utility.yul\":13320:13339   */\n      swap1\n      pop\n        /* \"#utility.yul\":12979:13345   */\n      swap2\n      swap1\n      pop\n      jump\t// out\n        /* \"#utility.yul\":13351:13770   */\n    tag_60:\n        /* \"#utility.yul\":13517:13521   */\n      0x00\n        /* \"#utility.yul\":13555:13557   */\n      0x20\n        /* \"#utility.yul\":13544:13553   */\n      dup3\n        /* \"#utility.yul\":13540:13558   */\n      add\n        /* \"#utility.yul\":13532:13558   */\n      swap1\n      pop\n        /* \"#utility.yul\":13604:13613   */\n      dup2\n        /* \"#utility.yul\":13598:13602   */\n      dup2\n        /* \"#utility.yul\":13594:13614   */\n      sub\n        /* \"#utility.yul\":13590:13591   */\n      0x00\n        /* \"#utility.yul\":13579:13588   */\n      dup4\n        /* \"#utility.yul\":13575:13592   */\n      add\n        /* \"#utility.yul\":13568:13615   */\n      mstore\n        /* \"#utility.yul\":13632:13763   */\n      tag_246\n        /* \"#utility.yul\":13758:13762   */\n      dup2\n        /* \"#utility.yul\":13632:13763   */\n      tag_104\n      jump\t// in\n    tag_246:\n        /* \"#utility.yul\":13624:13763   */\n      swap1\n      pop\n        /* \"#utility.yul\":13351:13770   */\n      swap2\n      swap1\n      pop\n      jump\t// out\n        /* \"#utility.yul\":13776:13917   */\n    tag_105:\n        /* \"#utility.yul\":13825:13829   */\n      0x00\n        /* \"#utility.yul\":13848:13851   */\n      dup2\n        /* \"#utility.yul\":13840:13851   */\n      swap1\n      pop\n        /* \"#utility.yul\":13871:13874   */\n      dup2\n        /* \"#utility.yul\":13868:13869   */\n      0x00\n        /* \"#utility.yul\":13861:13875   */\n      mstore\n        /* \"#utility.yul\":13905:13909   */\n      0x20\n        /* \"#utility.yul\":13902:13903   */\n      0x00\n        /* \"#utility.yul\":13892:13910   */\n      keccak256\n        /* \"#utility.yul\":13884:13910   */\n      swap1\n      pop\n        /* \"#utility.yul\":13776:13917   */\n      swap2\n      swap1\n      pop\n      jump\t// out\n        /* \"#utility.yul\":13923:14016   */\n    tag_106:\n        /* \"#utility.yul\":13960:13966   */\n      0x00\n        /* \"#utility.yul\":14007:14009   */\n      0x20\n        /* \"#utility.yul\":14002:14004   */\n      0x1f\n        /* \"#utility.yul\":13995:14000   */\n      dup4\n        /* \"#utility.yul\":13991:14005   */\n      add\n        /* \"#utility.yul\":13987:14010   */\n      div\n        /* \"#utility.yul\":13977:14010   */\n      swap1\n      pop\n        /* \"#utility.yul\":13923:14016   */\n      swap2\n      swap1\n      pop\n      jump\t// out\n        /* \"#utility.yul\":14022:14129   */\n    tag_107:\n        /* \"#utility.yul\":14066:14074   */\n      0x00\n        /* \"#utility.yul\":14116:14121   */\n      dup3\n        /* \"#utility.yul\":14110:14114   */\n      dup3\n        /* \"#utility.yul\":14106:14122   */\n      shl\n        /* \"#utility.yul\":14085:14122   */\n      swap1\n      pop\n        /* \"#utility.yul\":14022:14129   */\n      swap3\n      swap2\n      pop\n      pop\n      jump\t// out\n        /* \"#utility.yul\":14135:14528   */\n    tag_108:\n        /* \"#utility.yul\":14204:14210   */\n      0x00\n        /* \"#utility.yul\":14254:14255   */\n      0x08\n        /* \"#utility.yul\":14242:14252   */\n      dup4\n        /* \"#utility.yul\":14238:14256   */\n      mul\n        /* \"#utility.yul\":14277:14374   */\n      tag_251\n        /* \"#utility.yul\":14307:14373   */\n      0xffffffffffffffffffffffffffffffffffffffffffffffffffffffffffffffff\n        /* \"#utility.yul\":14296:14305   */\n      dup3\n        /* \"#utility.yul\":14277:14374   */\n      tag_107\n      jump\t// in\n    tag_251:\n        /* \"#utility.yul\":14395:14434   */\n      tag_252\n        /* \"#utility.yul\":14425:14433   */\n      dup7\n        /* \"#utility.yul\":14414:14423   */\n      dup4\n        /* \"#utility.yul\":14395:14434   */\n      tag_107\n      jump\t// in\n    tag_252:\n        /* \"#utility.yul\":14383:14434   */\n      swap6\n      pop\n        /* \"#utility.yul\":14467:14471   */\n      dup1\n        /* \"#utility.yul\":14463:14472   */\n      not\n        /* \"#utility.yul\":14456:14461   */\n      dup5\n        /* \"#utility.yul\":14452:14473   */\n      and\n        /* \"#utility.yul\":14443:14473   */\n      swap4\n      pop\n        /* \"#utility.yul\":14516:14520   */\n      dup1\n        /* \"#utility.yul\":14506:14514   */\n      dup7\n        /* \"#utility.yul\":14502:14521   */\n      and\n        /* \"#utility.yul\":14495:14500   */\n      dup5\n        /* \"#utility.yul\":14492:14522   */\n      or\n        /* \"#utility.yul\":14482:14522   */\n      swap3\n      pop\n        /* \"#utility.yul\":14211:14528   */\n      pop\n      pop\n        /* \"#utility.yul\":14135:14528   */\n      swap4\n      swap3\n      pop\n      pop\n      pop\n      jump\t// out\n        /* \"#utility.yul\":14534:14594   */\n    tag_109:\n        /* \"#utility.yul\":14562:14565   */\n      0x00\n        /* \"#utility.yul\":14583:14588   */\n      dup2\n        /* \"#utility.yul\":14576:14588   */\n      swap1\n      pop\n        /* \"#utility.yul\":14534:14594   */\n      swap2\n      swap1\n      pop\n      jump\t// out\n        /* \"#utility.yul\":14600:14742   */\n    tag_110:\n        /* \"#utility.yul\":14650:14659   */\n      0x00\n        /* \"#utility.yul\":14683:14736   */\n      tag_255\n        /* \"#utility.yul\":14701:14735   */\n      tag_256\n        /* \"#utility.yul\":14710:14734   */\n      tag_257\n        /* \"#utility.yul\":14728:14733   */\n      dup5\n        /* \"#utility.yul\":14710:14734   */\n      tag_71\n      jump\t// in\n    tag_257:\n        /* \"#utility.yul\":14701:14735   */\n      tag_109\n      jump\t// in\n    tag_256:\n        /* \"#utility.yul\":14683:14736   */\n      tag_71\n      jump\t// in\n    tag_255:\n        /* \"#utility.yul\":14670:14736   */\n      swap1\n      pop\n        /* \"#utility.yul\":14600:14742   */\n      swap2\n      swap1\n      pop\n      jump\t// out\n        /* \"#utility.yul\":14748:14823   */\n    tag_111:\n        /* \"#utility.yul\":14791:14794   */\n      0x00\n        /* \"#utility.yul\":14812:14817   */\n      dup2\n        /* \"#utility.yul\":14805:14817   */\n      swap1\n      pop\n        /* \"#utility.yul\":14748:14823   */\n      swap2\n      swap1\n      pop\n      jump\t// out\n        /* \"#utility.yul\":14829:15098   */\n    tag_112:\n        /* \"#utility.yul\":14939:14978   */\n      tag_260\n        /* \"#utility.yul\":14970:14977   */\n      dup4\n        /* \"#utility.yul\":14939:14978   */\n      tag_110\n      jump\t// in\n    tag_260:\n        /* \"#utility.yul\":15000:15091   */\n      tag_261\n        /* \"#utility.yul\":15049:15090   */\n      tag_262\n        /* \"#utility.yul\":15073:15089   */\n      dup3\n        /* \"#utility.yul\":15049:15090   */\n      tag_111\n      jump\t// in\n    tag_262:\n        /* \"#utility.yul\":15041:15047   */\n      dup5\n        /* \"#utility.yul\":15034:15038   */\n      dup5\n        /* \"#utility.yul\":15028:15039   */\n      sload\n        /* \"#utility.yul\":15000:15091   */\n      tag_108\n      jump\t// in\n    tag_261:\n        /* \"#utility.yul\":14994:14998   */\n      dup3\n        /* \"#utility.yul\":14987:15092   */\n      sstore\n        /* \"#utility.yul\":14905:15098   */\n      pop\n        /* \"#utility.yul\":14829:15098   */\n      pop\n      pop\n      pop\n      jump\t// out\n        /* \"#utility.yul\":15104:15177   */\n    tag_113:\n        /* \"#utility.yul\":15149:15152   */\n      0x00\n        /* \"#utility.yul\":15170:15171   */\n      0x00\n        /* \"#utility.yul\":15163:15171   */\n      swap1\n      pop\n        /* \"#utility.yul\":15104:15177   */\n      swap1\n      jump\t// out\n        /* \"#utility.yul\":15183:15372   */\n    tag_114:\n        /* \"#utility.yul\":15260:15292   */\n      tag_265\n      tag_113\n      jump\t// in\n    tag_265:\n        /* \"#utility.yul\":15301:15366   */\n      tag_266\n        /* \"#utility.yul\":15359:15365   */\n      dup2\n        /* \"#utility.yul\":15351:15357   */\n      dup5\n        /* \"#utility.yul\":15345:15349   */\n      dup5\n        /* \"#utility.yul\":15301:15366   */\n      tag_112\n      jump\t// in\n    tag_266:\n        /* \"#utility.yul\":15236:15372   */\n      pop\n        /* \"#utility.yul\":15183:15372   */\n      pop\n      pop\n      jump\t// out\n        /* \"#utility.yul\":15378:15564   */\n    tag_115:\n        /* \"#utility.yul\":15438:15558   */\n    tag_268:\n        /* \"#utility.yul\":15455:15458   */\n      dup2\n        /* \"#utility.yul\":15448:15453   */\n      dup2\n        /* \"#utility.yul\":15445:15459   */\n      lt\n        /* \"#utility.yul\":15438:15558   */\n      iszero\n      tag_270\n      jumpi\n        /* \"#utility.yul\":15509:15548   */\n      tag_271\n        /* \"#utility.yul\":15546:15547   */\n      0x00\n        /* \"#utility.yul\":15539:15544   */\n      dup3\n        /* \"#utility.yul\":15509:15548   */\n      tag_114\n      jump\t// in\n    tag_271:\n        /* \"#utility.yul\":15482:15483   */\n      0x01\n        /* \"#utility.yul\":15475:15480   */\n      dup2\n        /* \"#utility.yul\":15471:15484   */\n      add\n        /* \"#utility.yul\":15462:15484   */\n      swap1\n      pop\n        /* \"#utility.yul\":15438:15558   */\n      jump(tag_268)\n    tag_270:\n        /* \"#utility.yul\":15378:15564   */\n      pop\n      pop\n      jump\t// out\n        /* \"#utility.yul\":15570:16113   */\n    tag_116:\n        /* \"#utility.yul\":15671:15673   */\n      0x1f\n        /* \"#utility.yul\":15666:15669   */\n      dup3\n        /* \"#utility.yul\":15663:15674   */\n      gt\n        /* \"#utility.yul\":15660:16106   */\n      iszero\n      tag_273\n      jumpi\n        /* \"#utility.yul\":15705:15743   */\n      tag_274\n        /* \"#utility.yul\":15737:15742   */\n      dup2\n        /* \"#utility.yul\":15705:15743   */\n      tag_105\n      jump\t// in\n    tag_274:\n        /* \"#utility.yul\":15789:15818   */\n      tag_275\n        /* \"#utility.yul\":15807:15817   */\n      dup5\n        /* \"#utility.yul\":15789:15818   */\n      tag_106\n      jump\t// in\n    tag_275:\n        /* \"#utility.yul\":15779:15787   */\n      dup2\n        /* \"#utility.yul\":15775:15819   */\n      add\n        /* \"#utility.yul\":15972:15974   */\n      0x20\n        /* \"#utility.yul\":15960:15970   */\n      dup6\n        /* \"#utility.yul\":15957:15975   */\n      lt\n        /* \"#utility.yul\":15954:16003   */\n      iszero\n      tag_276\n      jumpi\n        /* \"#utility.yul\":15993:16001   */\n      dup2\n        /* \"#utility.yul\":15978:16001   */\n      swap1\n      pop\n        /* \"#utility.yul\":15954:16003   */\n    tag_276:\n        /* \"#utility.yul\":16016:16096   */\n      tag_277\n        /* \"#utility.yul\":16072:16094   */\n      tag_278\n        /* \"#utility.yul\":16090:16093   */\n      dup6\n        /* \"#utility.yul\":16072:16094   */\n      tag_106\n      jump\t// in\n    tag_278:\n        /* \"#utility.yul\":16062:16070   */\n      dup4\n        /* \"#utility.yul\":16058:16095   */\n      add\n        /* \"#utility.yul\":16045:16056   */\n      dup3\n        /* \"#utility.yul\":16016:16096   */\n      tag_115\n      jump\t// in\n    tag_277:\n        /* \"#utility.yul\":15675:16106   */\n      pop\n      pop\n        /* \"#utility.yul\":15660:16106   */\n    tag_273:\n        /* \"#utility.yul\":15570:16113   */\n      pop\n      pop\n      pop\n      jump\t// out\n        /* \"#utility.yul\":16119:16236   */\n    tag_117:\n        /* \"#utility.yul\":16173:16181   */\n      0x00\n        /* \"#utility.yul\":16223:16228   */\n      dup3\n        /* \"#utility.yul\":16217:16221   */\n      dup3\n        /* \"#utility.yul\":16213:16229   */\n      shr\n        /* \"#utility.yul\":16192:16229   */\n      swap1\n      pop\n        /* \"#utility.yul\":16119:16236   */\n      swap3\n      swap2\n      pop\n      pop\n      jump\t// out\n        /* \"#utility.yul\":16242:16411   */\n    tag_118:\n        /* \"#utility.yul\":16286:16292   */\n      0x00\n        /* \"#utility.yul\":16319:16370   */\n      tag_281\n        /* \"#utility.yul\":16367:16368   */\n      0x00\n        /* \"#utility.yul\":16363:16369   */\n      not\n        /* \"#utility.yul\":16355:16360   */\n      dup5\n        /* \"#utility.yul\":16352:16353   */\n      0x08\n        /* \"#utility.yul\":16348:16361   */\n      mul\n        /* \"#utility.yul\":16319:16370   */\n      tag_117\n      jump\t// in\n    tag_281:\n        /* \"#utility.yul\":16315:16371   */\n      not\n        /* \"#utility.yul\":16400:16404   */\n      dup1\n        /* \"#utility.yul\":16394:16398   */\n      dup4\n        /* \"#utility.yul\":16390:16405   */\n      and\n        /* \"#utility.yul\":16380:16405   */\n      swap2\n      pop\n        /* \"#utility.yul\":16293:16411   */\n      pop\n        /* \"#utility.yul\":16242:16411   */\n      swap3\n      swap2\n      pop\n      pop\n      jump\t// out\n        /* \"#utility.yul\":16416:16711   */\n    tag_119:\n        /* \"#utility.yul\":16492:16496   */\n      0x00\n        /* \"#utility.yul\":16638:16667   */\n      tag_283\n        /* \"#utility.yul\":16663:16666   */\n      dup4\n        /* \"#utility.yul\":16657:16661   */\n      dup4\n        /* \"#utility.yul\":16638:16667   */\n      tag_118\n      jump\t// in\n    tag_283:\n        /* \"#utility.yul\":16630:16667   */\n      swap2\n      pop\n        /* \"#utility.yul\":16700:16703   */\n      dup3\n        /* \"#utility.yul\":16697:16698   */\n      0x02\n        /* \"#utility.yul\":16693:16704   */\n      mul\n        /* \"#utility.yul\":16687:16691   */\n      dup3\n        /* \"#utility.yul\":16684:16705   */\n      or\n        /* \"#utility.yul\":16676:16705   */\n      swap1\n      pop\n        /* \"#utility.yul\":16416:16711   */\n      swap3\n      swap2\n      pop\n      pop\n      jump\t// out\n        /* \"#utility.yul\":16716:18111   */\n    tag_63:\n        /* \"#utility.yul\":16833:16870   */\n      tag_285\n        /* \"#utility.yul\":16866:16869   */\n      dup3\n        /* \"#utility.yul\":16833:16870   */\n      tag_75\n      jump\t// in\n    tag_285:\n        /* \"#utility.yul\":16935:16953   */\n      0xffffffffffffffff\n        /* \"#utility.yul\":16927:16933   */\n      dup2\n        /* \"#utility.yul\":16924:16954   */\n      gt\n        /* \"#utility.yul\":16921:16977   */\n      iszero\n      tag_286\n      jumpi\n        /* \"#utility.yul\":16957:16975   */\n      tag_287\n      tag_95\n      jump\t// in\n    tag_287:\n        /* \"#utility.yul\":16921:16977   */\n    tag_286:\n        /* \"#utility.yul\":17001:17039   */\n      tag_288\n        /* \"#utility.yul\":17033:17037   */\n      dup3\n        /* \"#utility.yul\":17027:17038   */\n      sload\n        /* \"#utility.yul\":17001:17039   */\n      tag_31\n      jump\t// in\n    tag_288:\n        /* \"#utility.yul\":17086:17153   */\n      tag_289\n        /* \"#utility.yul\":17146:17152   */\n      dup3\n        /* \"#utility.yul\":17138:17144   */\n      dup3\n        /* \"#utility.yul\":17132:17136   */\n      dup6\n        /* \"#utility.yul\":17086:17153   */\n      tag_116\n      jump\t// in\n    tag_289:\n        /* \"#utility.yul\":17180:17181   */\n      0x00\n        /* \"#utility.yul\":17204:17208   */\n      0x20\n        /* \"#utility.yul\":17191:17208   */\n      swap1\n      pop\n        /* \"#utility.yul\":17236:17238   */\n      0x1f\n        /* \"#utility.yul\":17228:17234   */\n      dup4\n        /* \"#utility.yul\":17225:17239   */\n      gt\n        /* \"#utility.yul\":17253:17254   */\n      0x01\n        /* \"#utility.yul\":17248:17866   */\n      dup2\n      eq\n      tag_291\n      jumpi\n        /* \"#utility.yul\":17910:17911   */\n      0x00\n        /* \"#utility.yul\":17927:17933   */\n      dup5\n        /* \"#utility.yul\":17924:18001   */\n      iszero\n      tag_292\n      jumpi\n        /* \"#utility.yul\":17976:17985   */\n      dup3\n        /* \"#utility.yul\":17971:17974   */\n      dup8\n        /* \"#utility.yul\":17967:17986   */\n      add\n        /* \"#utility.yul\":17961:17987   */\n      mload\n        /* \"#utility.yul\":17952:17987   */\n      swap1\n      pop\n        /* \"#utility.yul\":17924:18001   */\n    tag_292:\n        /* \"#utility.yul\":18027:18094   */\n      tag_293\n        /* \"#utility.yul\":18087:18093   */\n      dup6\n        /* \"#utility.yul\":18080:18085   */\n      dup3\n        /* \"#utility.yul\":18027:18094   */\n      tag_119\n      jump\t// in\n    tag_293:\n        /* \"#utility.yul\":18021:18025   */\n      dup7\n        /* \"#utility.yul\":18014:18095   */\n      sstore\n        /* \"#utility.yul\":17883:18105   */\n      pop\n        /* \"#utility.yul\":17218:18105   */\n      jump(tag_290)\n        /* \"#utility.yul\":17248:17866   */\n    tag_291:\n        /* \"#utility.yul\":17300:17304   */\n      0x1f\n        /* \"#utility.yul\":17296:17305   */\n      not\n        /* \"#utility.yul\":17288:17294   */\n      dup5\n        /* \"#utility.yul\":17284:17306   */\n      and\n        /* \"#utility.yul\":17334:17371   */\n      tag_294\n        /* \"#utility.yul\":17366:17370   */\n      dup7\n        /* \"#utility.yul\":17334:17371   */\n      tag_105\n      jump\t// in\n    tag_294:\n        /* \"#utility.yul\":17393:17394   */\n      0x00\n        /* \"#utility.yul\":17407:17615   */\n    tag_295:\n        /* \"#utility.yul\":17421:17428   */\n      dup3\n        /* \"#utility.yul\":17418:17419   */\n      dup2\n        /* \"#utility.yul\":17415:17429   */\n      lt\n        /* \"#utility.yul\":17407:17615   */\n      iszero\n      tag_297\n      jumpi\n        /* \"#utility.yul\":17500:17509   */\n      dup5\n        /* \"#utility.yul\":17495:17498   */\n      dup10\n        /* \"#utility.yul\":17491:17510   */\n      add\n        /* \"#utility.yul\":17485:17511   */\n      mload\n        /* \"#utility.yul\":17477:17483   */\n      dup3\n        /* \"#utility.yul\":17470:17512   */\n      sstore\n        /* \"#utility.yul\":17551:17552   */\n      0x01\n        /* \"#utility.yul\":17543:17549   */\n      dup3\n        /* \"#utility.yul\":17539:17553   */\n      add\n        /* \"#utility.yul\":17529:17553   */\n      swap2\n      pop\n        /* \"#utility.yul\":17598:17600   */\n      0x20\n        /* \"#utility.yul\":17587:17596   */\n      dup6\n        /* \"#utility.yul\":17583:17601   */\n      add\n        /* \"#utility.yul\":17570:17601   */\n      swap5\n      pop\n        /* \"#utility.yul\":17444:17448   */\n      0x20\n        /* \"#utility.yul\":17441:17442   */\n      dup2\n        /* \"#utility.yul\":17437:17449   */\n      add\n        /* \"#utility.yul\":17432:17449   */\n      swap1\n      pop\n        /* \"#utility.yul\":17407:17615   */\n      jump(tag_295)\n    tag_297:\n        /* \"#utility.yul\":17643:17649   */\n      dup7\n        /* \"#utility.yul\":17634:17641   */\n      dup4\n        /* \"#utility.yul\":17631:17650   */\n      lt\n        /* \"#utility.yul\":17628:17807   */\n      iszero\n      tag_298\n      jumpi\n        /* \"#utility.yul\":17701:17710   */\n      dup5\n        /* \"#utility.yul\":17696:17699   */\n      dup10\n        /* \"#utility.yul\":17692:17711   */\n      add\n        /* \"#utility.yul\":17686:17712   */\n      mload\n        /* \"#utility.yul\":17744:17792   */\n      tag_299\n        /* \"#utility.yul\":17786:17790   */\n      0x1f\n        /* \"#utility.yul\":17778:17784   */\n      dup10\n        /* \"#utility.yul\":17774:17791   */\n      and\n        /* \"#utility.yul\":17763:17772   */\n      dup3\n        /* \"#utility.yul\":17744:17792   */\n      tag_118\n      jump\t// in\n    tag_299:\n        /* \"#utility.yul\":17736:17742   */\n      dup4\n        /* \"#utility.yul\":17729:17793   */\n      sstore\n        /* \"#utility.yul\":17651:17807   */\n      pop\n        /* \"#utility.yul\":17628:17807   */\n    tag_298:\n        /* \"#utility.yul\":17853:17854   */\n      0x01\n        /* \"#utility.yul\":17849:17850   */\n      0x02\n        /* \"#utility.yul\":17841:17847   */\n      dup9\n        /* \"#utility.yul\":17837:17851   */\n      mul\n        /* \"#utility.yul\":17833:17855   */\n      add\n        /* \"#utility.yul\":17827:17831   */\n      dup9\n        /* \"#utility.yul\":17820:17856   */\n      sstore\n        /* \"#utility.yul\":17255:17866   */\n      pop\n      pop\n      pop\n        /* \"#utility.yul\":17218:18105   */\n    tag_290:\n      pop\n        /* \"#utility.yul\":16808:18111   */\n      pop\n      pop\n      pop\n        /* \"#utility.yul\":16716:18111   */\n      pop\n      pop\n      jump\t// out\n\n    auxdata: 0xa2646970667358221220fac01a4d493926ecf73e0361dc8f1d61b8e343cc5ad2bcbe43b819a2a3f9686464736f6c634300081e0033\n}\n",
				"bytecode": {
					"linkReferences": {},
					"object": "6080604052348015600e575f5ffd5b50610f838061001c5f395ff3fe608060405234801561000f575f5ffd5b506004361061004a575f3560e01c806305a1b4a91461004e578063112f54e31461008157806312e7ee1c146100b15780637c9cd2bc146100e1575b5f5ffd5b61006860048036038101906100639190610717565b6100fd565b60405161007894939291906107e3565b60405180910390f35b61009b60048036038101906100969190610717565b6101e7565b6040516100a891906108f3565b60405180910390f35b6100cb60048036038101906100c69190610913565b610354565b6040516100d89190610a59565b60405180910390f35b6100fb60048036038101906100f69190610ba5565b6104e4565b005b5f602052815f5260405f208181548110610115575f80fd5b905f5260205f2090600402015f9150915050805f015f9054906101000a900473ffffffffffffffffffffffffffffffffffffffff169080600101805461015a90610c19565b80601f016020809104026020016040519081016040528092919081815260200182805461018690610c19565b80156101d15780601f106101a8576101008083540402835291602001916101d1565b820191905f5260205f20905b8154815290600101906020018083116101b457829003601f168201915b5050505050908060020154908060030154905084565b6101ef61063e565b5f5f8473ffffffffffffffffffffffffffffffffffffffff1673ffffffffffffffffffffffffffffffffffffffff1681526020019081526020015f20828154811061023d5761023c610c49565b5b905f5260205f2090600402016040518060800160405290815f82015f9054906101000a900473ffffffffffffffffffffffffffffffffffffffff1673ffffffffffffffffffffffffffffffffffffffff1673ffffffffffffffffffffffffffffffffffffffff1681526020016001820180546102b890610c19565b80601f01602080910402602001604051908101604052809291908181526020018280546102e490610c19565b801561032f5780601f106103065761010080835404028352916020019161032f565b820191905f5260205f20905b81548152906001019060200180831161031257829003601f168201915b5050505050815260200160028201548152602001600382015481525050905092915050565b60605f5f8373ffffffffffffffffffffffffffffffffffffffff1673ffffffffffffffffffffffffffffffffffffffff1681526020019081526020015f20805480602002602001604051908101604052809291908181526020015f905b828210156104d9578382905f5260205f2090600402016040518060800160405290815f82015f9054906101000a900473ffffffffffffffffffffffffffffffffffffffff1673ffffffffffffffffffffffffffffffffffffffff1673ffffffffffffffffffffffffffffffffffffffff16815260200160018201805461043690610c19565b80601f016020809104026020016040519081016040528092919081815260200182805461046290610c19565b80156104ad5780601f10610484576101008083540402835291602001916104ad565b820191905f5260205f20905b81548152906001019060200180831161049057829003601f168201915b5050505050815260200160028201548152602001600382015481525050815260200190600101906103b1565b505050509050919050565b60fa61ffff168151111561052d576040517f08c379a000000000000000000000000000000000000000000000000000000000815260040161052490610cc0565b60405180910390fd5b5f60405180608001604052803373ffffffffffffffffffffffffffffffffffffffff1681526020018381526020014281526020015f81525090505f5f3373ffffffffffffffffffffffffffffffffffffffff1673ffffffffffffffffffffffffffffffffffffffff1681526020019081526020015f2081908060018154018082558091505060019003905f5260205f2090600402015f909190919091505f820151815f015f6101000a81548173ffffffffffffffffffffffffffffffffffffffff021916908373ffffffffffffffffffffffffffffffffffffffff16021790555060208201518160010190816106239190610e7e565b50604082015181600201556060820151816003015550505050565b60405180608001604052805f73ffffffffffffffffffffffffffffffffffffffff168152602001606081526020015f81526020015f81525090565b5f604051905090565b5f5ffd5b5f5ffd5b5f73ffffffffffffffffffffffffffffffffffffffff82169050919050565b5f6106b38261068a565b9050919050565b6106c3816106a9565b81146106cd575f5ffd5b50565b5f813590506106de816106ba565b92915050565b5f819050919050565b6106f6816106e4565b8114610700575f5ffd5b50565b5f81359050610711816106ed565b92915050565b5f5f6040838503121561072d5761072c610682565b5b5f61073a858286016106d0565b925050602061074b85828601610703565b9150509250929050565b61075e816106a9565b82525050565b5f81519050919050565b5f82825260208201905092915050565b8281835e5f83830152505050565b5f601f19601f8301169050919050565b5f6107a682610764565b6107b0818561076e565b93506107c081856020860161077e565b6107c98161078c565b840191505092915050565b6107dd816106e4565b82525050565b5f6080820190506107f65f830187610755565b8181036020830152610808818661079c565b905061081760408301856107d4565b61082460608301846107d4565b95945050505050565b610836816106a9565b82525050565b5f82825260208201905092915050565b5f61085682610764565b610860818561083c565b935061087081856020860161077e565b6108798161078c565b840191505092915050565b61088d816106e4565b82525050565b5f608083015f8301516108a85f86018261082d565b50602083015184820360208601526108c0828261084c565b91505060408301516108d56040860182610884565b5060608301516108e86060860182610884565b508091505092915050565b5f6020820190508181035f83015261090b8184610893565b905092915050565b5f6020828403121561092857610927610682565b5b5f610935848285016106d0565b91505092915050565b5f81519050919050565b5f82825260208201905092915050565b5f819050602082019050919050565b5f608083015f83015161097c5f86018261082d565b5060208301518482036020860152610994828261084c565b91505060408301516109a96040860182610884565b5060608301516109bc6060860182610884565b508091505092915050565b5f6109d28383610967565b905092915050565b5f602082019050919050565b5f6109f08261093e565b6109fa8185610948565b935083602082028501610a0c85610958565b805f5b85811015610a475784840389528151610a2885826109c7565b9450610a33836109da565b925060208a01995050600181019050610a0f565b50829750879550505050505092915050565b5f6020820190508181035f830152610a7181846109e6565b905092915050565b5f5ffd5b5f5ffd5b7f4e487b71000000000000000000000000000000000000000000000000000000005f52604160045260245ffd5b610ab78261078c565b810181811067ffffffffffffffff82111715610ad657610ad5610a81565b5b80604052505050565b5f610ae8610679565b9050610af48282610aae565b919050565b5f67ffffffffffffffff821115610b1357610b12610a81565b5b610b1c8261078c565b9050602081019050919050565b828183375f83830152505050565b5f610b49610b4484610af9565b610adf565b905082815260208101848484011115610b6557610b64610a7d565b5b610b70848285610b29565b509392505050565b5f82601f830112610b8c57610b8b610a79565b5b8135610b9c848260208601610b37565b91505092915050565b5f60208284031215610bba57610bb9610682565b5b5f82013567ffffffffffffffff811115610bd757610bd6610686565b5b610be384828501610b78565b91505092915050565b7f4e487b71000000000000000000000000000000000000000000000000000000005f52602260045260245ffd5b5f6002820490506001821680610c3057607f821691505b602082108103610c4357610c42610bec565b5b50919050565b7f4e487b71000000000000000000000000000000000000000000000000000000005f52603260045260245ffd5b7f594f55275645205245414348454420544845205457454554204c494d495421005f82015250565b5f610caa601f8361076e565b9150610cb582610c76565b602082019050919050565b5f6020820190508181035f830152610cd781610c9e565b9050919050565b5f819050815f5260205f209050919050565b5f6020601f8301049050919050565b5f82821b905092915050565b5f60088302610d3a7fffffffffffffffffffffffffffffffffffffffffffffffffffffffffffffffff82610cff565b610d448683610cff565b95508019841693508086168417925050509392505050565b5f819050919050565b5f610d7f610d7a610d75846106e4565b610d5c565b6106e4565b9050919050565b5f819050919050565b610d9883610d65565b610dac610da482610d86565b848454610d0b565b825550505050565b5f5f905090565b610dc3610db4565b610dce818484610d8f565b505050565b5b81811015610df157610de65f82610dbb565b600181019050610dd4565b5050565b601f821115610e3657610e0781610cde565b610e1084610cf0565b81016020851015610e1f578190505b610e33610e2b85610cf0565b830182610dd3565b50505b505050565b5f82821c905092915050565b5f610e565f1984600802610e3b565b1980831691505092915050565b5f610e6e8383610e47565b9150826002028217905092915050565b610e8782610764565b67ffffffffffffffff811115610ea057610e9f610a81565b5b610eaa8254610c19565b610eb5828285610df5565b5f60209050601f831160018114610ee6575f8415610ed4578287015190505b610ede8582610e63565b865550610f45565b601f198416610ef486610cde565b5f5b82811015610f1b57848901518255600182019150602085019450602081019050610ef6565b86831015610f385784890151610f34601f891682610e47565b8355505b6001600288020188555050505b50505050505056fea2646970667358221220fac01a4d493926ecf73e0361dc8f1d61b8e343cc5ad2bcbe43b819a2a3f9686464736f6c634300081e0033",
					"opcodes": "PUSH1 0x80 PUSH1 0x40 MSTORE CALLVALUE DUP1 ISZERO PUSH1 0xE JUMPI PUSH0 PUSH0 REVERT JUMPDEST POP PUSH2 0xF83 DUP1 PUSH2 0x1C PUSH0 CODECOPY PUSH0 RETURN INVALID PUSH1 0x80 PUSH1 0x40 MSTORE CALLVALUE DUP1 ISZERO PUSH2 0xF JUMPI PUSH0 PUSH0 REVERT JUMPDEST POP PUSH1 0x4 CALLDATASIZE LT PUSH2 0x4A JUMPI PUSH0 CALLDATALOAD PUSH1 0xE0 SHR DUP1 PUSH4 0x5A1B4A9 EQ PUSH2 0x4E JUMPI DUP1 PUSH4 0x112F54E3 EQ PUSH2 0x81 JUMPI DUP1 PUSH4 0x12E7EE1C EQ PUSH2 0xB1 JUMPI DUP1 PUSH4 0x7C9CD2BC EQ PUSH2 0xE1 JUMPI JUMPDEST PUSH0 PUSH0 REVERT JUMPDEST PUSH2 0x68 PUSH1 0x4 DUP1 CALLDATASIZE SUB DUP2 ADD SWAP1 PUSH2 0x63 SWAP2 SWAP1 PUSH2 0x717 JUMP JUMPDEST PUSH2 0xFD JUMP JUMPDEST PUSH1 0x40 MLOAD PUSH2 0x78 SWAP5 SWAP4 SWAP3 SWAP2 SWAP1 PUSH2 0x7E3 JUMP JUMPDEST PUSH1 0x40 MLOAD DUP1 SWAP2 SUB SWAP1 RETURN JUMPDEST PUSH2 0x9B PUSH1 0x4 DUP1 CALLDATASIZE SUB DUP2 ADD SWAP1 PUSH2 0x96 SWAP2 SWAP1 PUSH2 0x717 JUMP JUMPDEST PUSH2 0x1E7 JUMP JUMPDEST PUSH1 0x40 MLOAD PUSH2 0xA8 SWAP2 SWAP1 PUSH2 0x8F3 JUMP JUMPDEST PUSH1 0x40 MLOAD DUP1 SWAP2 SUB SWAP1 RETURN JUMPDEST PUSH2 0xCB PUSH1 0x4 DUP1 CALLDATASIZE SUB DUP2 ADD SWAP1 PUSH2 0xC6 SWAP2 SWAP1 PUSH2 0x913 JUMP JUMPDEST PUSH2 0x354 JUMP JUMPDEST PUSH1 0x40 MLOAD PUSH2 0xD8 SWAP2 SWAP1 PUSH2 0xA59 JUMP JUMPDEST PUSH1 0x40 MLOAD DUP1 SWAP2 SUB SWAP1 RETURN JUMPDEST PUSH2 0xFB PUSH1 0x4 DUP1 CALLDATASIZE SUB DUP2 ADD SWAP1 PUSH2 0xF6 SWAP2 SWAP1 PUSH2 0xBA5 JUMP JUMPDEST PUSH2 0x4E4 JUMP JUMPDEST STOP JUMPDEST PUSH0 PUSH1 0x20 MSTORE DUP2 PUSH0 MSTORE PUSH1 0x40 PUSH0 KECCAK256 DUP2 DUP2 SLOAD DUP2 LT PUSH2 0x115 JUMPI PUSH0 DUP1 REVERT JUMPDEST SWAP1 PUSH0 MSTORE PUSH1 0x20 PUSH0 KECCAK256 SWAP1 PUSH1 0x4 MUL ADD PUSH0 SWAP2 POP SWAP2 POP POP DUP1 PUSH0 ADD PUSH0 SWAP1 SLOAD SWAP1 PUSH2 0x100 EXP SWAP1 DIV PUSH20 0xFFFFFFFFFFFFFFFFFFFFFFFFFFFFFFFFFFFFFFFF AND SWAP1 DUP1 PUSH1 0x1 ADD DUP1 SLOAD PUSH2 0x15A SWAP1 PUSH2 0xC19 JUMP JUMPDEST DUP1 PUSH1 0x1F ADD PUSH1 0x20 DUP1 SWAP2 DIV MUL PUSH1 0x20 ADD PUSH1 0x40 MLOAD SWAP1 DUP2 ADD PUSH1 0x40 MSTORE DUP1 SWAP3 SWAP2 SWAP1 DUP2 DUP2 MSTORE PUSH1 0x20 ADD DUP3 DUP1 SLOAD PUSH2 0x186 SWAP1 PUSH2 0xC19 JUMP JUMPDEST DUP1 ISZERO PUSH2 0x1D1 JUMPI DUP1 PUSH1 0x1F LT PUSH2 0x1A8 JUMPI PUSH2 0x100 DUP1 DUP4 SLOAD DIV MUL DUP4 MSTORE SWAP2 PUSH1 0x20 ADD SWAP2 PUSH2 0x1D1 JUMP JUMPDEST DUP3 ADD SWAP2 SWAP1 PUSH0 MSTORE PUSH1 0x20 PUSH0 KECCAK256 SWAP1 JUMPDEST DUP2 SLOAD DUP2 MSTORE SWAP1 PUSH1 0x1 ADD SWAP1 PUSH1 0x20 ADD DUP1 DUP4 GT PUSH2 0x1B4 JUMPI DUP3 SWAP1 SUB PUSH1 0x1F AND DUP3 ADD SWAP2 JUMPDEST POP POP POP POP POP SWAP1 DUP1 PUSH1 0x2 ADD SLOAD SWAP1 DUP1 PUSH1 0x3 ADD SLOAD SWAP1 POP DUP5 JUMP JUMPDEST PUSH2 0x1EF PUSH2 0x63E JUMP JUMPDEST PUSH0 PUSH0 DUP5 PUSH20 0xFFFFFFFFFFFFFFFFFFFFFFFFFFFFFFFFFFFFFFFF AND PUSH20 0xFFFFFFFFFFFFFFFFFFFFFFFFFFFFFFFFFFFFFFFF AND DUP2 MSTORE PUSH1 0x20 ADD SWAP1 DUP2 MSTORE PUSH1 0x20 ADD PUSH0 KECCAK256 DUP3 DUP2 SLOAD DUP2 LT PUSH2 0x23D JUMPI PUSH2 0x23C PUSH2 0xC49 JUMP JUMPDEST JUMPDEST SWAP1 PUSH0 MSTORE PUSH1 0x20 PUSH0 KECCAK256 SWAP1 PUSH1 0x4 MUL ADD PUSH1 0x40 MLOAD DUP1 PUSH1 0x80 ADD PUSH1 0x40 MSTORE SWAP1 DUP2 PUSH0 DUP3 ADD PUSH0 SWAP1 SLOAD SWAP1 PUSH2 0x100 EXP SWAP1 DIV PUSH20 0xFFFFFFFFFFFFFFFFFFFFFFFFFFFFFFFFFFFFFFFF AND PUSH20 0xFFFFFFFFFFFFFFFFFFFFFFFFFFFFFFFFFFFFFFFF AND PUSH20 0xFFFFFFFFFFFFFFFFFFFFFFFFFFFFFFFFFFFFFFFF AND DUP2 MSTORE PUSH1 0x20 ADD PUSH1 0x1 DUP3 ADD DUP1 SLOAD PUSH2 0x2B8 SWAP1 PUSH2 0xC19 JUMP JUMPDEST DUP1 PUSH1 0x1F ADD PUSH1 0x20 DUP1 SWAP2 DIV MUL PUSH1 0x20 ADD PUSH1 0x40 MLOAD SWAP1 DUP2 ADD PUSH1 0x40 MSTORE DUP1 SWAP3 SWAP2 SWAP1 DUP2 DUP2 MSTORE PUSH1 0x20 ADD DUP3 DUP1 SLOAD PUSH2 0x2E4 SWAP1 PUSH2 0xC19 JUMP JUMPDEST DUP1 ISZERO PUSH2 0x32F JUMPI DUP1 PUSH1 0x1F LT PUSH2 0x306 JUMPI PUSH2 0x100 DUP1 DUP4 SLOAD DIV MUL DUP4 MSTORE SWAP2 PUSH1 0x20 ADD SWAP2 PUSH2 0x32F JUMP JUMPDEST DUP3 ADD SWAP2 SWAP1 PUSH0 MSTORE PUSH1 0x20 PUSH0 KECCAK256 SWAP1 JUMPDEST DUP2 SLOAD DUP2 MSTORE SWAP1 PUSH1 0x1 ADD SWAP1 PUSH1 0x20 ADD DUP1 DUP4 GT PUSH2 0x312 JUMPI DUP3 SWAP1 SUB PUSH1 0x1F AND DUP3 ADD SWAP2 JUMPDEST POP POP POP POP POP DUP2 MSTORE PUSH1 0x20 ADD PUSH1 0x2 DUP3 ADD SLOAD DUP2 MSTORE PUSH1 0x20 ADD PUSH1 0x3 DUP3 ADD SLOAD DUP2 MSTORE POP POP SWAP1 POP SWAP3 SWAP2 POP POP JUMP JUMPDEST PUSH1 0x60 PUSH0 PUSH0 DUP4 PUSH20 0xFFFFFFFFFFFFFFFFFFFFFFFFFFFFFFFFFFFFFFFF AND PUSH20 0xFFFFFFFFFFFFFFFFFFFFFFFFFFFFFFFFFFFFFFFF AND DUP2 MSTORE PUSH1 0x20 ADD SWAP1 DUP2 MSTORE PUSH1 0x20 ADD PUSH0 KECCAK256 DUP1 SLOAD DUP1 PUSH1 0x20 MUL PUSH1 0x20 ADD PUSH1 0x40 MLOAD SWAP1 DUP2 ADD PUSH1 0x40 MSTORE DUP1 SWAP3 SWAP2 SWAP1 DUP2 DUP2 MSTORE PUSH1 0x20 ADD PUSH0 SWAP1 JUMPDEST DUP3 DUP3 LT ISZERO PUSH2 0x4D9 JUMPI DUP4 DUP3 SWAP1 PUSH0 MSTORE PUSH1 0x20 PUSH0 KECCAK256 SWAP1 PUSH1 0x4 MUL ADD PUSH1 0x40 MLOAD DUP1 PUSH1 0x80 ADD PUSH1 0x40 MSTORE SWAP1 DUP2 PUSH0 DUP3 ADD PUSH0 SWAP1 SLOAD SWAP1 PUSH2 0x100 EXP SWAP1 DIV PUSH20 0xFFFFFFFFFFFFFFFFFFFFFFFFFFFFFFFFFFFFFFFF AND PUSH20 0xFFFFFFFFFFFFFFFFFFFFFFFFFFFFFFFFFFFFFFFF AND PUSH20 0xFFFFFFFFFFFFFFFFFFFFFFFFFFFFFFFFFFFFFFFF AND DUP2 MSTORE PUSH1 0x20 ADD PUSH1 0x1 DUP3 ADD DUP1 SLOAD PUSH2 0x436 SWAP1 PUSH2 0xC19 JUMP JUMPDEST DUP1 PUSH1 0x1F ADD PUSH1 0x20 DUP1 SWAP2 DIV MUL PUSH1 0x20 ADD PUSH1 0x40 MLOAD SWAP1 DUP2 ADD PUSH1 0x40 MSTORE DUP1 SWAP3 SWAP2 SWAP1 DUP2 DUP2 MSTORE PUSH1 0x20 ADD DUP3 DUP1 SLOAD PUSH2 0x462 SWAP1 PUSH2 0xC19 JUMP JUMPDEST DUP1 ISZERO PUSH2 0x4AD JUMPI DUP1 PUSH1 0x1F LT PUSH2 0x484 JUMPI PUSH2 0x100 DUP1 DUP4 SLOAD DIV MUL DUP4 MSTORE SWAP2 PUSH1 0x20 ADD SWAP2 PUSH2 0x4AD JUMP JUMPDEST DUP3 ADD SWAP2 SWAP1 PUSH0 MSTORE PUSH1 0x20 PUSH0 KECCAK256 SWAP1 JUMPDEST DUP2 SLOAD DUP2 MSTORE SWAP1 PUSH1 0x1 ADD SWAP1 PUSH1 0x20 ADD DUP1 DUP4 GT PUSH2 0x490 JUMPI DUP3 SWAP1 SUB PUSH1 0x1F AND DUP3 ADD SWAP2 JUMPDEST POP POP POP POP POP DUP2 MSTORE PUSH1 0x20 ADD PUSH1 0x2 DUP3 ADD SLOAD DUP2 MSTORE PUSH1 0x20 ADD PUSH1 0x3 DUP3 ADD SLOAD DUP2 MSTORE POP POP DUP2 MSTORE PUSH1 0x20 ADD SWAP1 PUSH1 0x1 ADD SWAP1 PUSH2 0x3B1 JUMP JUMPDEST POP POP POP POP SWAP1 POP SWAP2 SWAP1 POP JUMP JUMPDEST PUSH1 0xFA PUSH2 0xFFFF AND DUP2 MLOAD GT ISZERO PUSH2 0x52D JUMPI PUSH1 0x40 MLOAD PUSH32 0x8C379A000000000000000000000000000000000000000000000000000000000 DUP2 MSTORE PUSH1 0x4 ADD PUSH2 0x524 SWAP1 PUSH2 0xCC0 JUMP JUMPDEST PUSH1 0x40 MLOAD DUP1 SWAP2 SUB SWAP1 REVERT JUMPDEST PUSH0 PUSH1 0x40 MLOAD DUP1 PUSH1 0x80 ADD PUSH1 0x40 MSTORE DUP1 CALLER PUSH20 0xFFFFFFFFFFFFFFFFFFFFFFFFFFFFFFFFFFFFFFFF AND DUP2 MSTORE PUSH1 0x20 ADD DUP4 DUP2 MSTORE PUSH1 0x20 ADD TIMESTAMP DUP2 MSTORE PUSH1 0x20 ADD PUSH0 DUP2 MSTORE POP SWAP1 POP PUSH0 PUSH0 CALLER PUSH20 0xFFFFFFFFFFFFFFFFFFFFFFFFFFFFFFFFFFFFFFFF AND PUSH20 0xFFFFFFFFFFFFFFFFFFFFFFFFFFFFFFFFFFFFFFFF AND DUP2 MSTORE PUSH1 0x20 ADD SWAP1 DUP2 MSTORE PUSH1 0x20 ADD PUSH0 KECCAK256 DUP2 SWAP1 DUP1 PUSH1 0x1 DUP2 SLOAD ADD DUP1 DUP3 SSTORE DUP1 SWAP2 POP POP PUSH1 0x1 SWAP1 SUB SWAP1 PUSH0 MSTORE PUSH1 0x20 PUSH0 KECCAK256 SWAP1 PUSH1 0x4 MUL ADD PUSH0 SWAP1 SWAP2 SWAP1 SWAP2 SWAP1 SWAP2 POP PUSH0 DUP3 ADD MLOAD DUP2 PUSH0 ADD PUSH0 PUSH2 0x100 EXP DUP2 SLOAD DUP2 PUSH20 0xFFFFFFFFFFFFFFFFFFFFFFFFFFFFFFFFFFFFFFFF MUL NOT AND SWAP1 DUP4 PUSH20 0xFFFFFFFFFFFFFFFFFFFFFFFFFFFFFFFFFFFFFFFF AND MUL OR SWAP1 SSTORE POP PUSH1 0x20 DUP3 ADD MLOAD DUP2 PUSH1 0x1 ADD SWAP1 DUP2 PUSH2 0x623 SWAP2 SWAP1 PUSH2 0xE7E JUMP JUMPDEST POP PUSH1 0x40 DUP3 ADD MLOAD DUP2 PUSH1 0x2 ADD SSTORE PUSH1 0x60 DUP3 ADD MLOAD DUP2 PUSH1 0x3 ADD SSTORE POP POP POP POP JUMP JUMPDEST PUSH1 0x40 MLOAD DUP1 PUSH1 0x80 ADD PUSH1 0x40 MSTORE DUP1 PUSH0 PUSH20 0xFFFFFFFFFFFFFFFFFFFFFFFFFFFFFFFFFFFFFFFF AND DUP2 MSTORE PUSH1 0x20 ADD PUSH1 0x60 DUP2 MSTORE PUSH1 0x20 ADD PUSH0 DUP2 MSTORE PUSH1 0x20 ADD PUSH0 DUP2 MSTORE POP SWAP1 JUMP JUMPDEST PUSH0 PUSH1 0x40 MLOAD SWAP1 POP SWAP1 JUMP JUMPDEST PUSH0 PUSH0 REVERT JUMPDEST PUSH0 PUSH0 REVERT JUMPDEST PUSH0 PUSH20 0xFFFFFFFFFFFFFFFFFFFFFFFFFFFFFFFFFFFFFFFF DUP3 AND SWAP1 POP SWAP2 SWAP1 POP JUMP JUMPDEST PUSH0 PUSH2 0x6B3 DUP3 PUSH2 0x68A JUMP JUMPDEST SWAP1 POP SWAP2 SWAP1 POP JUMP JUMPDEST PUSH2 0x6C3 DUP2 PUSH2 0x6A9 JUMP JUMPDEST DUP2 EQ PUSH2 0x6CD JUMPI PUSH0 PUSH0 REVERT JUMPDEST POP JUMP JUMPDEST PUSH0 DUP2 CALLDATALOAD SWAP1 POP PUSH2 0x6DE DUP2 PUSH2 0x6BA JUMP JUMPDEST SWAP3 SWAP2 POP POP JUMP JUMPDEST PUSH0 DUP2 SWAP1 POP SWAP2 SWAP1 POP JUMP JUMPDEST PUSH2 0x6F6 DUP2 PUSH2 0x6E4 JUMP JUMPDEST DUP2 EQ PUSH2 0x700 JUMPI PUSH0 PUSH0 REVERT JUMPDEST POP JUMP JUMPDEST PUSH0 DUP2 CALLDATALOAD SWAP1 POP PUSH2 0x711 DUP2 PUSH2 0x6ED JUMP JUMPDEST SWAP3 SWAP2 POP POP JUMP JUMPDEST PUSH0 PUSH0 PUSH1 0x40 DUP4 DUP6 SUB SLT ISZERO PUSH2 0x72D JUMPI PUSH2 0x72C PUSH2 0x682 JUMP JUMPDEST JUMPDEST PUSH0 PUSH2 0x73A DUP6 DUP3 DUP7 ADD PUSH2 0x6D0 JUMP JUMPDEST SWAP3 POP POP PUSH1 0x20 PUSH2 0x74B DUP6 DUP3 DUP7 ADD PUSH2 0x703 JUMP JUMPDEST SWAP2 POP POP SWAP3 POP SWAP3 SWAP1 POP JUMP JUMPDEST PUSH2 0x75E DUP2 PUSH2 0x6A9 JUMP JUMPDEST DUP3 MSTORE POP POP JUMP JUMPDEST PUSH0 DUP2 MLOAD SWAP1 POP SWAP2 SWAP1 POP JUMP JUMPDEST PUSH0 DUP3 DUP3 MSTORE PUSH1 0x20 DUP3 ADD SWAP1 POP SWAP3 SWAP2 POP POP JUMP JUMPDEST DUP3 DUP2 DUP4 MCOPY PUSH0 DUP4 DUP4 ADD MSTORE POP POP POP JUMP JUMPDEST PUSH0 PUSH1 0x1F NOT PUSH1 0x1F DUP4 ADD AND SWAP1 POP SWAP2 SWAP1 POP JUMP JUMPDEST PUSH0 PUSH2 0x7A6 DUP3 PUSH2 0x764 JUMP JUMPDEST PUSH2 0x7B0 DUP2 DUP6 PUSH2 0x76E JUMP JUMPDEST SWAP4 POP PUSH2 0x7C0 DUP2 DUP6 PUSH1 0x20 DUP7 ADD PUSH2 0x77E JUMP JUMPDEST PUSH2 0x7C9 DUP2 PUSH2 0x78C JUMP JUMPDEST DUP5 ADD SWAP2 POP POP SWAP3 SWAP2 POP POP JUMP JUMPDEST PUSH2 0x7DD DUP2 PUSH2 0x6E4 JUMP JUMPDEST DUP3 MSTORE POP POP JUMP JUMPDEST PUSH0 PUSH1 0x80 DUP3 ADD SWAP1 POP PUSH2 0x7F6 PUSH0 DUP4 ADD DUP8 PUSH2 0x755 JUMP JUMPDEST DUP2 DUP2 SUB PUSH1 0x20 DUP4 ADD MSTORE PUSH2 0x808 DUP2 DUP7 PUSH2 0x79C JUMP JUMPDEST SWAP1 POP PUSH2 0x817 PUSH1 0x40 DUP4 ADD DUP6 PUSH2 0x7D4 JUMP JUMPDEST PUSH2 0x824 PUSH1 0x60 DUP4 ADD DUP5 PUSH2 0x7D4 JUMP JUMPDEST SWAP6 SWAP5 POP POP POP POP POP JUMP JUMPDEST PUSH2 0x836 DUP2 PUSH2 0x6A9 JUMP JUMPDEST DUP3 MSTORE POP POP JUMP JUMPDEST PUSH0 DUP3 DUP3 MSTORE PUSH1 0x20 DUP3 ADD SWAP1 POP SWAP3 SWAP2 POP POP JUMP JUMPDEST PUSH0 PUSH2 0x856 DUP3 PUSH2 0x764 JUMP JUMPDEST PUSH2 0x860 DUP2 DUP6 PUSH2 0x83C JUMP JUMPDEST SWAP4 POP PUSH2 0x870 DUP2 DUP6 PUSH1 0x20 DUP7 ADD PUSH2 0x77E JUMP JUMPDEST PUSH2 0x879 DUP2 PUSH2 0x78C JUMP JUMPDEST DUP5 ADD SWAP2 POP POP SWAP3 SWAP2 POP POP JUMP JUMPDEST PUSH2 0x88D DUP2 PUSH2 0x6E4 JUMP JUMPDEST DUP3 MSTORE POP POP JUMP JUMPDEST PUSH0 PUSH1 0x80 DUP4 ADD PUSH0 DUP4 ADD MLOAD PUSH2 0x8A8 PUSH0 DUP7 ADD DUP3 PUSH2 0x82D JUMP JUMPDEST POP PUSH1 0x20 DUP4 ADD MLOAD DUP5 DUP3 SUB PUSH1 0x20 DUP7 ADD MSTORE PUSH2 0x8C0 DUP3 DUP3 PUSH2 0x84C JUMP JUMPDEST SWAP2 POP POP PUSH1 0x40 DUP4 ADD MLOAD PUSH2 0x8D5 PUSH1 0x40 DUP7 ADD DUP3 PUSH2 0x884 JUMP JUMPDEST POP PUSH1 0x60 DUP4 ADD MLOAD PUSH2 0x8E8 PUSH1 0x60 DUP7 ADD DUP3 PUSH2 0x884 JUMP JUMPDEST POP DUP1 SWAP2 POP POP SWAP3 SWAP2 POP POP JUMP JUMPDEST PUSH0 PUSH1 0x20 DUP3 ADD SWAP1 POP DUP2 DUP2 SUB PUSH0 DUP4 ADD MSTORE PUSH2 0x90B DUP2 DUP5 PUSH2 0x893 JUMP JUMPDEST SWAP1 POP SWAP3 SWAP2 POP POP JUMP JUMPDEST PUSH0 PUSH1 0x20 DUP3 DUP5 SUB SLT ISZERO PUSH2 0x928 JUMPI PUSH2 0x927 PUSH2 0x682 JUMP JUMPDEST JUMPDEST PUSH0 PUSH2 0x935 DUP5 DUP3 DUP6 ADD PUSH2 0x6D0 JUMP JUMPDEST SWAP2 POP POP SWAP3 SWAP2 POP POP JUMP JUMPDEST PUSH0 DUP2 MLOAD SWAP1 POP SWAP2 SWAP1 POP JUMP JUMPDEST PUSH0 DUP3 DUP3 MSTORE PUSH1 0x20 DUP3 ADD SWAP1 POP SWAP3 SWAP2 POP POP JUMP JUMPDEST PUSH0 DUP2 SWAP1 POP PUSH1 0x20 DUP3 ADD SWAP1 POP SWAP2 SWAP1 POP JUMP JUMPDEST PUSH0 PUSH1 0x80 DUP4 ADD PUSH0 DUP4 ADD MLOAD PUSH2 0x97C PUSH0 DUP7 ADD DUP3 PUSH2 0x82D JUMP JUMPDEST POP PUSH1 0x20 DUP4 ADD MLOAD DUP5 DUP3 SUB PUSH1 0x20 DUP7 ADD MSTORE PUSH2 0x994 DUP3 DUP3 PUSH2 0x84C JUMP JUMPDEST SWAP2 POP POP PUSH1 0x40 DUP4 ADD MLOAD PUSH2 0x9A9 PUSH1 0x40 DUP7 ADD DUP3 PUSH2 0x884 JUMP JUMPDEST POP PUSH1 0x60 DUP4 ADD MLOAD PUSH2 0x9BC PUSH1 0x60 DUP7 ADD DUP3 PUSH2 0x884 JUMP JUMPDEST POP DUP1 SWAP2 POP POP SWAP3 SWAP2 POP POP JUMP JUMPDEST PUSH0 PUSH2 0x9D2 DUP4 DUP4 PUSH2 0x967 JUMP JUMPDEST SWAP1 POP SWAP3 SWAP2 POP POP JUMP JUMPDEST PUSH0 PUSH1 0x20 DUP3 ADD SWAP1 POP SWAP2 SWAP1 POP JUMP JUMPDEST PUSH0 PUSH2 0x9F0 DUP3 PUSH2 0x93E JUMP JUMPDEST PUSH2 0x9FA DUP2 DUP6 PUSH2 0x948 JUMP JUMPDEST SWAP4 POP DUP4 PUSH1 0x20 DUP3 MUL DUP6 ADD PUSH2 0xA0C DUP6 PUSH2 0x958 JUMP JUMPDEST DUP1 PUSH0 JUMPDEST DUP6 DUP2 LT ISZERO PUSH2 0xA47 JUMPI DUP5 DUP5 SUB DUP10 MSTORE DUP2 MLOAD PUSH2 0xA28 DUP6 DUP3 PUSH2 0x9C7 JUMP JUMPDEST SWAP5 POP PUSH2 0xA33 DUP4 PUSH2 0x9DA JUMP JUMPDEST SWAP3 POP PUSH1 0x20 DUP11 ADD SWAP10 POP POP PUSH1 0x1 DUP2 ADD SWAP1 POP PUSH2 0xA0F JUMP JUMPDEST POP DUP3 SWAP8 POP DUP8 SWAP6 POP POP POP POP POP POP SWAP3 SWAP2 POP POP JUMP JUMPDEST PUSH0 PUSH1 0x20 DUP3 ADD SWAP1 POP DUP2 DUP2 SUB PUSH0 DUP4 ADD MSTORE PUSH2 0xA71 DUP2 DUP5 PUSH2 0x9E6 JUMP JUMPDEST SWAP1 POP SWAP3 SWAP2 POP POP JUMP JUMPDEST PUSH0 PUSH0 REVERT JUMPDEST PUSH0 PUSH0 REVERT JUMPDEST PUSH32 0x4E487B7100000000000000000000000000000000000000000000000000000000 PUSH0 MSTORE PUSH1 0x41 PUSH1 0x4 MSTORE PUSH1 0x24 PUSH0 REVERT JUMPDEST PUSH2 0xAB7 DUP3 PUSH2 0x78C JUMP JUMPDEST DUP2 ADD DUP2 DUP2 LT PUSH8 0xFFFFFFFFFFFFFFFF DUP3 GT OR ISZERO PUSH2 0xAD6 JUMPI PUSH2 0xAD5 PUSH2 0xA81 JUMP JUMPDEST JUMPDEST DUP1 PUSH1 0x40 MSTORE POP POP POP JUMP JUMPDEST PUSH0 PUSH2 0xAE8 PUSH2 0x679 JUMP JUMPDEST SWAP1 POP PUSH2 0xAF4 DUP3 DUP3 PUSH2 0xAAE JUMP JUMPDEST SWAP2 SWAP1 POP JUMP JUMPDEST PUSH0 PUSH8 0xFFFFFFFFFFFFFFFF DUP3 GT ISZERO PUSH2 0xB13 JUMPI PUSH2 0xB12 PUSH2 0xA81 JUMP JUMPDEST JUMPDEST PUSH2 0xB1C DUP3 PUSH2 0x78C JUMP JUMPDEST SWAP1 POP PUSH1 0x20 DUP2 ADD SWAP1 POP SWAP2 SWAP1 POP JUMP JUMPDEST DUP3 DUP2 DUP4 CALLDATACOPY PUSH0 DUP4 DUP4 ADD MSTORE POP POP POP JUMP JUMPDEST PUSH0 PUSH2 0xB49 PUSH2 0xB44 DUP5 PUSH2 0xAF9 JUMP JUMPDEST PUSH2 0xADF JUMP JUMPDEST SWAP1 POP DUP3 DUP2 MSTORE PUSH1 0x20 DUP2 ADD DUP5 DUP5 DUP5 ADD GT ISZERO PUSH2 0xB65 JUMPI PUSH2 0xB64 PUSH2 0xA7D JUMP JUMPDEST JUMPDEST PUSH2 0xB70 DUP5 DUP3 DUP6 PUSH2 0xB29 JUMP JUMPDEST POP SWAP4 SWAP3 POP POP POP JUMP JUMPDEST PUSH0 DUP3 PUSH1 0x1F DUP4 ADD SLT PUSH2 0xB8C JUMPI PUSH2 0xB8B PUSH2 0xA79 JUMP JUMPDEST JUMPDEST DUP2 CALLDATALOAD PUSH2 0xB9C DUP5 DUP3 PUSH1 0x20 DUP7 ADD PUSH2 0xB37 JUMP JUMPDEST SWAP2 POP POP SWAP3 SWAP2 POP POP JUMP JUMPDEST PUSH0 PUSH1 0x20 DUP3 DUP5 SUB SLT ISZERO PUSH2 0xBBA JUMPI PUSH2 0xBB9 PUSH2 0x682 JUMP JUMPDEST JUMPDEST PUSH0 DUP3 ADD CALLDATALOAD PUSH8 0xFFFFFFFFFFFFFFFF DUP2 GT ISZERO PUSH2 0xBD7 JUMPI PUSH2 0xBD6 PUSH2 0x686 JUMP JUMPDEST JUMPDEST PUSH2 0xBE3 DUP5 DUP3 DUP6 ADD PUSH2 0xB78 JUMP JUMPDEST SWAP2 POP POP SWAP3 SWAP2 POP POP JUMP JUMPDEST PUSH32 0x4E487B7100000000000000000000000000000000000000000000000000000000 PUSH0 MSTORE PUSH1 0x22 PUSH1 0x4 MSTORE PUSH1 0x24 PUSH0 REVERT JUMPDEST PUSH0 PUSH1 0x2 DUP3 DIV SWAP1 POP PUSH1 0x1 DUP3 AND DUP1 PUSH2 0xC30 JUMPI PUSH1 0x7F DUP3 AND SWAP2 POP JUMPDEST PUSH1 0x20 DUP3 LT DUP2 SUB PUSH2 0xC43 JUMPI PUSH2 0xC42 PUSH2 0xBEC JUMP JUMPDEST JUMPDEST POP SWAP2 SWAP1 POP JUMP JUMPDEST PUSH32 0x4E487B7100000000000000000000000000000000000000000000000000000000 PUSH0 MSTORE PUSH1 0x32 PUSH1 0x4 MSTORE PUSH1 0x24 PUSH0 REVERT JUMPDEST PUSH32 0x594F55275645205245414348454420544845205457454554204C494D49542100 PUSH0 DUP3 ADD MSTORE POP JUMP JUMPDEST PUSH0 PUSH2 0xCAA PUSH1 0x1F DUP4 PUSH2 0x76E JUMP JUMPDEST SWAP2 POP PUSH2 0xCB5 DUP3 PUSH2 0xC76 JUMP JUMPDEST PUSH1 0x20 DUP3 ADD SWAP1 POP SWAP2 SWAP1 POP JUMP JUMPDEST PUSH0 PUSH1 0x20 DUP3 ADD SWAP1 POP DUP2 DUP2 SUB PUSH0 DUP4 ADD MSTORE PUSH2 0xCD7 DUP2 PUSH2 0xC9E JUMP JUMPDEST SWAP1 POP SWAP2 SWAP1 POP JUMP JUMPDEST PUSH0 DUP2 SWAP1 POP DUP2 PUSH0 MSTORE PUSH1 0x20 PUSH0 KECCAK256 SWAP1 POP SWAP2 SWAP1 POP JUMP JUMPDEST PUSH0 PUSH1 0x20 PUSH1 0x1F DUP4 ADD DIV SWAP1 POP SWAP2 SWAP1 POP JUMP JUMPDEST PUSH0 DUP3 DUP3 SHL SWAP1 POP SWAP3 SWAP2 POP POP JUMP JUMPDEST PUSH0 PUSH1 0x8 DUP4 MUL PUSH2 0xD3A PUSH32 0xFFFFFFFFFFFFFFFFFFFFFFFFFFFFFFFFFFFFFFFFFFFFFFFFFFFFFFFFFFFFFFFF DUP3 PUSH2 0xCFF JUMP JUMPDEST PUSH2 0xD44 DUP7 DUP4 PUSH2 0xCFF JUMP JUMPDEST SWAP6 POP DUP1 NOT DUP5 AND SWAP4 POP DUP1 DUP7 AND DUP5 OR SWAP3 POP POP POP SWAP4 SWAP3 POP POP POP JUMP JUMPDEST PUSH0 DUP2 SWAP1 POP SWAP2 SWAP1 POP JUMP JUMPDEST PUSH0 PUSH2 0xD7F PUSH2 0xD7A PUSH2 0xD75 DUP5 PUSH2 0x6E4 JUMP JUMPDEST PUSH2 0xD5C JUMP JUMPDEST PUSH2 0x6E4 JUMP JUMPDEST SWAP1 POP SWAP2 SWAP1 POP JUMP JUMPDEST PUSH0 DUP2 SWAP1 POP SWAP2 SWAP1 POP JUMP JUMPDEST PUSH2 0xD98 DUP4 PUSH2 0xD65 JUMP JUMPDEST PUSH2 0xDAC PUSH2 0xDA4 DUP3 PUSH2 0xD86 JUMP JUMPDEST DUP5 DUP5 SLOAD PUSH2 0xD0B JUMP JUMPDEST DUP3 SSTORE POP POP POP POP JUMP JUMPDEST PUSH0 PUSH0 SWAP1 POP SWAP1 JUMP JUMPDEST PUSH2 0xDC3 PUSH2 0xDB4 JUMP JUMPDEST PUSH2 0xDCE DUP2 DUP5 DUP5 PUSH2 0xD8F JUMP JUMPDEST POP POP POP JUMP JUMPDEST JUMPDEST DUP2 DUP2 LT ISZERO PUSH2 0xDF1 JUMPI PUSH2 0xDE6 PUSH0 DUP3 PUSH2 0xDBB JUMP JUMPDEST PUSH1 0x1 DUP2 ADD SWAP1 POP PUSH2 0xDD4 JUMP JUMPDEST POP POP JUMP JUMPDEST PUSH1 0x1F DUP3 GT ISZERO PUSH2 0xE36 JUMPI PUSH2 0xE07 DUP2 PUSH2 0xCDE JUMP JUMPDEST PUSH2 0xE10 DUP5 PUSH2 0xCF0 JUMP JUMPDEST DUP2 ADD PUSH1 0x20 DUP6 LT ISZERO PUSH2 0xE1F JUMPI DUP2 SWAP1 POP JUMPDEST PUSH2 0xE33 PUSH2 0xE2B DUP6 PUSH2 0xCF0 JUMP JUMPDEST DUP4 ADD DUP3 PUSH2 0xDD3 JUMP JUMPDEST POP POP JUMPDEST POP POP POP JUMP JUMPDEST PUSH0 DUP3 DUP3 SHR SWAP1 POP SWAP3 SWAP2 POP POP JUMP JUMPDEST PUSH0 PUSH2 0xE56 PUSH0 NOT DUP5 PUSH1 0x8 MUL PUSH2 0xE3B JUMP JUMPDEST NOT DUP1 DUP4 AND SWAP2 POP POP SWAP3 SWAP2 POP POP JUMP JUMPDEST PUSH0 PUSH2 0xE6E DUP4 DUP4 PUSH2 0xE47 JUMP JUMPDEST SWAP2 POP DUP3 PUSH1 0x2 MUL DUP3 OR SWAP1 POP SWAP3 SWAP2 POP POP JUMP JUMPDEST PUSH2 0xE87 DUP3 PUSH2 0x764 JUMP JUMPDEST PUSH8 0xFFFFFFFFFFFFFFFF DUP2 GT ISZERO PUSH2 0xEA0 JUMPI PUSH2 0xE9F PUSH2 0xA81 JUMP JUMPDEST JUMPDEST PUSH2 0xEAA DUP3 SLOAD PUSH2 0xC19 JUMP JUMPDEST PUSH2 0xEB5 DUP3 DUP3 DUP6 PUSH2 0xDF5 JUMP JUMPDEST PUSH0 PUSH1 0x20 SWAP1 POP PUSH1 0x1F DUP4 GT PUSH1 0x1 DUP2 EQ PUSH2 0xEE6 JUMPI PUSH0 DUP5 ISZERO PUSH2 0xED4 JUMPI DUP3 DUP8 ADD MLOAD SWAP1 POP JUMPDEST PUSH2 0xEDE DUP6 DUP3 PUSH2 0xE63 JUMP JUMPDEST DUP7 SSTORE POP PUSH2 0xF45 JUMP JUMPDEST PUSH1 0x1F NOT DUP5 AND PUSH2 0xEF4 DUP7 PUSH2 0xCDE JUMP JUMPDEST PUSH0 JUMPDEST DUP3 DUP2 LT ISZERO PUSH2 0xF1B JUMPI DUP5 DUP10 ADD MLOAD DUP3 SSTORE PUSH1 0x1 DUP3 ADD SWAP2 POP PUSH1 0x20 DUP6 ADD SWAP5 POP PUSH1 0x20 DUP2 ADD SWAP1 POP PUSH2 0xEF6 JUMP JUMPDEST DUP7 DUP4 LT ISZERO PUSH2 0xF38 JUMPI DUP5 DUP10 ADD MLOAD PUSH2 0xF34 PUSH1 0x1F DUP10 AND DUP3 PUSH2 0xE47 JUMP JUMPDEST DUP4 SSTORE POP JUMPDEST PUSH1 0x1 PUSH1 0x2 DUP9 MUL ADD DUP9 SSTORE POP POP POP JUMPDEST POP POP POP POP POP POP JUMP INVALID LOG2 PUSH5 0x6970667358 0x22 SLT KECCAK256 STATICCALL 0xC0 BYTE 0x4D BLOBHASH CODECOPY 0x26 EOFCREATE 0xF7 RETURNDATACOPY SUB PUSH2 0xDC8F SAR PUSH2 0xB8E3 NUMBER 0xCC GAS 0xD2 0xBC 0xBE NUMBER 0xB8 NOT LOG2 LOG3 EXTDELEGATECALL PUSH9 0x6464736F6C63430008 0x1E STOP CALLER "
				},
				"gasEstimates": {
					"creation": {
						"codeDepositCost": "794200",
						"executionCost": "829",
						"totalCost": "795029"
					},
					"external": {
						"createTweet(string)": "infinite",
						"getAllTweets(address)": "infinite",
						"getTweet(address,uint256)": "infinite",
						"tweets(address,uint256)": "infinite"
					}
				},
				"methodIdentifiers": {
					"createTweet(string)": "7c9cd2bc",
					"getAllTweets(address)": "12e7ee1c",
					"getTweet(address,uint256)": "112f54e3",
					"tweets(address,uint256)": "05a1b4a9"
				}
			},
			"storageLayout": {
				"storage": [
					{
						"astId": 19,
						"contract": "contracts/Twitter.sol:Twitter",
						"label": "tweets",
						"offset": 0,
						"slot": "0",
						"type": "t_mapping(t_address,t_array(t_struct(Tweet)13_storage)dyn_storage)"
					}
				],
				"types": {
					"t_address": {
						"encoding": "inplace",
						"label": "address",
						"numberOfBytes": "20"
					},
					"t_array(t_struct(Tweet)13_storage)dyn_storage": {
						"base": "t_struct(Tweet)13_storage",
						"encoding": "dynamic_array",
						"label": "struct Twitter.Tweet[]",
						"numberOfBytes": "32"
					},
					"t_mapping(t_address,t_array(t_struct(Tweet)13_storage)dyn_storage)": {
						"encoding": "mapping",
						"key": "t_address",
						"label": "mapping(address => struct Twitter.Tweet[])",
						"numberOfBytes": "32",
						"value": "t_array(t_struct(Tweet)13_storage)dyn_storage"
					},
					"t_string_storage": {
						"encoding": "bytes",
						"label": "string",
						"numberOfBytes": "32"
					},
					"t_struct(Tweet)13_storage": {
						"encoding": "inplace",
						"label": "struct Twitter.Tweet",
						"members": [
							{
								"astId": 6,
								"contract": "contracts/Twitter.sol:Twitter",
								"label": "author",
								"offset": 0,
								"slot": "0",
								"type": "t_address"
							},
							{
								"astId": 8,
								"contract": "contracts/Twitter.sol:Twitter",
								"label": "content",
								"offset": 0,
								"slot": "1",
								"type": "t_string_storage"
							},
							{
								"astId": 10,
								"contract": "contracts/Twitter.sol:Twitter",
								"label": "timestamp",
								"offset": 0,
								"slot": "2",
								"type": "t_uint256"
							},
							{
								"astId": 12,
								"contract": "contracts/Twitter.sol:Twitter",
								"label": "likes",
								"offset": 0,
								"slot": "3",
								"type": "t_uint256"
							}
						],
						"numberOfBytes": "128"
					},
					"t_uint256": {
						"encoding": "inplace",
						"label": "uint256",
						"numberOfBytes": "32"
					}
				}
			},
			"userdoc": {
				"kind": "user",
				"methods": {},
				"version": 1
			}
		}
	}
}