{
    "contractName": "Twitter",
    "abi": [
        {
            "inputs": [
                {
                    "internalType": "string",
                    "name": "_tweet",
                    "type": "string"
                }
            ],
            "name": "createTweet",
            "outputs": [],
            "stateMutability": "nonpayable",
            "type": "function"
        },
        {
            "inputs": [
                {
                    "internalType": "address",
                    "name": "_owner",
                    "type": "address"
                }
            ],
            "name": "getAllTweets",
            "outputs": [
                {
                    "components": [
                        {
                            "internalType": "address",
                            "name": "author",
                            "type": "address"
                        },
                        {
                            "internalType": "string",
                            "name": "content",
                            "type": "string"
                        },
                        {
                            "internalType": "uint256",
                            "name": "timestamp",
                            "type": "uint256"
                        },
                        {
                            "internalType": "uint256",
                            "name": "likes",
                            "type": "uint256"
                        }
                    ],
                    "internalType": "struct Twitter.Tweet[]",
                    "name": "",
                    "type": "tuple[]"
                }
            ],
            "stateMutability": "view",
            "type": "function"
        },
        {
            "inputs": [
                {
                    "internalType": "address",
                    "name": "_owner",
                    "type": "address"
                },
                {
                    "internalType": "uint256",
                    "name": "_i",
                    "type": "uint256"
                }
            ],
            "name": "getTweet",
            "outputs": [
                {
                    "components": [
                        {
                            "internalType": "address",
                            "name": "author",
                            "type": "address"
                        },
                        {
                            "internalType": "string",
                            "name": "content",
                            "type": "string"
                        },
                        {
                            "internalType": "uint256",
                            "name": "timestamp",
                            "type": "uint256"
                        },
                        {
                            "internalType": "uint256",
                            "name": "likes",
                            "type": "uint256"
                        }
                    ],
                    "internalType": "struct Twitter.Tweet",
                    "name": "",
                    "type": "tuple"
                }
            ],
            "stateMutability": "view",
            "type": "function"
        },
        {
            "inputs": [
                {
                    "internalType": "address",
                    "name": "",
                    "type": "address"
                },
                {
                    "internalType": "uint256",
                    "name": "",
                    "type": "uint256"
                }
            ],
            "name": "tweets",
            "outputs": [
                {
                    "internalType": "address",
                    "name": "author",
                    "type": "address"
                },
                {
                    "internalType": "string",
                    "name": "content",
                    "type": "string"
                },
                {
                    "internalType": "uint256",
                    "name": "timestamp",
                    "type": "uint256"
                },
                {
                    "internalType": "uint256",
                    "name": "likes",
                    "type": "uint256"
                }
            ],
            "stateMutability": "view",
            "type": "function"
        }
    ],
    "bytecode": "60808060405234601557610707908161001a8239f35b5f80fdfe60806040526004361015610011575f80fd5b5f3560e01c806305a1b4a914610440578063112f54e3146103c657806312e7ee1c146102d757637c9cd2bc14610045575f80fd5b346102d35760203660031901126102d35760043567ffffffffffffffff81116102d357366023820112156102d357806004013567ffffffffffffffff8111610267576040519161009f601f8301601f19166020018461056a565b81835236602483830101116102d357815f92602460209301838601378301015260fa81511161028e576040516100d48161054e565b338152602081019182526040810142815260608201905f8252335f525f60205260405f208054680100000000000000008110156102675761011a916001820181556104e9565b93909361027b575183546001600160a01b0319166001600160a01b0391909116178355925180519390600184019067ffffffffffffffff8611610267576101618254610516565b601f8111610216575b50602090601f87116001146101b157958091600396975f926101a6575b50508160011b915f1990871b1c19161790555b51600284015551910155005b015190505f80610187565b90601f19871691835f52815f20925f5b8181106101fe57509160019391896003999a94106101e7575b505050811b01905561019a565b01515f1983891b60f8161c191690555f80806101da565b929360206001819287860151815501950193016101c1565b8681111561016a57825f5260205f20601f880160051c906020891061025f575b81601f9101920160051c03905f5b82811061025257505061016a565b5f82820155600101610244565b5f9150610236565b634e487b7160e01b5f52604160045260245ffd5b634e487b7160e01b5f525f60045260245ffd5b60405162461bcd60e51b815260206004820152601f60248201527f594f55275645205245414348454420544845205457454554204c494d495421006044820152606490fd5b5f80fd5b346102d35760203660031901126102d3576001600160a01b036102f86104d3565b165f525f60205260405f2080549067ffffffffffffffff8211610267576040519161032960208260051b018461056a565b8083526020830180925f5260205f205f915b8383106103a857848660405191829160208301906020845251809152604083019060408160051b85010192915f905b82821061037957505050500390f35b919360019193955060206103988192603f198a82030186528851610650565b960192019201859493919261036a565b600460206001926103b88561068c565b81520192019201919061033b565b346102d35760403660031901126102d3576103df6104d3565b5f60606040516103ee8161054e565b828152816020820152826040820152015260018060a01b03165f525f60205261043c61042861042260243560405f206104e9565b5061068c565b604051918291602083526020830190610650565b0390f35b346102d35760403660031901126102d3576104596104d3565b6001600160a01b03165f9081526020819052604090208054602435908110156102d357610485916104e9565b5080546001600160a01b031661049d6001830161058c565b91600360028201549101546104c4604051948594855260806020860152608085019061062c565b91604084015260608301520390f35b600435906001600160a01b03821682036102d357565b8054821015610502575f5260205f209060021b01905f90565b634e487b7160e01b5f52603260045260245ffd5b90600182811c92168015610544575b602083101461053057565b634e487b7160e01b5f52602260045260245ffd5b91607f1691610525565b6080810190811067ffffffffffffffff82111761026757604052565b90601f8019910116810190811067ffffffffffffffff82111761026757604052565b9060405191825f82549261059f84610516565b808452936001811690811561060a57506001146105c6575b506105c49250038361056a565b565b90505f9291925260205f20905f915b8183106105ee5750509060206105c4928201015f6105b7565b60209193508060019154838589010152019101909184926105d5565b9050602092506105c494915060ff191682840152151560051b8201015f6105b7565b805180835260209291819084018484015e5f828201840152601f01601f1916010190565b9060018060a01b038251168152606080610679602085015160806020860152608085019061062c565b9360408101516040850152015191015290565b906040516106998161054e565b82546001600160a01b031681529182906060906003906106bb6001820161058c565b602085015260028101546040850152015491015256fea26469706673582212208323ac73e2de9c960db70cee967f7c22dd63220d4df23c5deb24eb1b4523195564736f6c63430008220033",
    "sourcePath": "c:/Users/JERE/Desktop/learn-solidity/contracts/Twitter.sol",
    "compiler": {
        "name": "solc",
        "version": "0.8.34+commit.80d5c536"
    },
    "functionHashes": {
        "createTweet(string)": "7c9cd2bc",
        "getAllTweets(address)": "12e7ee1c",
        "getTweet(address,uint256)": "112f54e3",
        "tweets(address,uint256)": "05a1b4a9"
    },
    "gasEstimates": {
        "creation": {
            "codeDepositCost": "359800",
            "executionCost": "406",
            "totalCost": "360206"
        },
        "external": {
            "createTweet(string)": "infinite",
            "getAllTweets(address)": "infinite",
            "getTweet(address,uint256)": "infinite",
            "tweets(address,uint256)": "infinite"
        }
    }
}